:10600000C00A0020196A0000156A0000156A000025
:10601000A9950000156A0000156A0000156A0000C5
:10602000156A0000156A0000156A0000156A000074
:10603000156A00009CFA020091660000156A0000D3
:10604000156A0000156A0000156A0000156A000054
:10605000156A0000156A0000156A0000156A000044
:10606000156A0000156A0000156A0000156A000034
:10607000B5A70000156A0000156A0000156A000047
:10608000156A0000156A0000156A0000156A000014
:10609000156A0000E56C0000156A0000156A000032
:1060A000156A00000D6E0000E96D0000156A000021
:1060B000156A000065E50200156A000025EF020080
:1060C000DDEE0200D9EE020031E7020021EF02000E
:1060D000E1EE0200F9EE0200E5EE020085EF0200BB
:1060E00039CA020001CC020065EF0200156A000007
:1060F0002D940000156A0000156A0000156A000062
:10610000156A0000156A0000156A0000156A000093
:10611000156A0000156A0000156A0000156A000083
:10612000156A0000156A0000156A0000156A000073
:10613000156A0000156A0000156A0000156A000063
:1061400010B5054C237833B9044B13B1044800E073
:1061500000BF0123237010BDBC1000200000000010
:10616000E844030008B5034B1BB10349034800E0B2
:1061700000BF08BD00000000C0100020E84403007C
:10618000A3F5803A704700BF174B002B08BF134B95
:106190009D46FFF7F5FF00218B460F461348144A32
:1061A000121A29F0B8F90E4B002B00D098470D4B6E
:1061B000002B00D098470020002104000D000D485E
:1061C000002802D00C4800E000BF29F039F9200077
:1061D000290000F03DFA29F01FF900BF0000080077
:1061E0000000000000000000C00A0020BC100020D9
:1061F000582E0020000000000000000018B104220A
:10620000064B1A647047064B5B6C13F0020F4FF09D
:10621000040314BF034A014A1364704700D00340CB
:1062200000C0034000E00340024B9869C0F3C01077
:10623000704700BF0000064070B5044679B168B1F0
:10624000084E451814F8011B304602F089FDAC4297
:10625000F8D1044A93699B06FCD5012070BD08461D
:10626000FCE700BF0000064070B5304D94B005ACAF
:106270000FCD0FC495E8070084E80700002405A9A6
:106280002B4802F07BFC2B4B2B4D1C7003F0B4FE13
:106290000C23224640F2E6710093CDE9024401232B
:1062A0002648019404F030F8244804F0C7F8294641
:1062B000224804F07BF8286804F002F8234647F2ED
:1062C00030511F4ACDE900441E4803F06AFF03F035
:1062D000D7FF4AF6AA2105221B4BC3E902125860D8
:1062E000012304221846022102F0A4FA0422174BCB
:1062F0001A64012302221946184602F09BFA0CAADE
:106300001546134B03F120061446186859680833E4
:1063100003C4B3422246F7D1284629F0C9F9014601
:106320002846FFF789FF14B070BD00BF48F7020090
:1063300000000640D81000201C120020F810002099
:10634000C1650000DC1000200811002000E00340BF
:1063500028F7020070B506460F480C4602F0F0FC24
:1063600041B2002915DD0D4DA1422A784FF00004FD
:1063700007D10B4930468C5429F0A6F801202C7027
:1063800070BD7E2A03D80649885401322A702046FF
:10639000F6E70020F4E700BF000006401A110020D5
:1063A0001B11002008B5114B1878FFF727FFFFF7E6
:1063B0003BFF90B10A210E48FFF7CCFF012814D112
:1063C000802200210A4B24201CF0AEF9BDE80840D1
:1063D00080220021064829F09EB8064B5B6C9B0783
:1063E00003D5BDE8084003F061BA08BD9B11002049
:1063F0009C11002000C0034030B50446A9B008AD90
:1064000080220021284629F086F82368544A23F484
:106410007F4323F00703934200F0818009D8A2F55F
:106420001022934218D002F5A022934269D029B0DD
:1064300030BD4C4A934268D002F101729342F6D1CA
:10644000B4F805301D2BF2D12389474A13F001031C
:1064500018BF01231370EAE70DF10B0104A81CF02B
:10646000B7F99DF81530414D8DF818309DF814306E
:1064700008228DF819309DF8133000218DF81A305C
:10648000FF238DF81B30FE238DF81C309DF8123051
:1064900012208DF81D309DF8113000248DF81E302B
:1064A0009DF810308DF81F3006AB1CF03DF90DF152
:1064B0000E0303AA00216FF01D001CF061F92846AD
:1064C0001CF09AF81E220021294B28781CF0CEF8E7
:1064D0004FF47A7200942346114628781CF0A4F8F1
:1064E0000222042128781CF0D7F821468022214876
:1064F00029F011F8802221461E4B24201CF014F9AB
:1065000095E701221C4B1A7091E700221A4B0421D7
:106510001A70164B022218781CF0BEF887E7B4F800
:10652000050024280CD10021802206AB00951CF028
:10653000C9F8284629F0BCF801462846FFF77CFE3A
:10654000B4F8050021287FF472AF04AB0093042255
:10655000002106AB1CF0B6F8049803F0B1FE66E724
:10656000A0000A00A0000601D8100020C00A0020E8
:10657000C10A00201B1100209B110020C3780B7062
:1065800043884B7003681B0A8B700368CB70C37918
:106590000B71C3884B7143681B0A8B714368CB71C5
:1065A00083681B0A0B7283684B72C37B8B72C3892F
:1065B000CB72C3681B0A0B73C3684B737047000030
:1065C0001FB503F05DFE030E8DF80030030C1C4C6C
:1065D0008DF80130030A042200218DF802308DF875
:1065E00003006B4621201CF09FF823780122013321
:1065F000DBB2002123708DF800301B206B461CF0AD
:1066000093F8237801220133DBB223708DF8003038
:1066100000216B4619201CF087F80A4B1B786BB1E0
:10662000094A0A481378591C117069460360FFF73C
:10663000A5FF0A461D200E211CF08CF804B010BDE9
:1066400018110020D8100020191100200811002076
:1066500008B504F0CCF8FFF707FE04F0D5F8FFF713
:10666000A1FEFAE708B508F00BFA09F0DEFE0FF01C
:1066700033FB0CF076F8BDE8084010F0ADB808B573
:1066800013F028FE1BF0A7F8BDE8084014F05CBA30
:1066900008F07EB808B50548FFF7F1FF034807F09A
:1066A00025FEBDE80840024807F050BE50FA02003F
:1066B00030FA02000120704700B5C3B007F080FF38
:1066C00007F0A9FF48B1FFF7F5FF30B101A81BF0B3
:1066D0008CFF10B901A8FFF78FFE43B05DF804FBF3
:1066E00008B5012000F0D6F8202000F0D3F8BDE86E
:1066F0000840402000F0CEB808B50321802001F00A
:106700006DFC03214FF4806001F068FC03214FF41D
:10671000906001F063FC08214FF4C06001F05EFC62
:1067200008214FF4F06001F059FC08213E2001F0EF
:1067300055FC08212D2001F051FC002008BD00006F
:1067400008B5174B1B68C3F30743012B0ED1154B3C
:1067500004205A6E4FF480231349520358BF134A42
:106760004B6601F51041086258BF536602F068FCA1
:1067700000F0B9F802F0E4FB02F080FC02F002FC49
:1067800002F03EFC02F042FCFFF7B6FF02F0E8FB2D
:1067900000F09EF800F04CFBBDE8084002F096BF08
:1067A0000080E00F008000400090004000A000400A
:1067B00008B500F0EFFABDE8084000F059B808B598
:1067C00000F066F803F018FC02F05AFC06F0ABFB90
:1067D000BDE8084002F03EBE08B502F0A5FBBDE8EA
:1067E0000840FFF757BF704770477047FFF764BF17
:1067F0007047012070470120704710B507F04CFF2B
:106800000446FFF7F6FF002814BF2046002010BD05
:1068100038B503F04DF9044607F04CFF042817D0B3
:1068200002284FF0000508BF012400F0C5FE04282F
:1068300010D0022808BF0124FFF7DDFF04280BD089
:10684000022808BF0124002D18BF0024204638BDAF
:106850000125EAE70125EFE70024F7E718B1034B2C
:106860001860002070472520704700BF7C12002070
:1068700010B5054C0549206800F09CFD2068BDE876
:106880001040FFF7EBBF00BF100C0020EC0B002006
:106890000F207047082808B50DD004DC0138012806
:1068A00009D90E2013E020280AD04028F9D100236E
:1068B0000422194602E0042200231146184603E090
:1068C000042200231146012001F0B4FF002008BD7E
:1068D00008B501213A2001F01BF8FFF701FFBDE8E0
:1068E000084000F005B801213A2001F011B800007D
:1068F0002DE9F047434D88B001AC0FCD0FC495E8AA
:106900000700012584E8070001213A2001F000F882
:10691000DFF8FC800121282000F0FAFF3A4B4046C6
:1069200001A903938DF8125002F0AAF92B46042214
:106930000021022001F07EFF2A4629460023022082
:1069400001F078FF02212B460846042201F072FF75
:10695000042203212B46022001F06CFF4FF00213AA
:106960002A4C0226C4F83036A3F58033C4F82C36FE
:106970001C230827C4F8346604F5005AC4F81C36F2
:106980004FF4487003F04CFF04F580591420CAF806
:10699000707003F045FF2320C9F8707003F040FFCA
:1069A000B9214046CAF8707002F0D0F90023304691
:1069B0001A461946C9F8707001F03CFF00232946B9
:1069C0001A46304601F036FF2B463146304600224B
:1069D00001F030FF2B4600220321304601F02AFF50
:1069E000404602F09DF800212820C4F83016C4F873
:1069F0002C16C4F83416C4F81C1600F089FF08B031
:106A0000BDE8F08780FA020000127A0000C003405F
:106A100000C00540FEE7000008B500F013F8064B83
:106A2000064A07498B4201D3FFF7AEFB52F8040B2D
:106A300043F8040BF6E700BFC00A0020F04403004F
:106A4000BC100020044B054A9A60D3F8882042F419
:106A50007002C3F88820704700ED00E0006000007D
:106A6000014B1868704700BF180D0020084B1B6FC2
:106A700003F00703022B04D0032B05D0012B05D014
:106A8000FEE7044B18687047034BFBE70348704769
:106A900000800040180D00201C0D0020002D310149
:106AA00008B5FFF7E3FF054B1B6FC3F30333013357
:106AB000B0FBF3F0024B186008BD00BF008000403F
:106AC000140D00200048704700B4C404014B18683E
:106AD000704700BF1C0D0020054B1860054B1B6F55
:106AE00003F00703032B01D1FFF7DABF704700BFA4
:106AF0001C0D0020008000400020704700487047B7
:106B0000002D31014FF4004070474FF47A70704708
:106B1000014B1868704700BF200D00200023036060
:106B2000704703680B6001607047000005490A6800
:106B30001318054883428CBF4FF0FF320B6010469C
:106B4000704700BF240D00200080002038B5124B94
:106B500005461B78DBB1E0B101F0EFFB0F4A0023E3
:106B60001146147B54B92B6001251A0101EB031364
:106B70001D738C5001F0E7FB204638BD0133082B14
:106B800002F11002EDD101F0DEFB0548F5E7054802
:106B9000F3E70548F1E700BF001400208012002051
:106BA000048000F0028000F0018000F0154B13B566
:106BB0001868002301908DF8043001F0BEFB124BE1
:106BC0001C7824B101F0BFFB104802B010BD0122B7
:106BD0001A7001F0B8FB0E4B01A81C731C7783F8E8
:106BE0002C4083F83C4083F84C4083F85C4083F8A9
:106BF0006C4083F87C4008238DF8073001F068FE74
:106C00002046E2E7DCFA020000140020038000F0D6
:106C1000801200200A4A08B512785AB107280BD80A
:106C2000084A02EB00131B7B43B1002101F042FE36
:106C3000002008BD0448FCE70448FAE70448F8E7E8
:106C40000014002080120020028000F0018000F07B
:106C5000078000F00A4A08B512785AB107280BD805
:106C6000084A02EB00131B7B43B1012101F022FE15
:106C7000002008BD0448FCE70448FAE70448F8E7A8
:106C80000014002080120020028000F0018000F03B
:106C9000078000F00D4B1B7893B1072812D889B1FB
:106CA0000B4B03EB00131B7B73B10A4BDA6A012316
:106CB00003FA00F010401ABF00200B7008707047F4
:106CC0000548704705487047054870470014002084
:106CD0008012002000000440028000F0018000F0DB
:106CE000078000F02DE9F843174B1F6D5B6D1F40C7
:106CF00000D5FEE701260025144CDFF85480DFF8AC
:106D00005490374217D02368C8F850609BB1A168EF
:106D1000284601316268A1609847637B012B0AD144
:106D200048B909EB45131A7B60F341021A731A7FC5
:106D300060F341021A770135082D4FEA460604F147
:106D40001004DED1BDE8F88300000440801200206A
:106D5000002004400013002070B5044601250C4EAD
:106D600004B970BD94FAA4F3B3FA83F305FA03F2FD
:106D700006EB031124EA02044A68002AF0D0D8B2D4
:106D80000B7B13B189689047EAE79047E8E700BFBB
:106D90000414002008B5192001F0D8FA28B14FF0EA
:106DA0000072074BC3F880211A601A2001F0CEFA56
:106DB00028B14FF08062024BC3F880211A6008BDF1
:106DC00000E100E038B505460C4601F0B6FA0022B5
:106DD000044B03EB05135C601A73BDE8384001F007
:106DE000B2BA00BF04140020074BD3F82404D3F830
:106DF000202403F50053104000F0553020F05020BF
:106E0000C3F82004FFF7A8BF00C00340074BD3F826
:106E10002404D3F8202403F50053104000F0AA30D6
:106E200020F0A020C3F82004FFF796BF00C0034065
:106E3000024B1968024B186820F0DCBC2C0D0020B6
:106E4000280D00207047000037B5920004460D461B
:106E5000019228F061FC431C0BD060B92946204602
:106E6000019A28F021FB0028044808BF002003B045
:106E700030BD0348FBE70348F9E700BF10E000F02E
:106E800021E000F024E000F013B5044601A801F071
:106E9000E5FD9DF80630012223804FF48073002029
:106EA0006380054B9B680A3303F01F0302FA03F368
:106EB000636002B010BD00BF0080E00F01F04ABD6A
:106EC00008B501F037FD002008BD10B5044644EABE
:106ED000010313F00303084609D1934201D10020B6
:106EE00010BD54F8231040F823100133F5E7214674
:106EF000920028F0E9FAF2E710B5044628F004FC05
:106F0000431C15D0B0B90C4B20469B680A3303F0E4
:106F10001F020123934023F003032344984201D12D
:106F2000002010BD50F8042B0132F7D00348F8E7D9
:106F30000348F6E70348F4E70080E00F0EE000F0B6
:106F400021E000F024E000F008B501F0EFF9014B7A
:106F5000186008BD981C0020014B186801F0EAB9C0
:106F6000981C00200A460139014402F0CDBA000005
:106F700038B141B1013AB2F5006F044838BF002082
:106F80007047034870470148704700BF037000F026
:106F9000027000F090F83530022B0BD13023427F85
:106FA00090F821005A43044B9B5823FA00F000F05C
:106FB000010070470020704714C00340002313B540
:106FC0001D4A52F8044B94F8211081420ED001332F
:106FD000042BF6D102B010BD0028FBD19DF807307C
:106FE000002BF7D0A068FFF715FEF3E794F83530D3
:106FF000022BEFD12046FFF7CDFF637E2076022BD8
:10700000E8D194F8323003F0FF02002BE2D1A068FF
:107010000DF107018DF80720FFF73CFE237E1BB121
:1070200094F83330002BD7D00023A06884F8333095
:10703000FFF710FECEE700BF4C1D0020104930B511
:107040000B78104A2BB9C2E90033C2E9023301239D
:107050000B700C4C0023214651F8045B854208D08C
:107060000133042BF8D1002154F8043B1BB942F83A
:107070002100002003E001310429F5D1024830BD90
:107080005C1D00204C1D0020027000F010B504466D
:10709000FFF78CFD002104F10800FFF757FD0146C2
:1070A00020B904F10C00FFF751FD00B1004810BDFC
:1070B0000E7000F008B590F8363083B904220368EA
:1070C0005A619A699207FCD541F21C62102103793A
:1070D0005B0103F1804303F57033995008BD022B27
:1070E000FCD10068036CDB074CBF0521062101F0D1
:1070F0002DFB0222014BC3F8C020EFE700D4034070
:107100001FB504460B46C07EE17F002B39D001231A
:10711000042201F08FFB0123022294F82010207F2B
:1071200001F088FB94F83530022B19D1002301229D
:1071300094F82110607F01F07DFB0023042294F875
:107140002210A07F01F076FB012394F82120019307
:107150001146607F009301F015FB002004B010BDC4
:10716000032BFAD10023012294F82110607F01F053
:1071700061FB0023042294F82210A07F01F05AFB47
:10718000EBE71A46039301F055FB039B94F820109C
:107190001A46207F01F04EFB94F83520039B022A0B
:1071A00012D11A4694F82110607F01F043FB039B33
:1071B00094F822101A46A07F01F03CFB039B94F840
:1071C000212001930123C3E7032AC6D11A4694F86C
:1071D0002110607F039301F02DFB039B1A46CAE741
:1071E000F8B505460E461746FFF7C2FE002868D1DF
:1071F000152001F0B9F80446EA6A93889BB213B1EE
:1072000095F83230E3B195F83630F3B92B689C69C4
:1072100004F002041CB92846FFF74CFF00240123A8
:1072200085F8343095F83630CBB93744BE422868FB
:1072300010D183699A06FCD51CB300242046F8BD02
:10724000002CDAD0FFF74EFDD6E7022BE3D12B68F6
:107250001C6CDDE716F8011B01F082FDE6E7022B4E
:10726000EAD13744B742286806D142F22003026CC3
:1072700033EA0202FBD1DFE716F8011B01F06BFADB
:10728000F0E795F836306BB942F21C6210212B7989
:107290005B0103F1804303F57033995008222B689A
:1072A0005A61CBE7022BC9D12868036CDB074CBFBE
:1072B0000921214601F04AFA0222034BC3F8C020FB
:1072C000BCE70446BAE700BF00E4034010B504463B
:1072D00080B190F832302BB9FFF75CFE10B9A0688E
:1072E000FFF798FC002094F832300133DBB284F8C9
:1072F000323010BD0048FCE7027000F010B50446C3
:10730000A0B190F832309BB190F83230012B05D10A
:10731000FFF740FE10B9A068FFF79CFC002094F82E
:107320003230013BDBB284F8323010BD0148FCE75B
:107330000148FAE7027000F0057000F037B590F8E8
:1073400035500446022D1DD1012290F82230457E91
:10735000817F9A403020164B25B900FB013342F261
:10736000100105E0012D07D100FB013341F21001AE
:107370005A50002003B030BD247E00FB0133002CA6
:10738000F4D1ECE7012DF4D1037E73B911238DF80C
:107390000730FFF79BFF2A4620460DF10701FFF754
:1073A0001FFF2046FFF7AAFFE3E71323EFE700BF25
:1073B00000C003402DE9F0410446764F88B001AE8D
:1073C0000D460FCF0FC697E8070086E80700002C90
:1073D00000F0DE8025B9704E304608B0BDE8F0817F
:1073E0005C220021204628F096F800232046A36363
:1073F000FFF724FE06460028EED12B7D84F83530B9
:107400002B6884F8360023602A7B2271012284F8DD
:107410003C20624A934240F09F802823A384604B23
:1074200023614FF4802300266361D5E90723A2621C
:1074300016805680968084F83060E3621E805E80FD
:107440009E806B6884F831600393EB8984F8336025
:10745000ADF814302B8A0121ADF81230AB7C3A2004
:107460008DF81030EB7CDFF84C818DF81630052359
:107470008DF8113000F04CFA0121A08C00F048FA90
:10748000286801A98DF8046001F078FB14222B7B99
:1074900008EB4313C3F81C262E7AA87A46EA00426A
:1074A000C3F83426697AEA7A41EA0247C3F82C76AF
:1074B000E676E077217784F820206B7D01216377E1
:1074C000AB7D204684F82130EB7DA3772B7E84F8BA
:1074D0002230FFF715FE064600287FF47DAF00F04E
:1074E0002CFF2B7D0746032B41D141F21C62022168
:1074F0002B7B08EB431848F8021004212A685B0133
:1075000002F58052D165297EEA7D03F1804342EA8B
:10751000014203F57433C3F82826A97D6A7D42EA47
:107520000142C3F824264FF0FF32286800F50053CB
:107530009A642B7D032B0CBF0521042101F0E0FA96
:107540004FF440622B6820465A61FFF79FFD0646C4
:10755000384600F0F8FE3FE7124A93427FF43BAF13
:107560002923A384104B23614FF4A0235BE7022B54
:10757000D9D194F821000D49FFF724FCFFF70AFC4C
:107580004FF4007320462383A676FFF7D7FECAE7A1
:10759000074E21E704FB0200037000F000C0054025
:1075A000020004000000064002000500BD6F00005C
:1075B000027000F000C003400B4B30B51B788BB15C
:1075C000012000230546094951F8042B32B192F8F5
:1075D0003C40022C04BF204682F83C500133042B6F
:1075E000F2D130BD0120FCE75C1D00204C1D0020C5
:1075F0004FF04023D3F88420D206FBD4D3F8840084
:10760000C0F381107047000038B5104B0546D3F821
:1076100020310C4603F00303022B0BD0032B0DD0BB
:10762000012B0FD1FFF71CFA052305B1286004B127
:10763000237038BDFFF74AFA0323F6E7FFF75EFA37
:107640000223F2E700231846EFE700BF0080004066
:1076500073B50D4600210E4B0191D3F880410646CB
:1076600004F00304012C09D0022C0CD00C460EB1FE
:10767000019B336005B12C7002B070BD01A8FFF70B
:10768000C3FF0F24F3E7FFF739FA0190EFE700BFDC
:107690000080004038B5174B0546D3F824310C461E
:1076A00003F00703013B052B20D8DFE803F0030FAD
:1076B000171B0B13FFF7D4F9052305B1286004B19C
:1076C000237038BDFFF7CCF90623F6E7FFF7FEF984
:1076D0000323F2E7FFF7FAF90423EEE7FFF70EFAC8
:1076E0000223EAE7FFF708FA0723E6E70023184634
:1076F000E3E700BF0080004038B5104B0546D3F8E3
:1077000040310C4603F00303022B0BD0032B0DD0AA
:10771000012B0FD1FFF7F6F9092305B1286004B159
:10772000237038BDFFF7F4F90823F6E7FFF7EDF90A
:107730000B23F2E700231846EFE700BF008000406C
:1077400038B5134B0546D3F800320C4603F0070357
:10775000013B032B18D8DFE803F0020A0E12FFF7F3
:10776000D1F9092305B1286004B1237038BDFFF7B2
:10777000CFF90823F6E7FFF7C8F90B23F2E7FFF785
:107780008FF90E23800AEDE700231846EAE700BFD1
:107790000080004038B5104B0546D3F840320C4607
:1077A00003F00303022B0BD0032B0DD0012B0FD1C1
:1077B000FFF7A8F9092305B1286004B1237038BD8B
:1077C000FFF7A6F90823F6E7FFF79FF90B23F2E787
:1077D00000231846EFE700BF0080004038B5104B8B
:1077E0000546D3F860310C4603F00303022B0BD09F
:1077F000032B0DD0012B0FD1FFF784F9092305B11D
:10780000286004B1237038BDFFF782F90823F6E73A
:10781000FFF77BF90B23F2E700231846EFE700BFE1
:107820000080004010B40D4C0B46D4F8204204F008
:107830000304012C0AD0022C0CD008B100210160F5
:107840000BB100221A705DF8044B70475DF8044BD1
:10785000FFF7DABE5DF8044BFFF74EBF0080004033
:10786000B0F5207F1FD009D8B0F5007F15D003D820
:1078700068B1B0F5C07F0AD000200CE0B0F5607FA1
:10788000FAD10B4BD3F88000C0F3011003E0084B92
:10789000186FC0F3033001307047054BD3F89000E8
:1078A000C0F30460F7E7024B186FC0F38020F2E7E3
:1078B000008000404FF4003238B50E4B05469A6602
:1078C0000020FFF7CDFF41F671320B4B6843DC69B6
:1078D0000A4DDA639A68A84204F4803422F4401214
:1078E00003D9012918BF42F480129A600CB100221A
:1078F000DA6338BD0090004000000340005A620285
:1079000008B5FFF7DFF8BDE808400021FFF7D2BF58
:10791000420910B510D0012A10D00B4B0B4C022A93
:1079200018BF234600F01F0051B103F58053012218
:1079300002FA00F0186010BD1346F3E7044BF1E7BC
:1079400003F50053F3E700BF688000406082004009
:10795000648000401FB5002380280446029372D043
:107960002BD8002873D0A0F12004A3B2412B32D829
:10797000412C30D8DFE804F06B6E6B6E7D7D7D7D31
:107980006E6E873C9E623C6E6E6E2F2F2F2F2F2FB8
:1079900082546E6E6EA8A36E2F2F2F2F2F2F2F2F96
:1079A0002F2F2F2F2F6B2F6B6B6B7D2F2F2F2F2FA9
:1079B0002F2F2F2F2F2F2F2F6B6BB0F5806F58D0BD
:1079C00021D8B0F5007F4FD008D8B0F5807F5FD0C8
:1079D000B0F5C07F3BD0029804B010BDB0F5607F19
:1079E00042D0F8D8B0F5207F34D0B0F5407FF2D146
:1079F000FFF756F802464FF42070FFF731FFB2FB55
:107A0000F0F0400821E0B0F5C06F53D00DD8B0F5CC
:107A1000A06F33D0B0F5B06F35D0B0F5906FDAD13C
:107A2000002102A8FFF736FED5E7B0F5E06F46D09B
:107A3000B0F5F06F48D0B0F5D06FCCD1002102A8DE
:107A4000FFF77EFEC7E7FFF711F80290C3E7FFF7E5
:107A500027F8FAE7FFF724F802464FF42070FFF703
:107A6000FFFEB2FBF0F0F0E7FFF700F80246204619
:107A7000F5E7002102A8FFF7C7FDACE7002102A847
:107A8000FFF7D0FEA7E7002102A8FFF7E1FDA2E77C
:107A900003934FF0E0231B695B0705D5FFF700F860
:107AA0000390039B029396E70DF1070103A8FFF7EC
:107AB00023FEF6E7002102A8FFF71EFE8BE7002158
:107AC00002A8FFF767FE86E7002102A8FFF786FEFF
:107AD00081E7000008B58020FFF73CFF034B984288
:107AE0009EBF4FF48032024B1A6708BD005A6202F3
:107AF00000A00040002307B5B0F5807F8DF802306C
:107B00007FD02AD8382800F0A0800CD8243883B23F
:107B1000092B10D809280ED8DFE800F06D6D6D6DC7
:107B20000D0D670D3987522865D009D83D283ED004
:107B30003E2800F090809DF8020003B05DF804FB41
:107B40008028F8D1474B1B6F03F00703013B032B41
:107B5000F1D8DFE803F048444276B0F5D06F64D046
:107B60001BD8B0F5A06F70D00BD8B0F5806F42D0A5
:107B7000B0F5906FDFD100200DF10201FFF78AFD13
:107B8000D9E7B0F5B06F30D0B0F5C06FD3D10020D9
:107B90000DF10201FFF7B0FDCDE7B0F5006FEAD0BF
:107BA0000BD8B0F5E06F56D0B0F5F06FC3D1002020
:107BB0000DF10201FFF712FEBDE7B0F5086FBAD173
:107BC000284BD3F8003103F00303022B33D0032BEF
:107BD00035D0012B37D1FEF779FF032300E00523D1
:107BE0008DF80230A7E70223FAE700200DF1020129
:107BF000FFF72EFD9FE700200DF10201FFF704FDC6
:107C000099E701934FF0E0231B695B0707D5FEF767
:107C100047FF0C238DF803309DF80330E0E70DF1AA
:107C2000030101A8FFF768FDF6E700200DF102014E
:107C3000FFF786FD7FE7FEF76BFF0823D0E7FEF72F
:107C40005BFF0723CCE70123CAE700200DF1020107
:107C5000FFF7E8FD6FE700200DF10201FFF79AFD45
:107C600069E700BF0080004008B5FFF743FF082820
:107C700012D00938C0B2012811D84FF40012094BB4
:107C80004FF6FF705A6603F5D8335B6A13F0010FA5
:107C900018BF4FF4FA7008BD034B1888FBE74FF686
:107CA000FF70F8E7009000404C0D002070B50446CE
:107CB0008020FFF71FFF03287CD04FF40022424BA7
:107CC00042495A6645F60E030222C1F88030404B05
:107CD0009A62012203F580539A628A6D12F480320F
:107CE000FBD1637820781B0543EA0063A079257CEB
:107CF0000343E078667C43EA0043207943EA00339B
:107D0000607943EA80130B618B69E07A03F00043EA
:107D10000343E07943EA8063207A43EA0063607AB0
:107D200043EA0043A07A43EA00238B61637B096A3C
:107D3000002B18BF0822207B21F00D0143EA01032C
:107D400043EA800342EA0302204B1A62A27B4FEA15
:107D5000421230D1986AE17B20F0330042EA0112EE
:107D6000024342F001029A621A4A996D32EA010115
:107D7000FBD1022216498A621A659A6D5200FCD420
:107D80001869A27820F4700040EA02504FF00042D7
:107D900018610F4B9A611DB9022203F580539A6254
:107DA00016B901220C4B9A62A37C1BB1074B0B4AFC
:107DB000C3F8802070BD996A21F0330131430A4332
:107DC00042EA4502EFE700BF0090004000C00040DB
:107DD00000D000400300014000E00040F1A7FFFF99
:107DE000014B93F9000070475D1D0020F0B54FF482
:107DF00080061B4A41788478C378057856664FF42C
:107E0000D156022702F5B8325662164E4F297760D6
:107E10004FF0010728BF4F2106F58056776016699D
:107E2000F603FCD441EA052151611B01417943EA83
:107E300004230B43017943EA41039360C3798179B9
:107E40001B0143EA4113417A0B43017A43EA4103A0
:107E50005360837A13B16FF4D1535362F0BD00BF06
:107E60000090004000100240014B1880704700BF96
:107E70004C0D00204FF4001208B5184B5A6602232F
:107E8000174A5360936813F48033FBD1012822D141
:107E9000FEF71CFE134B984215D003F5122303F591
:107EA000F863984213D0104B00EB8002400AB3FBFA
:107EB000F0F0520A0A4BDA62012218635A62002279
:107EC000074B5A6008BD45F67A10084AF2E745F6B6
:107ED0001A00074AEEE75362F1E700BF0090004046
:107EE0000040024000F0490264666666D8B80500AA
:107EF000BBCF05000029CCBF01210021FFF7DABC70
:107F0000B0F5207F10B50C4642D008D8B0F5007F00
:107F100033D003D888B1B0F5C07F0ED010BDB0F516
:107F2000607FFBD11F4B013CD3F8801021F0300162
:107F300041EA0414C3F88040F0E7FFF7E1FC00F0E9
:107F400035F84FF48031184A164B1167196F013C10
:107F500021F4704141EA04341C67FEF7A1FD044698
:107F6000FFF746FBC0F102012046FFF7C3FF00F018
:107F700023F8BDE81040FFF7ADBD0A4B013CD3F834
:107F8000901021F0F85141EA0464C3F89040C5E72D
:107F9000044B013C196F21F4806141EA84241C6781
:107FA000BCE700BF008000400090004002214FF479
:107FB0002070FFF7A5BF000008B54FF4C070FFF7B1
:107FC000C9FCBDE80840044988428CBF0221012158
:107FD0004FF42070FFF794BF80F0FA02B0F5807F75
:107FE00070B50C4600F0FE802AD8382800F0528187
:107FF00011D8243883B2092B16D8092814D8DFE801
:1080000010F0E000E000E000E00013001300D100F9
:10801000130048003801522800F0D38005D83D28CD
:1080200053D03E2800F0478170BD8028FCD18B1EC4
:10803000052B00F2B480DFE803F0AF9DB26DB2AC67
:10804000B0F5D06F00F0158134D8B0F5A06F00F016
:10805000218117D8B0F5806F00F0B380B0F5906F34
:10806000E2D1023CE4B2052C8CBF00219A4B9B4A22
:1080700098BF195DD2F8243123F007030B43C2F8EF
:108080002431D1E7B0F5B06F00F08C80B0F5C06F4F
:10809000CAD1083CE4B2032C8CBF0021904B8F4A1C
:1080A00098BF195DD2F8403123F003030B43C2F8A7
:1080B0004031B9E7B0F5006FD3D017D8B0F5E06F15
:1080C00000F0F980B0F5F06FAED1083CE4B2032CBB
:1080D0008CBF0021834B814A98BF195DD2F8603173
:1080E00023F003030B43C2F860319DE7B0F5086F3E
:1080F0009AD1CC1EE4B2052C8CBF00217A4B774A72
:1081000098BF195DD2F8003123F003030B43C2F886
:10811000003189E7002502260121022000F002FA41
:10812000FFF7EEFBFFF742FF4FF480316F4B6B4AD6
:108130001967136F23F0070333431367FEF7B0FC8F
:108140000646FFF755FAC0F102013046FFF7D2FEAE
:108150000121002000F026FAFFF72EFFFFF7BAFCFE
:10816000002D7FF461AF032C7FF45EAF0122604BE2
:108170009A6259E74FF400225C4B03265A660122AB
:1081800003F540539D6A03F58053C5F340059A6299
:10819000C2E700250426BFE700250126BCE700252D
:1081A0002E46B9E7022C03D0A4F10F00444244410B
:1081B0004A4AD2F8803123F003031C43C2F88041BD
:1081C00032E7023CE4B2032C8CBF0021494B434A06
:1081D00098BF195DD2F8203123F003030B43C2F896
:1081E000203121E7A1F10804082C3FF61DAF01A3BF
:1081F00053F824F019820000198200002980000041
:1082000019820000478200002980000029800000B8
:1082100029800000198200004FF480322F4B36492C
:10822000586E03F580535A660B6A43F001030B62E4
:10823000C1035CBF314B5A664FF0E022136923F053
:1082400004031361F0E64FF48032244B2A49586E40
:1082500003F580535A660B6A23F001030B62C303D4
:108260005CBF264B5A664FF0E022136943F00403CB
:10827000E7E7083CE4B2062C8CBF0021204B174AEC
:1082800098BF195DD2F8003223F007030B43C2F800
:108290000032C9E60F2C0CD0102C14BF0021022193
:1082A0000E4AD2F8203223F003030B43C2F82032E7
:1082B000BAE60121F4E7083CE4B2032C8CBF0021AC
:1082C000104B064A98BF195DD2F8403223F00303E1
:1082D0000B43C2F84032A7E648FB02000080004092
:1082E00044FB020044FB020055FB020000900040EA
:1082F00000E0004040FB020000C0074000A000403A
:108300004EFB020044FB02000028ABBF00F16040BE
:10831000054B00F5614000F00F00ACBF90F8000382
:10832000185C0009704700BF14ED00E0EFF3108007
:1083300072B6704700B962B67047EFF31180302310
:1083400083F31188704780F311887047054B420909
:1083500053F8223000F01F0023FA00F0C04300F071
:108360000100704700E100E0014608B5EFF310831B
:10837000DB0702D50122104608BDFFF7E7FF0246E2
:108380000028F7D10846FFF7BFFF0146EFF311833E
:1083900013B1B0EB131FEDD2074B5B68C3F30803B7
:1083A000002BE8D0103B58B2FFF7AEFF88428CBFDD
:1083B00000220122DFE700BF00ED00E0194B10B5FD
:1083C0001B6873B3184A5268012A2AD0174A8020C2
:1083D000C2F80031FFF78EFB05281FD14FF4C070A3
:1083E000FFF73EFA0128044604D102214FF4C07081
:1083F000FFF786FD07220E4B1A610122A3F5805379
:108400005A60094A1369DB07FCD5012C09D12146C2
:10841000BDE810404FF4C070FFF772BD0122054B5C
:108420005A6010BD601D002000C001400080004067
:1084300000E0014000D0014000224FF40031074B22
:108440001A60074A516602F598325268012A02BF43
:10845000044AD2F800211A60704700BF601D002056
:1084600000900040008000404FF04022536F417860
:1084700023F4407343EA0123536770477047704702
:1084800010B5044608B1FFF7D7FF0E4A136943F051
:108490000403136101F0E2FBFFF7F0FFFFF746FF73
:1084A00027F02AF9FFF746FFFFF7E9FF01F0EAFBA3
:1084B0001CB1BDE81040FFF781BFBDE81040FEF7DA
:1084C000EFBA00BF00ED00E010B5044608B1FFF7B9
:1084D000B3FF0C4A136943F00403136101F0BEFBC0
:1084E000FFF724FF27F008F9FFF724FF01F0CAFB8C
:1084F0001CB1BDE81040FFF761BFBDE81040FEF7BA
:10850000CFBA00BF00ED00E0FFF796BFFFF756BF00
:108510004FF04022D36E017923F030030B43D36632
:1085200070477047F8B504464FF04023D3F88420D5
:10853000D106FBD4D3F88430C3F381139C422DD0F1
:10854000FEF794FA012C064602D12146FFF7D2FC31
:10855000FFF7ECFE4FF00072114B07465A662046BB
:10856000FFF7DFFF4FF480634FF04025621E93401A
:108570002B676B6E9A0103D4D5F884309B060AD51D
:108580003846FFF7D7FE022C08D13046BDE8F84048
:108590000021FFF7AFBCD5F88430EAE7F8BD00BF93
:1085A0000060004007B518B90191FEF75FFA019924
:1085B000064B1B7843B1064B984205D8012003B007
:1085C0005DF804EBFFF7AEBF0220F8E7641D002062
:1085D000005A62020278034B012100201A70FFF753
:1085E000E1BF00BF641D00204FF0004210B5012420
:1085F0004AF6CD31144B5A66144A03F50B235460E6
:108600005A6C1964224078B9996811F0010F104929
:1086100003D08C60D86AC007FCD501234B6012B12F
:108620000C4B0D4A1A6410BDD96A0907FCD42021ED
:10863000074B59620121A3F58053996005494B6AA4
:108640009B06FCD5EBE700BF0090004000500940BE
:1086500000600940004009403254FFFF4FF00042E3
:1086600038B5184B184C5A66012203F50C235A6092
:108670004AF6CD33656C2364437815409340134329
:108680004FF04022D363A368827823F0740343EA57
:108690000213C278002A14BF042200221343A360ED
:1086A0000279837943EA022323614279C37943EA59
:1086B000022363610078FFF797FF0DB1034B23643A
:1086C000012038BD00900040004009403254FFFFB7
:1086D000C36C0B42FCD1704708B543680246DB0708
:1086E00014D50A2350210363FFF7F2FF136C990797
:1086F000FCD1936A012110469362FFF7E9FF136CE6
:108700001B0604D4012302F50052536008BD536BCD
:10871000F5E738B50C460121024600F58053596053
:1087200004F00F0540F2FF71FFF7D2FF78210563D7
:10873000FFF7CEFF04F00103610748BF43F00203D7
:10874000116C01F003019942FAD138BD09B9FFF764
:10875000C3BFFFF7DEBF036C5B06FCD5C163704788
:1087600070B5054614460E46FFF7E0FD296881EA1C
:10877000040202EA06044C402C60BDE87040FFF79A
:10878000D9BD0000072AF7B501F0030614461F46BD
:108790004FF003012CD89500A94000FA05F21C48BF
:1087A0000191FFF7DDFF01991A4806FA05F2FFF77C
:1087B000D7FF194B19499DF82000002F08BF194613
:1087C000012303FA04F40C60154B1649002808BF76
:1087D0000B461C60144B9DF82400C3F82044103154
:1087E000A3F6DC33002808BF0B461C6003B0F0BDC5
:1087F000A2F10805AD00A94000FA05F20B4801916D
:10880000FFF7AEFF01990A4806FA05F2CFE700BF6D
:1088100000C4034008C4034010E4034010D40340E4
:1088200014D4034014E4034000E0034004C40340B4
:108830000CC40340F8B504460D461F4616464AB11F
:1088400001238B403021184A01FB0022F7B141F28D
:10885000100153503023072D4FF00F0104FB03F399
:1088600017D8A80006FA00F2814010481844FFF714
:1088700077FF56B9012130230B4801FA05F503FBB8
:10888000040077B141F21003C550F8BD42F2100167
:10889000DFE7A5F10800800006FA00F281400448F5
:1088A000E4E742F21003EFE700C0034004C00340D6
:1088B0000CC00340044A054B002918BF134601228F
:1088C00002FA00F018607047402004404010044055
:1088D00010B5012104462020FFF71AF801212120BC
:1088E000FFF716F80122114B5A60227812069A609F
:1088F0006178A27842EA01429A61FF229A620022DC
:108900009A631A644FF000425A654FF0FF324FF4F9
:10891000001103F500531A65054AC2F88011E37887
:108920001B01DBB282F81533116010BD000004405A
:1089300000E100E04FF40032054B9A6641F67132D7
:1089400003F51C33DA63012203F50053DA60704744
:108950000090004041F671320121064BDA6303F5C5
:108960000052D1600022DA634FF40032A3F51833CD
:108970009A667047000003404FF090435A6812B166
:108980009A6A002AFAD17047CB784A7810B55B0111
:108990000C7843EA82030A79234343EA02130C2248
:1089A000424302F190421363012C02BF8A78024BCA
:1089B00043F8202010BD00BFE880034008B54FF009
:1089C00090435A6802B960B15B680BB1FFF7D4FFFE
:1089D0004FF0904130B10120074B5860FFF7CCFFBA
:1089E000C86008BDFFF7C8FF0223CB60FFF7C4FFD4
:1089F0000122024B5A60F4E70010004800200048B2
:108A00004FF090435B6870B50BB1FFF7B5FF0121E4
:108A1000104B4578596083780679002BC37814BFD2
:108A200002240024002B14BF042200224379DB001F
:108A300043EA06132B43234313434FF090429360C2
:108A4000054B59600378002B14BF0B460223D360FB
:108A500070BD00BF00200048001000484FF4803275
:108A6000064B5A6603F5E6235B69C3F385128270F1
:108A700003F03F021B0B42700370704700900040F0
:108A800070B5054616461C4621B94FF42070FEF716
:108A900061FF0146402C1BD003D8DCB1202C1BD039
:108AA00070BD602CFCD1042303FB06F2560806EBD4
:108AB0004113B3FBF2F3094A203B02EAC303AA685D
:108AC00022F06002AA60AA681443AC60EB61E7E799
:108AD0000623E9E71023E7E70823E5E7F8FF7F002F
:108AE00038B50546144621B94FF42070FEF732FF21
:108AF000014601396400B1FBF4F10902E96138BDB6
:108B0000012200F580535A60CB43934003F00A03DF
:108B10004361416111B900F50050426070470000A7
:108B2000012200F5805310B55A6040F6AA6341F265
:108B30000502436100230E498360C365C26000F5EE
:108B400000520361C361C36491640A49836588422A
:108B500002D0094CA04207D18842036502D0064BDF
:108B6000984201D1002343650123536010BD00BF2B
:108B7000FFFF010000C005400000064070B50D4633
:108B8000FFF7CEFF012300F580567360AB7C0446EF
:108B90001BB1836843F080438360EB7C5BB1354A53
:108BA0002B7D944245D1A2F51032C2F88C31E36D91
:108BB00043F08003E3652A8A6B7B20461343EA89EE
:108BC0001343E3602B7BD5E90112FFF759FF6B7D5F
:108BD0001BB1A36843F48033A360AB7D1BB1A368D2
:108BE00043F40043A360EB7D2A7E1B07120502F4C9
:108BF000E00203F0E0431343A365697E1D4A8B1E28
:108C0000012B1D4B1FD894421BD002F58042944289
:108C10000CBF01224FF0FF3203EB4213022041F25E
:108C20001C620329985020D10423F3652B786361DB
:108C300070BD124A944204BFA2F52032C2F89C31A2
:108C4000B5E70022E8E794420DD00C4A94420CBFED
:108C500001224FF0FF3203EB4213022042F21C626A
:108C600001299850DFE70022F5E7042204F50053BC
:108C7000DA65DBE700C0054000C0034000000640A5
:108C800038B50D46FFF74CFF0122A97B00F5805354
:108C90005A602A8A8368002914BF4FF4806100213A
:108CA00042F0010213432A7D0B43002A14BF4FF008
:108CB0000052002283608368044613438360AB7CC8
:108CC0005BB11D4AEB7C90422DD1A2F51032C2F867
:108CD0008C31E36D43F08003E3652B7B2046D5E9BF
:108CE000011243F48053E360FFF7FAFE6B7B0BB194
:108CF000102363616B7D1BB1A36843F48033A360D1
:108D0000AB7D1BB1A36843F40043A360EB7D2A7ED7
:108D10001B07120503F0E04302F4E0021343A365CE
:108D20002B78636138BD054A904204BFA2F520321A
:108D3000C2F89C31CDE700BF00C0054000000640EE
:108D400083691B06FCD5406AC0B2704783695A0626
:108D5000FCD5C16383699B06FCD5406AC0B27047ED
:108D600083695B06FCD5C1637047000038B50446D3
:108D7000054D1FF089FE0FCC0FC594E8030085E870
:108D80000300002038BD00BF681D002047F6FF73B8
:108D90009A42F0B563D0022963D8334BCF0003EB7E
:108DA000C10013F831108478012913D10025C3784C
:108DB0001B1B9D4202D3E018C0B2F0BD591B466890
:108DC000A3EB510136F911609642D4BF0D4601F173
:108DD000FF33EEE740680028EFD0B0F90010914271
:108DE00004DBB0F902109142B8BF114682883B44BF
:108DF000FF2A19BFC8222826B0F90620B0F908605A
:108E0000A2EB01020CBF0125002592FBF6F25F7870
:108E10002A447B1E934228BF13464FF47A7E00EB10
:108E2000C305AE68EA88AC4611FB02621E4622EA20
:108E3000E272013302F5FA729F42B2FBFEF204D9EC
:108E4000BCF80CC008359445EBD200EBC600808816
:108E5000904228BF1046A04238BF2046ACE7FF2012
:108E6000ABE70020A9E700BF681D00200229F0B58C
:108E700053D82B4800EBC10410F831106368012966
:108E80000FD1E078A478904294BFC4EB0001C4EB0A
:108E90000201001BCAB28242C8BF002233F912008D
:108EA000F0BD002B39D0A178914202D3B3F9020072
:108EB000F6E7E178B3F900009142F1D99988647836
:108EC000A1F1FF06013C714203F10405E4B27141D6
:108ED00003F10C071FFA82FCCEB2B44216D805EBA0
:108EE000C1014FF47A756A43B1F902404968521AD8
:108EF00004EBD47102EB610292FBF4F29042CFDBFF
:108F0000B3F902009042CBDC10B2C9E737F831E088
:108F10004E1CE645E3D33146DEE70248C0E700BF1A
:108F2000681D00200080FFFF08B50448FFF71EFF02
:108F3000BDE8084001201FF0A9BD00BF5CFB020096
:108F400007B56B46054A1068516803C36846FFF7CA
:108F500085FB002003B05DF804FB00BFE0FB0200CE
:108F60004FF0402213B50024536F684643F00103CD
:108F7000536700948DF80440FFF7CAFA204602B008
:108F800010BD000070B586B001AA1546184B03F15C
:108F90001006144618685968083303C4B3422246C1
:108FA000F7D119889B782180A370124BD3F84C21FC
:108FB000120314D4D3F85041E4B28DF80E40FEF7FA
:108FC0000FFF204480F308008DF80D000A48FDF7DC
:108FD00083FD2846FEF76AFE002006B070BD074BF1
:108FE0001C884FF6FF739C4208BF7824E5E700BF5A
:108FF000E8FB02000080E00F00F049020001E00FF2
:1090000008B50120FEF736FF002008BD1FB50B4A4A
:1090100001AB1068516803C31189927A19809A7064
:10902000252301A88DF80530FEF7E0FE6420FEF749
:109030001BFF002005B05DF804FB00BFFBFB020036
:109040006FF00402502110B50A480B4C12F0800F4B
:10905000D3B21BBF03F00F03043BA3181B1802F18C
:1090600001020CBF83F800131976402AEED10020CC
:1090700010BD00BF00ED00E000E100E000F07AB8B4
:1090800038B500F0B9FF0446E0B901F0F3F84FF449
:10909000167343430C4803F5742303F23F23B3FBD9
:1090A000F0F30A4A0A4913600A220D680948013A96
:1090B00012F0FF0240F8043BF9D103EBC3022B444A
:1090C00013440B60204638BD40420F00BC1D0020F9
:1090D000881D00208C1D002070470000012208B56B
:1090E000034B1A7001F0BAF8024B186008BD00BFBC
:1090F000841D0020B81D0020F8B5144C237823B33C
:1091000001F0ACF8124B134D1B68134EC01A012826
:1091100038BF0120114B124F18602B7856F82320CE
:1091200046F82300111A3A680E48521A0A213A608A
:109130000932B2FBF1F20133DBB20260B3FBF1F2B0
:1091400001FB12332B7000232370F8BD841D002017
:10915000B81D0020B41D00208C1D0020801D0020A3
:10916000881D0020BC1D0020014B1868704700BFFF
:10917000BC1D002020234FF400220A4981F82C3323
:10918000094B5A66094A03F5A040426702674FF44B
:10919000805003F540530344C1F8840148605A6786
:1091A000704700BF00E100E000900040010000A017
:1091B000054B064A1B78916DC90700D513B10028ED
:1091C000F9D1704701207047D41D002000C0004035
:1091D0002DE9F843874B1E6F9D6A9C6AF00705F0E6
:1091E000020504F001044CD501278349834A91F814
:1091F0000090DFF828821767B9F1000F00F0ED80CA
:109200000020087098F80010B94200F2E1800221B5
:109210009762A2F5805291629A6DD103FCD478498D
:109220005A6B096822F470620A435A637548764A99
:1092300099690068126821F47F01024321F47F419B
:109240000A439A617148724A19691268006821F4E8
:109250007F6121F00F0102430A431A616D499A6947
:10926000096822F0FF020A439A610223002D40F0B0
:10927000AB80624A93620123002C00F0A780664A0B
:10928000936216F000527FD04FF0010E5B4F63499E
:109290003A67594A574B82F800E00A78DFF864C110
:1092A00072440A705A6B564902F4706008609869FB
:1092B000554900F47F4008609969DFF8588101F44E
:1092C0007F01CCF80010D3F818C05FFA8CFCC8F806
:1092D00000C0D3F810C0DFF838810CF47C6CC8F8FB
:1092E00000C0D3F810C0DFF824810CF03F0CC8F8A0
:1092F00000C0C7F828E04FF0020EDFF81CC1CCF820
:1093000028E04FF0004ECCF828E0D3F858C01CF409
:10931000803FFAD14FF0004C22F4706242F40072A8
:10932000B0F5C84FC7F828C05A6302D8B1F5C80FC6
:109330000CD9304A3A499369096823F47F0323F42E
:109340007F4343EA012343EA01439361294A3549B4
:109350001369096823F47F6323F00F03880843EA45
:10936000910343EA80131361936923F0FF030B43D6
:1093700093610223002D37D102F50052936201233D
:10938000002C33D0244A9362002E1BDA4FF00042A7
:109390001A4B18491A67244A12789AB101229A6224
:1093A0000222A3F580539A628A6DD203FCD44FF057
:1093B00000429A61022205B9104B9A620123BCB1A6
:1093C000154A9362BDE8F883134A53E70B4A57E7FF
:1093D000FFF782FE144B1F7053E7FFF78DFE00F07E
:1093E00077FB88F800904CE70B4AC7E7034ACAE7C7
:1093F000024AE6E700C00040D41D002000E0004023
:10940000D81D0020D01D0020CC1D0020C81D00202C
:10941000C41D0020C01D002000D00040D51D00202C
:10942000540D0020500D0020D61D0020FFF7D0BEA7
:10943000BFF34F8FBFF36F8F054B5A6A22F4803210
:109440005A62D3F8942022F00102C3F894207047A6
:1094500000ED00E070B52548254CFFF7E9FF844298
:1094600008BF4FF08043234A18BF20F01F03D2F8F3
:10947000C01018BF203B21F0FF0141F0A001B3F163
:10948000005FC2F8C0100CD31B4D1C4E296843F07E
:109490000103C2F898100131C2F89C60C2F8A030F4
:1094A0002960844210D01448154B0268114923F0FA
:1094B0001F0343F00303C1F89820C1F89C30114BFF
:1094C0000132C1F8A0300260BFF34F8FBFF36F8F3E
:1094D0000522084BC3F894205A6A42F480325A623B
:1094E000BFF34F8FBFF36F8F70BD00BFDC0E002046
:1094F000B410002000ED00E0DC1D0020030000207F
:10950000D3100020E1FFFF3F10B51446FFF790FF96
:109510001F2C21D9194A1A4CD2F8C03021F01F0152
:1095200023F47F4343F48073C2F8C030C30618BFEE
:1095300020F01F002368114A18BF203020F01F00C0
:10954000C2F8983040F0030041F003010133C2F843
:109550009C00C2F8A0102360BFF34F8FBFF36F8F42
:109560000522064BC3F894205A6A42F480325A62AC
:10957000BFF34F8FBFF36F8F002010BD00ED00E0F1
:10958000DC1D0020BFF34F8F0549064BCA6802F46B
:10959000E0621343CB60BFF34F8F00BFFDE700BF16
:1095A00000ED00E00400FA0508B5FFF7EBFF08BD89
:1095B000034B1B78002B14BF01200220704700BF13
:1095C000101E00200329F8B598BF124B05460E4621
:1095D0008CBF00245C5C032805D8DFE800F002089B
:1095E0000B0E44F002040C4B1F684FB9F8BD44F059
:1095F0000804F8E744F02004F5E744F08004F2E7BB
:109600007B681A68144203D0314628465B68984745
:109610003F68EAE706FC02000C1E002038B5104D3A
:109620002B78ABB10F4C23781BB100F057FB002314
:109630002370002000F074FB0B4C50B100F07AFB5B
:109640000023012120782B70FFF7BCFF012323703A
:1096500038BD0122054B1A702278054B1A70F7E7C6
:109660000A1E0020051E0020FC1D0020091E0020EF
:109670001C1E002010B5FEF759FE064B04461B7851
:109680001BB1BDE81040FEF755BEFFF7C7FF2046EF
:10969000F7E700BF041E0020002814BF0121FF21AE
:1096A000074A13780B44137008D0064B1B78012B24
:1096B00004D9054B1B780BB9FFF7B0BF704700BF4B
:1096C000101E0020FC1D0020091E002070B5FEF7B2
:1096D0002DFE114E054633788BB900F08DFC044603
:1096E00020B12846FEF726FE204670BD00F0C2FDE0
:1096F0000A4B18600A48FDF711FA0A4B1C6000F08B
:109700002FFA00F04BFB084B002418600123284679
:109710003370FEF70FFEE7E7061E0020181E00203C
:109720000C1E0020201E0020001E002000292DE914
:10973000F34114BF0121FF21254A00F1FF30135CE2
:109740000B4413543AD0234E3278012A36D9FFF70E
:109750002FFF0128044634D81F4FFEF7E7FD3B7862
:109760001BB31E4D2B781BB901222A701C4A1370A3
:10977000DFF8708098F8003033B1019000F0AEFA55
:109780000023019888F80030FEF7D4FD012000F096
:10979000C7FAFEF7CBFD2B782BB1019000F0CAFA87
:1097A000002301982B7000233B70FEF7C3FD307837
:1097B000A04203D02146FFF705FF347002B0BDE898
:1097C000F081032AF3D10228F1D100F001FBEEE78A
:1097D000101E0020FC1D00200A1E0020041E002078
:1097E000091E0020051E002010B50446FEF79EFD50
:1097F000002C14BF0121FF21064A13780B44DBB271
:109800001370B3FA83F3BDE81040034A5B09137089
:10981000FEF790BD131E0020121E002068B5FEF753
:1098200085FD094B06461B78012B04D8FEF782FD07
:109830000025284668BD054B1D6800F0B3FA0544B5
:109840003046FEF777FDF4E7FC1D0020201E0020C7
:1098500007B5FEF76BFD0190FFF7E0FE019803B03E
:109860005DF804EBFEF766BD38B541600446FEF7CF
:109870005DFD054621460448FDF753F92846BDE83D
:109880003840FEF757BD00BF0C1E0020054B1B687B
:109890005843054B00F5742000F23F20B0FBF3F075
:1098A000704700BF181E002040420F002DE9FF47FF
:1098B000FEF73CFD044600E000BFFCF79EFF0028D9
:1098C00000F09C806D4E6E4F337823B10020FFF77F
:1098D000E3FE00233370FFF76BFE0546002800F01F
:1098E0009580851EEDB2012D40F29880FFF760FE55
:1098F0000128804604D9634B1B780BB900F0ACF902
:10990000614DDFF8A4912878DFF8A0A140450AD086
:10991000002389F800309AF8003013B94146FFF768
:1099200051FE85F8008099F800303BB12B78022B6E
:1099300004D1002389F800301FF0AEFDB8F1010F0B
:109940000FD9DFF8408198F8003053B94F4B1B789E
:1099500023B900F0BDF901224D4B1A70012388F89C
:109960000030287800F004FA9AF8003013B1494B1F
:109970001B782B7000E000BF2046FEF7DBFCFEF7F3
:10998000D5FC454B04461A7852B100221A70414B5F
:1099900028781B78984203D101212970FFF712FE25
:1099A000384600F07DFBFCF733FF804600288BD162
:1099B000344F89F800003B789BB1DFF8D4908AF8E7
:1099C000000099F800301BB100F088F989F8008098
:1099D000002000F0A5F9002846D000F0ABF90023E4
:1099E0003B70337823B10020FFF756FE002333701D
:1099F00000212878FFF7E6FD00232B7000E000BF70
:109A0000204604B0BDE8F047FEF794BC3378002B45
:109A10003FF46CAFFFF740FE357067E7002003A905
:109A200000F0E4FB054600287FF460AF1B4B039A6F
:109A30001B689A4205D80120FFF72EFE01233370E0
:109A400054E7174BD3F8008000F0ACF90399404479
:109A50008842F0D20223091ACDE9005338462B463A
:109A6000104A00F045FB41E7012000F081F9204653
:109A7000FEF760FCFEF75AFC0446A9E7141E00201E
:109A8000E01D00200A1E0020FC1D0020131E0020E7
:109A9000051E00201C1E0020081E0020001E0020A5
:109AA000201E002075960000121E0020091E0020B6
:109AB00010B5FEF73BFC0022044B1C781A70FEF731
:109AC00039FC00F0B9FD2043C0B210BD071E0020D4
:109AD00010B5094B1B786BB1084C237853B100F0DB
:109AE00029F90023064A237013700123054A1370D5
:109AF000054A137010BD00BFFC1D0020091E002088
:109B00000A1E0020071E0020081E002070470000CB
:109B100073B5114E04463378834212D000238DF87A
:109B2000043080B102238DF8053001A8FEF79CFCBB
:109B30000A4D402054B1FFF7A9FE2B68181A28607F
:109B4000347002B070BD8DF80500EEE7FFF79EFEA1
:109B50002B681844F3E700BF580D00202C1E00208E
:109B600073B5002401A88DF80440FEF733FD2046AC
:109B70004FF40024FFF7CCFF3149324B0A6F02F05B
:109B800007021A60D1F82031D1F8240101F5805183
:109B90004C664FF400344C6601F598318969032A0C
:109BA00000F0070001F0020141D003F003039C1E06
:109BB00063426341022808BF43F001032248234D5A
:109BC000037061B31E4A3BB9D2F8003103F00303BE
:109BD000591E4B424B410370D2F8003103F003038E
:109BE000022B26D0032B27D0012B18D1FCF76EFFB8
:109BF000A8B1174B411EDC680023024608461946EF
:109C0000C4F30B04134E013404EB8404E4FB06019B
:109C100025F06AFAFFF73AFE2B68184428606420A2
:109C2000FFF734FE2B681844286002B070BD012392
:109C3000C0E7FCF76DFFDBE7FCF75EFFD8E700BF8E
:109C400000800040241E00202A1E00202C1E002020
:109C500000C0014040420F00FEF756BC074B1A7887
:109C600052B100221A70064A136F23F0070343F023
:109C700001031367FCF714BF704700BF281E0020C4
:109C8000008000400E4B10B51B7883B1022000F01D
:109C900081FD60B100F0DCFA48B10A4B9A6DD20345
:109CA00006D5DB6D9B0703D50122074B9A6210BDD9
:109CB0000124064B1C70FFF711FA034B9C62F6E778
:109CC0002A1E002000C0004000D00040291E0020B5
:109CD0000122014B1A707047281E002038B50C4B2A
:109CE0001B786BB10B4C23787BB90B4B0B4D9A6DEA
:109CF00012F4803F05D0DB6D9B0702D50123AB62D8
:109D000038BDFFF7EBF90123AB6200232370F7E7BF
:109D10002A1E0020291E002000C0004000D0004064
:109D2000034B1B780BB1FFF743BA0120704700BF0C
:109D30002A1E002008B5FEF7E9FB094A0949136FFE
:109D4000096823F007030B431367074B1B7813B114
:109D50000122064B9A62BDE80840FCF7A1BE00BF95
:109D600000800040241E00202A1E002000E0004049
:109D700002280AD003280BD001280CD1064A136907
:109D800023F00403136130BF70470020FEF778BB57
:109D90000020FEF799BB704700ED00E04FF4C8705B
:109DA000FFF774BD08B5054B187818B1FFF7DCF95B
:109DB00000EBD000024B1B68184408BD2A1E00208F
:109DC0002C1E00200122014B1A7070472A1E002011
:109DD0007047830711D16422B0FBF2F302FB130337
:109DE0009BB263B94FF4C873B0FBF3F203FB1200EC
:109DF00080B2B0FA80F0400970470020704701201F
:109E00007047000070B5044650B3C6888A2E27D824
:109E100005790B2D24D8C17811B33046FFF7D9FF4F
:109E20000C22104B02FB0030435D8B4218D3A2780A
:109E3000172A15D863783B2B12D820783B280FD8E7
:109E40008A2E0BD165B913290AD8032A08D80E2BFC
:109E500006D807288CBF0020012070BD0120FCE738
:109E60000020FAE70AFC020010B500F033FC0A4CAF
:109E70000A4B19682368C31A01B10BB9206010BDE1
:109E80004A699A423ABF9B1A0022D21A4A6128BFF5
:109E900000238968F0E700BF3C1E0020581E002008
:109EA000C38870B504460D463BB9FFF7B7FC854241
:109EB000064602D2FFF7CCFC35460F4965610B68B8
:109EC000ABB90C60A36011E0AD1A9A6818466561E1
:109ED0002AB113465A69AA42F6D950B11A46134616
:109EE0008460A36013B15969491B596170BD00209A
:109EF000F0E70C60F5E700BF581E002038B5134DA1
:109F00002B685B6993B1124A022014681C4400F06C
:109F100015FC204600F0E6FB00230E492A680B7072
:109F2000D088800709D501230B7038BD022000F0CE
:109F300005FC022000F026FCEEE79268002AF4D02F
:109F400050690344012BEBD9EFE700BF581E0020F6
:109F50003C1E0020441E002070B516469DF81420BB
:109F6000C0E903360271049ABDF81830026000227D
:109F7000C380826004460D4600F0ACFB3044A06113
:109F80003DB9E368656113B120462168984796B1F1
:109F90003546FEF7CBF90646FFF766FF2946204611
:109FA000FFF77EFF054B1B68A34201D1FFF7A6FF19
:109FB0003046FEF7BFF9002070BD00BF581E0020DC
:109FC00000220C490B687BB183420AD183687AB1C5
:109FD000936083681BB15A6941690A445A61002041
:109FE00070471A469B68EEE70028EFD002207047C2
:109FF0000B60EEE7581E0020F8B5FEF79EF91E4FE5
:10A0000006463C78002C32D11C4B1C601C4B1C605B
:10A010001C4B1C8000F01CFB012000F08FFB00F0AB
:10A02000E3FB194B0546186020B93046FEF78BF963
:10A030002320F8BD154B02461C6000202346012159
:10A0400025F052F8124B00201A6001212A462346BF
:10A0500025F04AF80F4B2A46186040F2E7312346B4
:10A060000D4825F041F80D4B186001233B70304638
:10A07000FEF769F90020DCE7381E0020581E00209A
:10A080003C1E0020461E0020541E00204C1E0020B6
:10A09000341E0020301E002018FCFFFF401E002050
:10A0A0002DE9F0410546F8B1FEF740F90F4F06469D
:10A0B000FFF7DAFE2846D7F80080FFF781FF044655
:10A0C00028B13046FEF736F92046BDE8F081A845B4
:10A0D0003B6803D123B1FFF711FFF2E7002BF0D16A
:10A0E000022000F037FBECE72224EDE7581E0020A9
:10A0F00070B586B015461E460446059180B1FFF73F
:10A10000CFFFBDF82C30002202939DF82830204666
:10A11000CDE9006305992B46FFF71EFF06B070BD21
:10A120002220FBE738B50C46054698B191B10023D3
:10A130000B70FEF702F90121074B1B680BB1227867
:10A140001AB1FEF700F9002038BDAB4214BF9B687E
:10A150002170F3E72220F7E7581E0020F0B51F46D4
:10A16000002387B00D46164604468DF81730A0B17F
:10A170000DF11701FFF7D6FF9DF817207AB9BDF84A
:10A180003430294602939DF830302046CDE90073E3
:10A190003346FFF7E1FE07B0F0BD2220FBE70320C6
:10A1A000F9E7F0B51F46002387B00D461646044672
:10A1B0008DF81730A8B10DF11701FFF7B3FF9DF827
:10A1C000173083B9BDF834302A4602939DF83030F9
:10A1D0002946CDE9007320463346FFF7BDFE07B0A0
:10A1E000F0BD2220FBE70220F9E700002DE9F04155
:10A1F00007468846FEF7A1F800260546124B1C6864
:10A2000024B92846FEF79FF81B2016E063691E4418
:10A21000E388BB4215D100F05DFA0C4C2368C01AEC
:10A22000B0420CD200F056FA22683244121A284684
:10A23000C8F80020FEF787F80020BDE8F081002272
:10A24000F5E7A468DCE700BF581E00203C1E002094
:10A25000014B1878704700BF441E002038B5FEF748
:10A260006CF8054600F036FA04462846FEF76BF80F
:10A27000204638BD014B1868704700BF541E0020AF
:10A2800070B500F027FA04460A4B1E68FEF755F831
:10A29000B4FBF6F3084A06FB134415681D44074B4C
:10A2A0001B681C44B44228BF0135FEF74CF8284611
:10A2B00070BD00BF541E00204C1E0020481E002010
:10A2C000F8B5041E17DB0D4B00251F6800F002FADD
:10A2D0000646FEF732F80A4B0A4A1D60B6FBF7F352
:10A2E0009C42146005D3E41A1460FEF72CF828464B
:10A2F000F8BDFEF728F82120FAE700BF541E002021
:10A30000481E00204C1E00202DE9F0410C469046CE
:10A310001F460546002842D040F26B7399429DF8D3
:10A32000183088BFA1F26C7483709DF81C3088BF10
:10A33000A4B243709DF82030C4800370099B027161
:10A34000C770C360FFF75EFD58B32046FFF741FDBD
:10A350000C22154B02FB003000231946DAB290455F
:10A3600017D840F26D12A4F149035443A4F5C74431
:10A370004A3C04EB93040723394489B20C44B4FBF0
:10A38000F3F30020C3EBC303E41A69812C72BDE828
:10A39000F08110F8016B01330E44B1B2DEE72220E8
:10A3A000F5E72120F3E700BF0AFC0200F8B50646F6
:10A3B0000D46FFF727FD002837D0F0881C49A0F193
:10A3C0004602D2B2022A82BFD41EA410013402FB7C
:10A3D00001F194BF0024E4B2FFF7FBFC0C22154B03
:10A3E000377902FB003000239F4218DC4FF4616094
:10A3F0007378B278C3EB03139B0000FB0233002099
:10A4000032781344F2780B44013A14440A4AA4B255
:10A4100002FB04342C60F3681C442C60F8BD10F877
:10A42000012B01331444A4B2DEE72120F6E700BF7C
:10A430008033E1010AFC020080510100002313B5C2
:10A4400004460193FFF7DEFC48B1204601A9FFF75F
:10A45000ADFF10B90198FFF733FF02B010BD212006
:10A46000FBE700000C4B70B51B680D46834211D30F
:10A4700040F2E73100248C462146084B4FF47A72B3
:10A480001E680023E0FB06C1604624F02DFE286014
:10A49000204670BD2120FCE7401E0020541E0020F5
:10A4A0000F4B10B51A689AB14FF47A71531E1342CC
:10A4B000A0FB01010ED1B2FA82F2C2F11F04531CBB
:10A4C000D243E04001FA03F3184321FA02F20243B7
:10A4D000104610BD002324F007FE0246F8E700BF37
:10A4E000541E0020C2072DE9F347044620D54A4BED
:10A4F0004A494B4A1D6812680B681344AB42494AEB
:10A500000B6004D310685B1B013010600B60464980
:10A51000136809680B441360444A138801339BB2E3
:10A520001380FFF7A1FC424B1B680BB1FFF7E6FC61
:10A53000A3076DD5FDF701FF002605463746FFF757
:10A5400093FCB146DFF8E880D8F800400CB16369AD
:10A550008BB10022374B012F1A7002D1022E08BF97
:10A560001F70002C44D0FFF7C9FC284602B0BDE89C
:10A57000F047FDF7E8BE23461A792179914288BF5A
:10A580001C469B6813B15A69002AF5D02846FDF78E
:10A59000DAFE256985B300F09DF8A269861AF317E3
:10A5A000B54279EB030328DA23691344A36101233D
:10A5B000226982B17BB9A91B0191FDF7BEFE8246DB
:10A5C00001992046FFF76CFCA369226950461344A9
:10A5D000A361FDF7B8FEE368E688013713B12046B2
:10A5E00021689847FDF7A9FE0546FFF73DFCABE75C
:10A5F000022000F0AFF8B8E72E46FDF79EFE824637
:10A600002046FFF7DDFC5046FDF79DFE0023CFE717
:10A6100002B0BDE8F08700BF541E0020481E002095
:10A62000341E00204C1E0020301E0020461E00203C
:10A63000581E0020501E002010B5FDF77EFE034B73
:10A640001C78FDF780FE204610BD00BF501E002084
:10A650001FB500241C4B012118689A880290D3F87A
:10A6600006009B7A00903E20ADF80C208DF8043057
:10A67000FDF74EF902A88DF808408DF80C40FEF762
:10A68000BFF9694601208DF80040FEF77DF94FF0D3
:10A69000904240F2FF31936923F47F7323F0030368
:10A6A00093610A4B5961936A13F00803FBD113625B
:10A6B0000120FEF783F94FF48052054BC3F8802147
:10A6C0001A6004B010BD00BF22FC02000020004848
:10A6D00000E100E04FF090439A6A1207FCD4186A38
:10A6E000704700004FF09042936A1907FCD4136A38
:10A6F000116C5269520604D4CA1A032A01D899422D
:10A700000ED1C21A022A98BFD81CB0F1FF3F38BF41
:10A7100001384FF0904318649A6942F040029A6100
:10A72000054A13783BB14FF09041CB6B43F00203E5
:10A73000CB63002313707047590D002082074FF040
:10A74000904200F00103916948BF43F040030B437E
:10A7500093617047820700F001030AD50121084A7E
:10A7600043F0400311704FF09041CA6B22F0030296
:10A77000CA634FF090418A6922EA03038B617047F4
:10A78000590D0020830742BF4022014B5A61704798
:10A79000001000484FF0904301285B6904D0022864
:10A7A00005D1C3F38010704703F00100704700200B
:10A7B0007047000010B5FDF7C0FD4FF09043044610
:10A7C0005B695A06074A03F0010003F0510348BFD2
:10A7D00040F002005361FFF785FE2046BDE81040BF
:10A7E000FDF7B1BD002000483E20FDF7B3B808B525
:10A7F000FBF7A6FFFBF7DCFFFBF7E1FFFBF7ECFF46
:10A80000BDE80840FBF7EFBF08B5FBF7EDFFFBF72E
:10A81000ECFFFBF7EBFFBDE80840FBF7E9BF0000EA
:10A8200010B50446FCF73CF90C4BA0F57A729A423D
:10A8300012D84FF47A73B0FBF3F05C43084BB3FBD0
:10A84000F0F0B4FBF0F0022806D9BDE81040032375
:10A85000B0FBF3F000F00CB810BD00BFFFC99A3B8D
:10A8600040420F0000000000000000000000000057
:10A87000013800D0FCE7704738B50446FDF756FDB7
:10A880000546204624F000FE04462846FDF752FD0A
:10A89000204638BD37B504460191FDF747FD0199C3
:10A8A0000546204624F0B0FD04462846FDF742FD4B
:10A8B000204603B030BD38B50546FDF737FD0446E8
:10A8C000284624F0E9FD2046BDE83840FDF732BDBA
:10A8D0000A4619B1024B00211B681847704700BF98
:10A8E0005C0D002000F4E040B0F5805F04D0A0F5DE
:10A8F000005358425841704701207047B0F5105F2F
:10A900000DD009D8B0F5885F10D0B0F5905F0DD0AC
:10A9100041F20103984209D06FF08500704721F0A1
:10A920004003802B02D0B1F5807F06D111F0070FD4
:10A9300014BF6FF08600002070476FF086007047EC
:10A940000E4B0340B3F1607F06D1B1F5885F14BFB1
:10A950006FF0860000207047B3F1707F0BD101F4D7
:10A96000E043B3F5005F06D111F4E06F0CBF6FF068
:10A970008600002070476FF0860070470000C07F9F
:10A980008A42F8B507460D4600F01781964B974866
:10A9900002EA030181420BD0954922F0FF048C4268
:10A9A00006D0944C22F47F7121F00301A1421DD105
:10A9B0002B4083420BD08E4B25F0FF01994206D0ED
:10A9C0008C4925F47F7323F003038B420ED115F0DD
:10A9D000FF030BD0884943F000738B4206D16A40D5
:10A9E00032F0FF030CBF01200020F8BD05F0FE434C
:10A9F000B3F1A06F17D102F0FE43B3F1A06F40F0A6
:10AA0000DE8082EA050333F47E1340F0D88015F42B
:10AA10000040EAD0C5F30540C2F3054290428CBF26
:10AA200000200120E1E7B3F1407F40F0B38002F065
:10AA3000FE43B3F1407F40F0C28082EA050333F465
:10AA40007E1640F0BC8039462846FFF779FF002883
:10AA500040F0B580694C12F47C1C04EA020438D042
:10AA6000B4F1607FC2F3054C7AD16549D3B243F0AB
:10AA700000738B4278D003F17E410439012975D9E6
:10AA800060498B4276D001318B4275D001318B42C7
:10AA900074D001318B426BD001318B426AD00131CD
:10AAA0008B4269D003318B4264D001318B4263D039
:10AAB00001318B4262D001318B4208BF402615F430
:10AAC0007C1FC5F305435BD1664514BF0020012000
:10AAD0008BE7B4F1607F2BD14949D3B243F00073C7
:10AAE0008B426ED003F17E41043901296CD945496E
:10AAF0008B426FD001318B426FD001318B426FD0CE
:10AB000001318B4263D001318B4263D001318B42E2
:10AB100063D003318B425DD001318B425DD0013176
:10AB20008B425DD001318B4208BF4FF0400C9CE757
:10AB3000B4F1707FC3D107F4E043B3F5005F05D1F2
:10AB40004FF0010CC7F302230CFA03FC07F4E043B7
:10AB5000B3F5005FB3D10126C7F302239E40AEE7F1
:10AB6000B4F1707FABD1F1E71026A8E71426A6E771
:10AB70004026A4E71C26A2E72026A0E730269EE771
:10AB800012F47C1F01D1B34217D02A047FF52DAFF8
:10AB9000634544E7B3F1106F11D125F01F6323F42F
:10ABA000702363B902F0FE43B3F1106F07D116486A
:10ABB000104040F01060A84287E7012015E7002010
:10ABC00013E74FF0100C50E74FF0140C4DE74FF027
:10ABD000400C4AE74FF01C0C47E74FF0200C44E7CD
:10ABE0004FF0300C41E700BF00FEFFFF00020006FF
:10ABF0000009000600040006FF0000020000C07FFC
:10AC000003000002080000020000FFF643680A4645
:10AC10001B0A10B403D05DF8044B00F0C5BE438896
:10AC2000B3B1018801F4E040B0F5805F02D0B0F527
:10AC3000005F02D10733DB1009E047F201008142D7
:10AC40000AD15B080133DB1003EBC3033B33136012
:10AC500000205DF8044B704744F20100814202D1AC
:10AC6000DB081033F3E747F20200814204D1DB082E
:10AC700003EB43035A33EAE744F20200814204D172
:10AC8000DB0803EB43034A33E1E721F0FF01B1F5B1
:10AC9000E24FCFD0B1F5824F04D10733DB105B0018
:10ACA0000133D4E76FF08500D3E77FB500F0FE46AF
:10ACB000B6F1106F0D4603D06FF0850004B070BD83
:10ACC00020F01F6424F47024002CF5D10A9C029417
:10ACD000099C0194089C009400F08AFF10F1860FF3
:10ACE000ECD16B681B0AE9D1E6E700002DE9F843D7
:10ACF000884617461C4601F051F8054600283FD10A
:10AD0000D8F80060B6F8009009F4E043B3F5804F3E
:10AD1000F36808BF27F0010737EA030328D17CB3A3
:10AD2000224A24F4FF7323F0010393420BD0204BFB
:10AD300024F0FF029A4206D01E4A24F47F7323F0C7
:10AD4000030393421FD114F0FF0304D01A4A43F0C7
:10AD5000007393421ED0224648463169FFF710FE29
:10AD6000074668B9224648467169FFF709FED0B91F
:10AD70006FF0840500233046C8F8003001F05CF81D
:10AD80002846BDE8F88304F0FE43B3F1407F04D1C8
:10AD90002304E0D56FF08605ECE7B3F1A06FF7D0A0
:10ADA000054B9C42D6E73D46EAE700BF000200069D
:10ADB0000009000600040006FF00000238B5037910
:10ADC00004460D4633B9A36820462B6001F034F8E1
:10ADD00038B938BDD0E9081201F0F6F80028F2D0F1
:10ADE000F7E700232B60F4E700F0FE43B3F1407F68
:10ADF00070B505460E4640F09980FFF7A1FD00288A
:10AE000040F0968015F47C1F05D0C5F30543032B55
:10AE100013700DD86BE04C4B2B40B3F1607F69D1C0
:10AE20004A49EBB243F000738B4231D110231370C7
:10AE3000454C2C40B4F1607F6AD14449EAB242F0FB
:10AE400000728A4275D002F17E410439012972D91B
:10AE50003F498A4271D001318A4270D001318A4221
:10AE60006FD001318A4211D001318A4265D001315F
:10AE70008A4264D003318A425FD001318A425ED077
:10AE800001318A425DD001318A424FD140214BE0ED
:10AE900003F17E410439012901D81423C7E72C4965
:10AEA0008B4201D11C23C2E72A498B4201D12023C6
:10AEB000BDE729498B4201D13023B8E727498B42AE
:10AEC00001D14023B3E726498B42EBD001318B42BD
:10AED000EDD003318B42E5D001318B42E7D0013117
:10AEE0008B42E9D001318B42EBD0002313706FF01D
:10AEF00085001DE0B3F1707FF7D101F4E043B3F5B5
:10AF0000005FF2D10123C1F302218B40DBB27EE767
:10AF1000B4F1707F0AD106F4E042B2F5005F05D1CA
:10AF20000121C6F3022291408B4201D96FF08600C5
:10AF300070BD1021F8E71421F6E71C21F4E7202169
:10AF4000F2E73021F0E700BF0000C07F03000002FD
:10AF500008000002090000020A0000020B000002C3
:10AF60000C0000022DE9F047174624220D4600216F
:10AF7000044692B00DEB02009A46DDE91A868DF880
:10AF80001F10DDF8709024F0C6FA1D9B2046002BA0
:10AF900018BF4FF480522B4608BF4FF4005208A947
:10AFA000FFF7A4FE044620BBDDF820C009ACBCE8D6
:10AFB0000F000FC49CE8070084E807002846BDF88E
:10AFC00024100DF11F02FFF70FFF044688B99DF80A
:10AFD0001F30B34224D8CDE90339CDE901A808993F
:10AFE00000972B46D1E9081209A800F0AEFD0446EF
:10AFF00020B10023C9F800608DF81F309DF81F00B4
:10B00000B04204D2321A2121404424F084FA089834
:10B0100000F012FF002C18BF204612B0BDE8F087E8
:10B020006FF08904E5E700232DE9F341D0E90168D9
:10B0300004460F4630461146136000F007FF0546F0
:10B0400088B9304600F004FF054660B9F6B276B91B
:10B05000B8F1000F05D1E36823F47F4323F0030325
:10B0600063B16FF08605284602B0BDE8F081014665
:10B07000A06800F0E6FD0028EDD1F2E74FF6F87386
:10B0800062889A421CD8238B23F00103002BE8D15D
:10B09000394601A800F040FE05460028E3D10FCC58
:10B0A0003F683E460FC694E807003B7986E80700F4
:10B0B0000BB9019BBB603B8B23F001033B83D2E7C1
:10B0C0006FF08505CFE770B5046A05460E463CB9BA
:10B0D0000120FFF7DFFB286228B120466E6270BDB9
:10B0E0006FF08A00FBE76FF08C00F8E773B50E464F
:10B0F000114605460192FFF7E6FF044620B93146A6
:10B10000019A286A24F0E0F9204602B070BD2DE9CA
:10B11000F041089E88461F46048822B96FF08504D6
:10B120002046BDE8F0812046FFF7DCFB0028F5D083
:10B1300033680BB9D3003360B2F1005FEED24FF643
:10B14000F87331689942E9D82046FFF7D7FB0446E7
:10B150000028E5D1CD1D0699EB08B1EBD50F0BD337
:10B1600093420CD14146384624F0AEF93368079A31
:10B170000733DB081360D3E76FF08904D0E76FF083
:10B180008604CDE710B50446006A10B1616AFFF786
:10B190009FFB206AFFF78FFB0020C4E9080010BD69
:10B1A00038B50446FFF7EEFFE3692822012B0CBFF8
:10B1B00005466FF096050021204624F0ACF928469C
:10B1C00038BD13B5044660B101A900F0E7FD04469F
:10B1D00038B90198C369012B06D900F02DFE6FF034
:10B1E0008304204602B010BD0379FF2B0BD01BB1A6
:10B1F000806800F03FFE04460198FFF7D1FF002869
:10B2000018BF0446EDE76FF08404F5E773B5044614
:10B2100008460E4600F09AFB002320461A4601A974
:10B22000FFF764FD70B93446019D0FCD0FC495E85A
:10B23000070084E80700338B019803F00103338390
:10B2400000F0FAFD02B070BD70B5144602881D46CC
:10B250001046049EFFF746FB50B944F2010322F466
:10B260004050984204D002F44F42B2F5824F0ED1C2
:10B27000B4420FD82246284624F026F90021321B7A
:10B28000281924F048F90020059B1C6070BD6FF060
:10B290008500FBE76FF08900F8E72DE9F04188466B
:10B2A0001F4616468CB022B3002301223B6002A940
:10B2B000FFF71CFDD0B9DDF808C003AC6546CDE949
:10B2C0000A000FCD0FC495E8070084E80700CDE918
:10B2D00000674346DCE9081203A800F0FCFB0446C3
:10B2E000029800F0A9FD002C18BF20460CB0BDE864
:10B2F000F0816FF08900F9E770B51D4644F2010353
:10B3000014460288049E22F44050984204D002F46D
:10B310004F43B3F5824F13D102F4E042B2F5804FB0
:10B320000ED1B4420FD82246284624F0CDF8002191
:10B33000321B281924F0EFF80020059B1C6070BD1B
:10B340006FF08500FBE76FF08900F8E72DE9F04327
:10B350008946984617468DB052B3002302A91A4673
:10B36000C8F80030FFF7C2FCE0B9029E33885B04E6
:10B370001BD5354603ACCDE90A000FCD0FC495E8C7
:10B38000070084E80700CDE900784B46D6E90812AB
:10B3900003A800F0ABFB0446029800F04DFD002C22
:10B3A00018BF20460DB0BDE8F0836FF08604F3E7C8
:10B3B0006FF08900F6E72DE9F0411E46002388B0C2
:10B3C000054688461746CDE9043307923360002AC4
:10B3D0004CD005AA04A9FFF726FE0446D0B928469A
:10B3E00007A9FFF713FC0446A0B90498036AB3B198
:10B3F000049B41465A882846069206AA029203F107
:10B40000240201925A6A00921B6A3A4600F03CFB01
:10B41000044658B1049800B3FFF7C2FE1DE0079937
:10B42000FFF751FE04460028E2D0F3E70498069B9C
:10B430004288B2B943802B8813B102889A4212D154
:10B440002B6A83B96B8813B142889A420BD131467B
:10B45000FFF7B4FC04460028DCD1204608B0BDE864
:10B46000F0819A42E7D06FF08604D3E76FF086044C
:10B47000F3E7036810B5044653B100F0B0FB0023B6
:10B480002360A38823F4FF7323F00103A38010BD7E
:10B490001846FCE72DE9F04105460C4600218CB02A
:10B4A000174603A824229846029124F034F82B680A
:10B4B000002B3DD1B8F1000F20463B4614BF4FF49E
:10B4C00080524FF4005202A9FFF710FC044600BB63
:10B4D000029E03AC0FCE0FC496E8070084E8070075
:10B4E0003846BDF80C102A1DFFF77EFC044680B9D3
:10B4F0006B79284668F300036B71029B03A9D3E9BB
:10B5000008230097B8F1000F0FD000F02BFB044682
:10B5100010B12846FFF7ADFF029800F08DFC002C1B
:10B5200018BF20460CB0BDE8F08100F02EFBEEE71E
:10B530006FF08804EDE70123FFF7ACBF38B503686F
:10B54000054614464BB132B100F032FB044610B14F
:10B550002846FFF78EFF204638BD6FF08804FAE7D3
:10B560002DE9F0411646026805460F469846F2B1AD
:10B570004279D2071BD50279CAB1B2421AD800F07B
:10B5800020FB044618B10023C8F800602B7128790D
:10B59000B04204D2321A2121384423F0BCFF28469D
:10B5A000FFF767FF002C18BF2046BDE8F0816FF061
:10B5B0008804E8E76FF08904E5E71FB501240394E8
:10B5C000089C0294079C0194069C0094FFF7CAFC17
:10B5D00004B010BD37B50C4D0C462B7ADB070FD5E8
:10B5E00000230A460193014601AB284602F0F2FD12
:10B5F00020B9019BA34218BF6FF0930003B030BD88
:10B600006FF08800FAE700BF5C1E00202DE9F047CC
:10B610001F46002390B0DDF868A00D46DDE91889CB
:10B62000CAF8003001F0FE43B3F1806F16465AD1DC
:10B630000B464FF4807206A9FFF758FB00283FD154
:10B64000DDF818E007ACF446CDE90E00BCE80F00C9
:10B650000FC49CE80700BEF8003084E8070003F43C
:10B66000E042B2F5005F14D10121C3F30222914000
:10B670007AB11E4825F48072824228D000F500700D
:10B68000854224D01A48854221D0A0F53F4082420D
:10B690001DD042F20402934215D0CDE9039ACDE9C0
:10B6A0000178069900962B46D1E9081207A800F008
:10B6B0003FFA0446069800F0BFFB002C18BF204656
:10B6C00010B0BDE8F0870B4B9D42E6D10C218945B7
:10B6D00006D34046FFF77EFF04460028DDD0E9E7A9
:10B6E0006FF08904E6E76FF08600E9E70010C00418
:10B6F00000FF4004000180042DE9F04705469A460A
:10B70000002386B0059305F0FE43B3F1106F0846A1
:10B71000DDE90E961746DDF8408022D12B464FF426
:10B72000804205A9FFF7E2FA044658B953463A4663
:10B730002846CDE901680599CDF80090FFF7B5FAE4
:10B74000044628B131464846FFF744FFC8F8006078
:10B75000059800F071FB002C18BF204606B0BDE82C
:10B76000F0876FF08604EDE7034610B50C461146EE
:10B77000DA6900880AB91B6A3BB9FFF7B3F838B138
:10B780002046BDE81040FFF725BF6FF0860010BDD2
:10B790006FF08500FBE72DE9FF410023CDE9013380
:10B7A0000B60438806460D46002B00F0878002AAF6
:10B7B00001A9FFF738FC044600BB019B1B6A73B16B
:10B7C0000199304601F12403D1E9081200F03EF955
:10B7D0000446002875D00198FFF7D4FC0EE072688B
:10B7E000170A60D1B6F8008071884046FFF77AF8F2
:10B7F00060B14046FFF782F8044660B1019808B195
:10B80000FFF7CEFC204604B0BDE8F08128F0FF032E
:10B81000B3F5E24F4FD108F4E043B3F5805F02D0B7
:10B82000B3F5005F02D1CA1DD7100AE047F2010349
:10B8300098450FD14A080132D21002EBC20202F140
:10B840003B07039703990198FFF73DFC0446002846
:10B85000B6D0D3E744F20103984503D1CA0802F1F8
:10B860001007EEE747F20203984505D1CA0802EB3C
:10B87000420202F15A07E4E744F20203984505D177
:10B88000CA0802EB420202F14A07DAE728F0FF0099
:10B89000B0F5E24FC7D0B0F5824F01BFCA1DD2103C
:10B8A0005200571CCDE7304603A900F07DF804464E
:10B8B0000028C7D0A2E76FF085049FE76FF08604E9
:10B8C000A0E729460198FFF779FA0446002899D0A5
:10B8D00094E7000008B500F005FA0748037A13F072
:10B8E000060F03D00822002123F015FEBDE8084012
:10B8F0000C210148FEF7ECBF5C1E002038B5124D4C
:10B90000297A11F0010102D00024204638BD082216
:10B91000284623F000FE02222B7A62F342032B72A8
:10B9200000F0D4F9044660B900F03CF810F1860F3D
:10B93000044600D028B92B7A43F001032B72002C67
:10B94000E2D0FFF7C7FFE0E75C1E002010B5044619
:10B95000C069FEF7B0FF2046BDE810402422002158
:10B9600023F0D9BD2DE9F04105460F4690461C460F
:10B970009BB119460120FEF78DFF064678B122469D
:10B98000414623F0A1FDE86908B1FEF794FF0020CD
:10B99000C5E907642F80BDE8F0811E46F3E76FF02C
:10B9A0008C00F8E702F014BC028843884068000A63
:10B9B00047D102F4E040B0F5805F02D0B0F5005FFF
:10B9C00005D10733DB0863B96FF08500704747F294
:10B9D000010082420FD15B080133DB0803EBC30394
:10B9E0003B3322F0FF02B2F5824F01D1012BEBD0A5
:10B9F00000200B60704744F20100824202D1DB0854
:10BA00001033EEE747F20200824204D1DB0803EB79
:10BA100043035A33E5E744F20200824204D1DB08D3
:10BA200003EB43034A33DCE722F0FF00B0F5E24FBB
:10BA3000C7D0B0F5824FC7D10733DB085B000133B5
:10BA4000CFE700236FF086000B6070472DE9F041CF
:10BA5000476804463F0A0D461646984611D10788A6
:10BA60007F0407D44346324629462046BDE8F041CC
:10BA7000FFF77ABE02F082F810F1860FF2D0BDE82F
:10BA8000F0816FF08600FAE72DE9F04F456885B048
:10BA90002D0A0446DDE90E7A894616469846DDF8F9
:10BAA00040B013D1CDE901AB009702F051F910F18C
:10BAB000860F0DD14346324649462046CDE90FABAD
:10BAC0000E9705B0BDE8F04FFFF721BB6FF0860081
:10BAD00005B0BDE8F08F70B44668360A02D170BC7C
