S0150000424C455F4465766963655F315F302E7333373E
S214006000C00A0020897200008572000085720000B8
S214006010199E0000857200008572000085720000DF
S214006020857200008572000085720000857200008F
S21400603085720000643A0300016F0000857200005C
S214006040857200008572000085720000857200006F
S214006050857200008572000085720000857200005F
S214006060857200008572000085720000857200004F
S21400607025B0000085720000857200008572000061
S214006080857200008572000085720000857200002F
S214006090857200005575000085720000857200004C
S2140060A0857200007D76000059760000857200003B
S2140060B085720000D5ED02008572000095F702009B
S2140060C04DF7020049F70200A1EF020091F7020027
S2140060D051F7020069F7020055F70200F5F70200D3
S2140060E0A9D2020071D40200D5F702008572000022
S2140060F09D9C00008572000085720000857200007D
S21400610085720000857200008572000085720000AE
S214006110857200008572000085720000857200009E
S214006120857200008572000085720000857200008E
S214006130857200008572000085720000857200007E
S21400614010B5054C237833B9044B13B1044800E06E
S21400615000BF0123237010BD301200200000000095
S2140061608088030008B5034B1BB10349034800E0D1
S21400617000BF08BD00000000341200208088030025
S214006180A3F5803A704700BF174B002B08BF134B90
S2140061909D46FFF7F5FF00218B460F461348144A2D
S2140061A0121A2AF060F80E4B002B00D098470D4BC1
S2140061B0002B00D098470020002104000D000D4859
S2140061C0002802D00C4800E000BF29F0E1FF2000C4
S2140061D0290000F075FE29F0C7FF00BF0000080088
S2140061E00000000000000000C00A0020301200205E
S2140061F0D82F00200000000000000000042310B18B
S214006200024A13647047024AFBE700BF00D003400F
S21400621000E00340024B9869C0F3C010704700BF0F
S2140062200000064070B5044679B168B1084E4518BE
S21400623014F8011B304603F0CBF9AC42F8D1044AFF
S21400624093699B06FCD5012070BD0846FCE700BF9D
S2140062500000064070B5314D96B004AC0FCD0FC4AB
S21400626095E8070084E80700002404A92C4803F0FA
S214006270BDF82C4B2C4D1C7004F0F6FA0C2322466D
S21400628040F2E6710093CDE90244012327480194C9
S21400629004F072FC254804F009FD2946234804F062
S2140062A0BDFC286804F044FC234647F23051204ADF
S2140062B0CDE900441F4804F0ACFB04F019FC4AF694
S2140062C0AA2105221C4BC3E90212586001230422AE
S2140062D01846022102F0E6FE0422184B1A64012337
S2140062E002221946184602F0DDFE0BAA1546144B8C
S2140062F003F12806144618685968083303C4B342E5
S2140063002246F7D11B88284623802AF0CEF801467D
S2140063102846FFF787FF16B070BD00BFFC360300A7
S214006320000006404C120020941300206C1200203F
S2140063305D650000501200207C12002000E0034043
S214006340A836030070B506460F480C4603F030F931
S21400635041B2002915DD0D4DA1422A784FF0000408
S21400636007D10B4930468C5429F056FF01202C707B
S21400637070BD7E2A03D80649885401322A7020460A
S214006380F6E70020F4E700BF000006408F1200206A
S2140063909012002030B50446A9B008AD8022002136
S2140063A0284629F060FF2368544A23F47F4323F0ED
S2140063B00703934200F0818009D8A2F51022934289
S2140063C018D002F5A022934269D029B030BD4C4ABD
S2140063D0934268D002F101729342F6D1B4F80530C8
S2140063E01C2BF2D12389474A13F0010318BF01235F
S2140063F01370EAE70DF10B0104A81CF021FE9DF8CE
S2140064001530414D8DF818309DF8143008228DF85F
S21400641019309DF8133000218DF81A30FF238DF8BF
S2140064201B30FE238DF81C309DF8123012208DF89C
S2140064301D309DF8113000248DF81E309DF8103068
S2140064408DF81F3006AB1CF0A7FD0DF10E0303AA56
S21400645000216FF01D001CF0CBFD28461CF004FD4B
S2140064601E220021294B28781CF038FD4FF47A7242
S21400647000942346114628781CF00EFD02220421C3
S21400648028781CF041FD21468022214829F0EBFEA9
S214006490802221461E4B23201CF07EFD95E701221C
S2140064A01C4B1A7091E700221A4B04211A70164BE7
S2140064B0022218781CF028FD87E7B4F80500232888
S2140064C00CD10021802206AB00951CF033FD284637
S2140064D029F0EBFF01462846FFF7A4FEB4F80500B6
S2140064E020287FF472AF04AB00930422002106AB91
S2140064F01CF020FD049804F01BFB66E7A0000A00D1
S214006500A00006014C120020C00A0020C10A00208C
S2140065109012002010130020C3780B7043884B7035
S21400652003681B0A8B700368CB70C3790B71C38832
S2140065304B7143681B0A8B714368CB7183681B0AD7
S2140065400B7283684B72C37B8B72C389CB72C36832
S2140065501B0A0B73C3684B73704700001FB5244AB1
S214006560244C137800210133DBB2312B88BF002383
S2140065701370237818200133DBB2312B88BF002339
S2140065802370137801228DF800306B461CF004FD52
S2140065902378012200218DF800301A206B461CF06B
S2140065A0FBFC04F0A5FA030E8DF80030030C8DF802
S2140065B00130030A8DF802308DF803006B46042282
S2140065C0002120201CF0E8FC0B4B1B786BB10B4A1B
S2140065D00B481378591C117069460360FFF79CFF3F
S2140065E00A461C200E211CF0EDFC04B010BD00BFB6
S2140065F08D1200208C1200204C1200208E120020DB
S2140066007C120020F8B514461E4600F04BFC0546EA
S214006610B8B1214600F04AFC074600F04AFC0446A2
S21400662050B13C6944B1204629F03FFF214602465E
S214006630304629F0F1FD0124284600F00DFA2046E8
S214006640F8BD0446FBE70000F0B58BB0054629F020
S2140066502CFF234A014602AB2846FFF7D3FF044629
S214006660074668B102A829F073FD01228DF80400E0
S2140066700021182001AB1CF08FFC20460BB0F0BDAB
S214006680284629F012FF174A014602AB2846FFF7B4
S214006690B9FF0446064648B102A829F059FD012272
S2140066A08DF8040039461A2001ABE4E7284629F0A5
S2140066B0FCFE0D4A014602AB2846FFF7A3FF044640
S2140066C00028DAD002A829F043FDC0F307238DF88E
S2140066D004308DF8050002223146152001ABCAE7CA
S2140066E0D2360300DE360300E736030008B51A4B41
S2140066F01878FFF783FDFFF78DFD18B30A211748BA
S214006700FFF720FE012825D1802200212320134BED
S2140067101CF042FC1248FFF797FF68B9114829F0B1
S214006720C4FE01460F48FFF77DFDBDE80840802205
S21400673000210A4829F097BD0B4829F0B6FE01460D
S2140067400948F0E7094B5B6C9B0703D5BDE808409A
S21400675003F0E4BC08BD00BF101300201113002096
S21400676090120020EC360300F836030000C0034009
S214006770002210B504461046A15CA1F13003092B97
S2140067800BD8A0F13003032A01EB030002F101024B
S21400679018BF0001042AEFD110BDA1F14103052B5B
S2140067A002D8A0F13703EEE7A1F16103052B02D86A
S2140067B0A0F15703E7E70020EEE700002DE9F84FC9
S2140067C00A688B6880465D1CD018D35C8A46222BEC
S2140067D0154440F0DD802F4600234C68B91AA142CC
S2140067E080F0D680397822290ED1C3F10103381AF9
S2140067F0DAF81020184490478346002800F0C88036
S2140068000446DFF898910FE05C2905D10137B91AE4
S2140068108C4240F2BD8001330137DFE72B785C2BDA
S21400682012D0013504F8013BBD42F7D30023237094
S21400683010230120C8E9033BDAF80030FB1A0133C5
S214006840CAF80830BDE8F88F7A1B002A0DDD6B7891
S214006850752B0AD86D2B12D8622B2BD026D82F2B4F
S21400686029D05C2B27D0222B25D05846DAF81430B6
S2140068709847DAF80000281ACAF808008BE06E3B42
S214006880072BF2D801A151F823F000BFC168000021
S2140068906B6800006B6800006B680000C56800004D
S2140068A06B680000C9680000CD680000662BDCD16C
S2140068B00C2300E0082304F8013B02231D44B3E741
S2140068C00A23F8E70D23F6E70923F4E7052ACCDDCB
S2140068D0A81CFFF74DFFA0F55C43B3F5806F064696
S2140068E0C3D3A0F55843B3F5806F2DD2AB1DFB1A6A
S2140068F0052BBADDAB795C2BB7D1EB79752BB4D110
S21400690005F10800FFF734FFA0F55C43B3F5806F90
S214006910ABD20C2309EA8626C0F30900304300F503
S21400692080364FF0F00C042000F1FF3E54FA8EFE45
S214006930A645F2B224D1012814BF4CEA020202F0A6
S2140069407F0222700444B9E77F280AD9B0F5006FA9
S2140069500CD3B0F5803F0ED3B0F5881F85D2062342
S214006960DFE706234FF0000C0120DDE706234FF09B
S214006970C00C0220D8E706234FF0E00C0320D3E734
S21400698002F03F0262F07F010EF80119B609CFE768
S214006990002D7FF46EAF002054E700BF00FC0F0010
S2140069A010B528B1016889B1D0E901329A4202D304
S2140069B010BD013282608268934203D98C5C202C21
S2140069C0F7D9F5E7F4D1013B8360F1E70846EFE736
S2140069D0F8B50D4660B359B38468FAB9174E3CB3A0
S2140069E0236AC3B1AB4221D005F1FF3C013B1CF842
S2140069F0011F0F468A5D02F00302012A13F8012FD9
S214006A0008BF01F12007B05C00F00300012808BFB2
S214006A10203297420FD02468E1E7246844B1216A07
S214006A2021B1284629F037FD0028F6D1236A03B99C
S214006A3000242046F8BD0029D9D1F7E74D8403008D
S214006A40034610B528209847044618B1282200218E
S214006A5029F009FC204610BD70B504460F4D04B958
S214006A6070BDE3682668D90503D4A06868B92069B4
S214006A7088B9E3689B0503D4206A08B16B68984719
S214006A8020466B6898473446E9E7FFF7E5FFE3687A
S214006A90DA05ECD5EDE76B689847EAE7E00A0020F0
S214006AA02DE9F04306460C4693B009B9002024E0D1
S214006AB008680028FAD08B686268191D91420BD8C6
S214006AC004229749184429F0F8FC28B90423F360F7
S214006AD0A3680433A3608AE0A3686268591D9142E4
S214006AE00ED8206805228F49184429F0E6FC38B9EC
S214006AF00120A268F0600532A26013B0BDE8F08302
S214006B00A3686268191D91420DD820680422864940
S214006B10184429F0D2FC30B902230120A268F360A1
S214006B2070610432E8E7D4E901038342BED22168EB
S214006B30CA5CCF18222A06D12146304613B0BDE8DB
S214006B40F043FFF73BBE2D2A03D0A2F13005092DF6
S214006B5062D8002201920029A8D002A90D464FF063
S214006B602E0EC31A17F8010B392810D82A281BD95D
S214006B70A0F12B0CBCF10E0F16D8DFE80CF00D15AB
S214006B800D3A150D0D0D0D0D0D0D0D0D0D0000F032
S214006B90DF0CBCF1450F07D1087001323F2A01F126
S214006BA0010101D09A42DDD112AB1A4400232846D7
S214006BB002F8403C01A92AF0B5FA019F59EC108B67
S214006BC0AF423FF473AF54A3D3E9002386ED060B20
S214006BD010EE100A494629F0EFF868B16FF000434E
S214006BE0736108237D1BA768F3603D44A560012000
S214006BF083E781F800E0D0E70022404649464B4B49
S214006C0029F0D0F810B14FF00043E9E74046494676
S214006C1029F0E6F87061E4E75B2A54D1E268B2F541
S214006C207A7FBFF443AF0132E260CA5C5B2A7FF42E
S214006C303DAF0133A3602046FFF7B2FED4E901233F
S214006C40934264D22268D25C5D2A0CD100252F467E
S214006C50E368013BE36007B17D602023C6E9027369
S214006C60A368013336E700252F46013BA360206961
S214006C70FFF7E6FEA8460546002800F09E8007B30C
S214006C80C8F80000C0F80480A36820460133A3605B
S214006C90FFF786FE21462846FFF702FF002800F091
S214006CA08F802046FFF77CFED4E90123934280F0D4
S214006CB087802268D35C2C2BD9D05D2B40F0808057
S214006CC0C6E70746E0E77B2A7FF4F0AEE268B2F557
S214006CD07A7FBFF4EBAE0132E260CA5C7B2A7FF4B7
S214006CE0E5AE0133A3602046FFF75AFED4E9012340
S214006CF093420CD22268D25C7D2A19D100252F46F9
S214006D00E368013BE36007B17D604023A6E7013BF3
S214006D10A360CBE6AFF300800000C0FFFFFFDF41BB
S214006D20183703001D370300233703000000E0C1B7
S214006D3000252F46A846013BA3602069FFF780FE8A
S214006D40A9460546002838D0AFB3C9F80000C0F8F9
S214006D500490A36820460133A360FFF721FE214676
S214006D602846FFF72BFD58B32046FFF719FE2B6980
S214006D70C5F810802B62D4E90123934220D2226802
S214006D80D25C3A2A1CD101332046A360FFF708FEE6
S214006D9021462846FFF784FE90B12046FFF700FE06
S214006DA0D4E9012393420BD22268D35C2C2BC4D0A7
S214006DB07D2B05D1A4E70746CBE7002F3FF476AE40
S214006DC03846FFF749FE71E62DE9F04305464FF0D9
S214006DD0000989B0304F0C46164600211C2201A837
S214006DE0984629F040FAC7E90099002D4AD0002CB1
S214006DF03DD02A4BCDE9015493E8070008AB03E9E0
S214006E000700FFF71DFE0446002830D0019828B181
S214006E10039BE3B9029B042B0FD801A8FFF7C0FD24
S214006E2001462046FFF73CFEF0B1B8F1000F10D146
S214006E3056BB204609B0BDE8F0830322184929F066
S214006E403CFB0028E9D1039B03330393E5E7484660
S214006E50E4E701A8FFF7A4FDDDE90223934203D28D
S214006E60019AD35C002BE3D02046FFF7F5FDDDE961
S214006E7002329A420DD303B1013B0EB1EA183260DA
S214006E80C7E900530024D4E7019B039A13443360F8
S214006E90CFE71346F1E700BF98130020E00A002072
S214006EA03A37030000231A46FFF78EBF0122FFF78A
S214006EB08FBD20B1007BA0F11003584258417047A7
S214006EC008B504F0CCF8FFF7C5F904F0D5F8FFF7DD
S214006ED00DFCFAE708B508F00BFA09F0DEFE0FF035
S214006EE033FB0CF076F8BDE8084010F0ADB808B5F6
S214006EF013F028FE1BF0A7F8BDE8084014F05CBAB3
S214006F0008F07EB808B50548FFF7F1FF034807F01C
S214006F1025FEBDE80840024807F050BE183A0300B8
S214006F20F83903000120704700B5C3B007F080FFB2
S214006F3007F0A9FF48B1FFF7F5FF30B101A81BF035
S214006F408CFF10B901A8FFF725FA43B05DF804FBE3
S214006F5008B5012000F0D6F8202000F0D3F8BDE8F0
S214006F600840402000F0CEB808B50321802001F08C
S214006F706DFC03214FF4806001F068FC03214FF4A0
S214006F80906001F063FC08214FF4C06001F05EFCE5
S214006F9008214FF4F06001F059FC08213E2001F072
S214006FA055FC08212D2001F051FC002008BD0000F2
S214006FB008B5174B1B68C3F30743012B0ED1154BBF
S214006FC004205A6E4FF480231349520358BF134AC5
S214006FD04B6601F51041086258BF536602F068FC24
S214006FE000F0B9F802F0E4FB02F080FC02F002FCCC
S214006FF002F03EFC02F042FCFFF7B6FF02F0E8FBB0
S21400700000F09EF800F04CFBBDE8084002F096BF8A
S2140070100080E00F008000400090004000A000408C
S21400702008B500F0EFFABDE8084000F059B808B51A
S21400703000F066F803F018FC02F05AFC06F0ABFB12
S214007040BDE8084002F03EBE08B502F0A5FBBDE86C
S2140070500840FFF757BF704770477047FFF764BF99
S2140070607047012070470120704710B507F04CFFAD
S2140070700446FFF7F6FF002814BF2046002010BD88
S21400708038B503F04DF9044607F04CFF042817D036
S21400709002284FF0000508BF012400F0C5FE0428B2
S2140070A010D0022808BF0124FFF7DDFF04280BD00C
S2140070B0022808BF0124002D18BF0024204638BD32
S2140070C00125EAE70125EFE70024F7E718B1034BAF
S2140070D01860002070472520704700BFFC13002072
S2140070E010B5054C0549206800F09CFD2068BDE8F9
S2140070F01040FFF7EBBF00BF140C0020F00B002081
S2140071000F207047082808B50DD004DC0138012888
S21400711009D90E2013E020280AD04028F9D10023F0
S2140071200422194602E0042200231146184603E012
S214007130042200231146012001F0B4FF002008BD00
S21400714008B501213A2001F01BF8FFF701FFBDE862
S214007150084000F005B801213A2001F011B80000FF
S2140071602DE9F047434D88B001AC0FCD0FC495E82C
S2140071700700012584E8070001213A2001F000F805
S214007180DFF8FC800121282000F0FAFF3A4B404649
S21400719001A903938DF8125002F0AAF92B46042297
S2140071A00021022001F07EFF2A4629460023022005
S2140071B001F078FF02212B460846042201F072FFF8
S2140071C0042203212B46022001F06CFF4FF002132D
S2140071D02A4C0226C4F83036A3F58033C4F82C3681
S2140071E01C230827C4F8346604F5005AC4F81C3675
S2140071F04FF4487003F04CFF04F580591420CAF889
S214007200707003F045FF2320C9F8707003F040FF4C
S214007210B9214046CAF8707002F0D0F90023304613
S2140072201A461946C9F8707001F03CFF002329463B
S2140072301A46304601F036FF2B46314630460022CD
S21400724001F030FF2B4600220321304601F02AFFD2
S214007250404602F09DF800212820C4F83016C4F8F5
S2140072602C16C4F83416C4F81C1600F089FF08B0B3
S214007270BDE8F087483A030000127A0000C00340D9
S21400728000C00540FEE7000008B500F013F8064B06
S214007290064A07498B4201D3FEF776FF52F8040BE5
S2140072A043F8040BF6E700BFC00A002088880300F6
S2140072B030120020044B054A9A60D3F8882042F426
S2140072C07002C3F88820704700ED00E00060000000
S2140072D0014B1868704700BF1C0D0020084B1B6F41
S2140072E003F00703022B04D0032B05D0012B05D097
S2140072F0FEE7044B18687047034BFBE703487047EC
S214007300008000401C0D0020200D0020002D3101C3
S21400731008B5FFF7E3FF054B1B6FC3F303330133D9
S214007320B0FBF3F0024B186008BD00BF00800040C1
S214007330180D00200048704700B4C404014B1868BC
S214007340704700BF200D0020054B1860054B1B6FD3
S21400735003F00703032B01D1FFF7DABF704700BF26
S214007360200D002000800040002070470048704735
S214007370002D31014FF4004070474FF47A7070478B
S214007380014B1868704700BF240D002000230360DF
S214007390704703680B6001607047000005490A6883
S2140073A01318054883428CBF4FF0FF320B6010461F
S2140073B0704700BF280D00200080002038B5124B13
S2140073C005461B78DBB1E0B101F0EFFB0F4A002366
S2140073D01146147B54B92B6001251A0101EB0313E7
S2140073E01D738C5001F0E7FB204638BD0133082B97
S2140073F002F11002EDD101F0DEFB0548F5E7054885
S214007400F3E70548F1E700BF8015002000140020D0
S214007410048000F0028000F0018000F0154B13B5E8
S2140074201868002301908DF8043001F0BEFB124B63
S2140074301C7824B101F0BFFB104802B010BD012239
S2140074401A7001F0B8FB0E4B01A81C731C7783F86A
S2140074502C4083F83C4083F84C4083F85C4083F82B
S2140074606C4083F87C4008238DF8073001F068FEF6
S2140074702046E2E7A43A030080150020038000F0CF
S214007480001400200A4A08B512785AB107280BD80B
S214007490084A02EB00131B7B43B1002101F042FEB9
S2140074A0002008BD0448FCE70448FAE70448F8E76B
S2140074B08015002000140020028000F0018000F0FB
S2140074C0078000F00A4A08B512785AB107280BD888
S2140074D0084A02EB00131B7B43B1012101F022FE98
S2140074E0002008BD0448FCE70448FAE70448F8E72B
S2140074F08015002000140020028000F0018000F0BB
S214007500078000F00D4B1B7893B1072812D889B17D
S2140075100B4B03EB00131B7B73B10A4BDA6A012398
S21400752003FA00F010401ABF00200B700870704776
S2140075300548704705487047054870478015002085
S2140075400014002000000440028000F0018000F0DB
S214007550078000F02DE9F843174B1F6D5B6D1F4049
S21400756000D5FEE701260025144CDFF85480DFF82E
S2140075705490374217D02368C8F850609BB1A16872
S214007580284601316268A1609847637B012B0AD1C7
S21400759048B909EB45131A7B60F341021A731A7F48
S2140075A060F341021A770135082D4FEA460604F1CA
S2140075B01004DED1BDE8F88300000440001400206B
S2140075C0002004408014002070B5044601250C4EAF
S2140075D004B970BD94FAA4F3B3FA83F305FA03F280
S2140075E006EB031124EA02044A68002AF0D0D8B257
S2140075F00B7B13B189689047EAE79047E8E700BF3E
S2140076008415002008B5192001F0D8FA28B14FF0EB
S2140076100072074BC3F880211A601A2001F0CEFAD8
S21400762028B14FF08062024BC3F880211A6008BD73
S21400763000E100E038B505460C4601F0B6FA002237
S214007640044B03EB05135C601A73BDE8384001F089
S214007650B2BA00BF84150020074BD3F82404D3F831
S214007660202403F50053104000F0553020F0502041
S214007670C3F82004FFF7A8BF00C00340074BD3F8A9
S2140076802404D3F8202403F50053104000F0AA3059
S21400769020F0A020C3F82004FFF796BF00C00340E8
S2140076A0024B1968024B186820F0DCBC300D002035
S2140076B02C0D00207047000037B5920004460D469A
S2140076C001922BF0E9FF431C0BD060B929462046F7
S2140076D0019A28F091FD0028044808BF002003B056
S2140076E030BD0348FBE70348F9E700BF10E000F0B1
S2140076F021E000F024E000F013B5044601A801F0F4
S214007700E5FD9DF80630012223804FF480730020AB
S2140077106380054B9B680A3303F01F0302FA03F3EA
S214007720636002B010BD00BF0080E00F01F04ABDEC
S21400773008B501F037FD002008BD10B5044644EA40
S214007740010313F00303084609D1934201D1002038
S21400775010BD54F8231040F823100133F5E72146F6
S214007760920028F059FDF2E710B504462BF084FF8E
S214007770431C15D0B0B90C4B20469B680A3303F067
S2140077801F020123934023F003032344984201D1B0
S214007790002010BD50F8042B0132F7D00348F8E75C
S2140077A00348F6E70348F4E70080E00F0EE000F039
S2140077B021E000F024E000F008B501F0EFF9014BFD
S2140077C0186008BD181E0020014B186801F0EAB9C1
S2140077D0181E00200A460139014402F0CDBA000006
S2140077E038B141B1013AB2F5006F044838BF002005
S2140077F07047034870470148704700BF037000F0A9
S214007800027000F090F83530022B0BD13023427F07
S21400781090F821005A43044B9B5823FA00F000F0DE
S214007820010070470020704714C00340002313B5C2
S2140078301D4A52F8044B94F8211081420ED00133B1
S214007840042BF6D102B010BD0028FBD19DF80730FE
S214007850002BF7D0A068FFF715FEF3E794F8353055
S214007860022BEFD12046FFF7CDFF637E2076022B5A
S214007870E8D194F8323003F0FF02002BE2D1A06882
S2140078800DF107018DF80720FFF73CFE237E1BB1A4
S21400789094F83330002BD7D00023A06884F8333018
S2140078A0FFF710FECEE700BFCC1E0020104930B513
S2140078B00B78104A2BB9C2E90033C2E90233012320
S2140078C00B700C4C0023214651F8045B854208D00F
S2140078D00133042BF8D1002154F8043B1BB942F8BD
S2140078E02100002003E001310429F5D1024830BD13
S2140078F0DC1E0020CC1E0020027000F010B50446EE
S214007900FFF78CFD002104F10800FFF757FD014644
S21400791020B904F10C00FFF751FD00B1004810BD7E
S2140079200E7000F008B590F8363083B9042203686C
S2140079305A619A699207FCD541F21C6210210379BC
S2140079405B0103F1804303F57033995008BD022BA9
S214007950FCD10068036CDB074CBF0521062101F053
S2140079602DFB0222014BC3F8C020EFE700D40340F2
S2140079701FB504460B46C07EE17F002B39D001239D
S214007980042201F08FFB0123022294F82010207FAE
S21400799001F088FB94F83530022B19D10023012220
S2140079A094F82110607F01F07DFB0023042294F8F8
S2140079B02210A07F01F076FB012394F8212001938A
S2140079C01146607F009301F015FB002004B010BD47
S2140079D0032BFAD10023012294F82110607F01F0D6
S2140079E061FB0023042294F82210A07F01F05AFBCA
S2140079F0EBE71A46039301F055FB039B94F820101F
S214007A001A46207F01F04EFB94F83520039B022A8D
S214007A1012D11A4694F82110607F01F043FB039BB5
S214007A2094F822101A46A07F01F03CFB039B94F8C2
S214007A30212001930123C3E7032AC6D11A4694F8EE
S214007A402110607F039301F02DFB039B1A46CAE7C3
S214007A50F8B505460E461746FFF7C2FE002868D161
S214007A60152001F0B9F80446EA6A93889BB213B170
S214007A7095F83230E3B195F83630F3B92B689C6947
S214007A8004F002041CB92846FFF74CFF002401232B
S214007A9085F8343095F83630CBB93744BE4228687E
S214007AA010D183699A06FCD51CB300242046F8BD85
S214007AB0002CDAD0FFF74EFDD6E7022BE3D12B6879
S214007AC01C6CDDE716F8011B01F082FDE6E7022BD1
S214007AD0EAD13744B742286806D142F22003026C46
S214007AE033EA0202FBD1DFE716F8011B01F06BFA5E
S214007AF0F0E795F836306BB942F21C6210212B790C
S214007B005B0103F1804303F57033995008222B681C
S214007B105A61CBE7022BC9D12868036CDB074CBF40
S214007B200921214601F04AFA0222034BC3F8C0207D
S214007B30BCE70446BAE700BF00E4034010B50446BD
S214007B4080B190F832302BB9FFF75CFE10B9A06810
S214007B50FFF798FC002094F832300133DBB284F84B
S214007B60323010BD0048FCE7027000F010B5044645
S214007B70A0B190F832309BB190F83230012B05D18D
S214007B80FFF740FE10B9A068FFF79CFC002094F8B1
S214007B903230013BDBB284F8323010BD0148FCE7DE
S214007BA00148FAE7027000F0057000F037B590F86B
S214007BB035500446022D1DD1012290F82230457E14
S214007BC0817F9A403020164B25B900FB013342F2E4
S214007BD0100105E0012D07D100FB013341F2100131
S214007BE05A50002003B030BD247E00FB0133002C29
S214007BF0F4D1ECE7012DF4D1037E73B911238DF88F
S214007C000730FFF79BFF2A4620460DF10701FFF7D6
S214007C101FFF2046FFF7AAFFE3E71323EFE700BFA7
S214007C2000C003402DE9F0410446764F88B001AE0F
S214007C300D460FCF0FC697E8070086E80700002C12
S214007C4000F0DE8025B9704E304608B0BDE8F08101
S214007C505C220021204628F006FB00232046A36372
S214007C60FFF724FE06460028EED12B7D84F835303B
S214007C702B6884F8360023602A7B2271012284F860
S214007C803C20624A934240F09F802823A384604BA6
S214007C9023614FF4802300266361D5E90723A2629F
S214007CA016805680968084F83060E3621E805E8080
S214007CB09E806B6884F831600393EB8984F83360A8
S214007CC0ADF814302B8A0121ADF81230AB7C3A2087
S214007CD08DF81030EB7CDFF84C818DF816300523DC
S214007CE08DF8113000F04CFA0121A08C00F048FA13
S214007CF0286801A98DF8046001F078FB14222B7B1C
S214007D0008EB4313C3F81C262E7AA87A46EA0042EC
S214007D10C3F83426697AEA7A41EA0247C3F82C7631
S214007D20E676E077217784F820206B7D0121637763
S214007D30AB7D204684F82130EB7DA3772B7E84F83C
S214007D402230FFF715FE064600287FF47DAF00F0D0
S214007D502CFF2B7D0746032B41D141F21C620221EA
S214007D602B7B08EB431848F8021004212A685B01B5
S214007D7002F58052D165297EEA7D03F1804342EA0E
S214007D80014203F57433C3F82826A97D6A7D42EACA
S214007D900142C3F824264FF0FF32286800F500534E
S214007DA09A642B7D032B0CBF0521042101F0E0FA19
S214007DB04FF440622B6820465A61FFF79FFD064647
S214007DC0384600F0F8FE3FE7124A93427FF43BAF96
S214007DD02923A384104B23614FF4A0235BE7022BD7
S214007DE0D9D194F821000D49FFF724FCFFF70AFCCF
S214007DF04FF4007320462383A676FFF7D7FECAE724
S214007E00074E21E7CC3A0300037000F000C005409F
S214007E100200040000000640020005002D78000065
S214007E20027000F000C003400B4B30B51B788BB1DE
S214007E30012000230546094951F8042B32B192F877
S214007E403C40022C04BF204682F83C500133042BF1
S214007E50F2D130BD0120FCE7DC1E0020CC1E002045
S214007E604FF04023D3F88420D206FBD4D3F8840006
S214007E70C0F381107047000038B5104B0546D3F8A4
S214007E8020310C4603F00303022B0BD0032B0DD03E
S214007E90012B0FD1FFF71CFA052305B1286004B1AA
S214007EA0237038BDFFF74AFA0323F6E7FFF75EFABA
S214007EB00223F2E700231846EFE700BF00800040E9
S214007EC073B50D4600210E4B0191D3F8804106464E
S214007ED004F00304012C09D0022C0CD00C460EB181
S214007EE0019B336005B12C7002B070BD01A8FFF78E
S214007EF0C3FF0F24F3E7FFF739FA0190EFE700BF5F
S214007F000080004038B5174B0546D3F824310C46A0
S214007F1003F00703013B052B20D8DFE803F0030F2F
S214007F20171B0B13FFF7D4F9052305B1286004B11E
S214007F30237038BDFFF7CCF90623F6E7FFF7FEF906
S214007F400323F2E7FFF7FAF90423EEE7FFF70EFA4A
S214007F500223EAE7FFF708FA0723E6E700231846B6
S214007F60E3E700BF0080004038B5104B0546D3F865
S214007F7040310C4603F00303022B0BD0032B0DD02D
S214007F80012B0FD1FFF7F6F9092305B1286004B1DC
S214007F90237038BDFFF7F4F90823F6E7FFF7EDF98D
S214007FA00B23F2E700231846EFE700BF00800040EF
S214007FB038B5134B0546D3F800320C4603F00703DA
S214007FC0013B032B18D8DFE803F0020A0E12FFF776
S214007FD0D1F9092305B1286004B1237038BDFFF735
S214007FE0CFF90823F6E7FFF7C8F90B23F2E7FFF708
S214007FF08FF90E23800AEDE700231846EAE700BF54
S2140080000080004038B5104B0546D3F840320C4689
S21400801003F00303022B0BD0032B0DD0012B0FD143
S214008020FFF7A8F9092305B1286004B1237038BD0D
S214008030FFF7A6F90823F6E7FFF79FF90B23F2E709
S21400804000231846EFE700BF0080004038B5104B0D
S2140080500546D3F860310C4603F00303022B0BD021
S214008060032B0DD0012B0FD1FFF784F9092305B19F
S214008070286004B1237038BDFFF782F90823F6E7BD
S214008080FFF77BF90B23F2E700231846EFE700BF64
S2140080900080004010B40D4C0B46D4F8204204F08B
S2140080A00304012C0AD0022C0CD008B10021016078
S2140080B00BB100221A705DF8044B70475DF8044B54
S2140080C0FFF7DABE5DF8044BFFF74EBF00800040B6
S2140080D0B0F5207F1FD009D8B0F5007F15D003D8A3
S2140080E068B1B0F5C07F0AD000200CE0B0F5607F24
S2140080F0FAD10B4BD3F88000C0F3011003E0084B15
S214008100186FC0F3033001307047054BD3F890006A
S214008110C0F30460F7E7024B186FC0F38020F2E765
S214008120008000404FF4003238B50E4B05469A6684
S2140081300020FFF7CDFF41F671320B4B6843DC6938
S2140081400A4DDA639A68A84204F4803422F4401296
S21400815003D9012918BF42F480129A600CB100229C
S214008160DA6338BD0090004000000340005A620207
S21400817008B5FFF7DFF8BDE808400021FFF7D2BFDB
S214008180420910B510D0012A10D00B4B0B4C022A16
S21400819018BF234600F01F0051B103F5805301229B
S2140081A002FA00F0186010BD1346F3E7044BF1E73F
S2140081B003F50053F3E700BF68800040608200408C
S2140081C0648000401FB5002380280446029372D0C6
S2140081D02BD8002873D0A0F12004A3B2412B32D8AC
S2140081E0412C30D8DFE804F06B6E6B6E7D7D7D7DB4
S2140081F06E6E873C9E623C6E6E6E2F2F2F2F2F2F3B
S21400820082546E6E6EA8A36E2F2F2F2F2F2F2F2F18
S2140082102F2F2F2F2F6B2F6B6B6B7D2F2F2F2F2F2B
S2140082202F2F2F2F2F2F2F2F6B6BB0F5806F58D03F
S21400823021D8B0F5007F4FD008D8B0F5807F5FD04A
S214008240B0F5C07F3BD0029804B010BDB0F5607F9B
S21400825042D0F8D8B0F5207F34D0B0F5407FF2D1C8
S214008260FFF756F802464FF42070FFF731FFB2FBD7
S214008270F0F0400821E0B0F5C06F53D00DD8B0F54F
S214008280A06F33D0B0F5B06F35D0B0F5906FDAD1BF
S214008290002102A8FFF736FED5E7B0F5E06F46D01E
S2140082A0B0F5F06F48D0B0F5D06FCCD1002102A861
S2140082B0FFF77EFEC7E7FFF711F80290C3E7FFF768
S2140082C027F8FAE7FFF724F802464FF42070FFF786
S2140082D0FFFEB2FBF0F0F0E7FFF700F8024620469C
S2140082E0F5E7002102A8FFF7C7FDACE7002102A8CA
S2140082F0FFF7D0FEA7E7002102A8FFF7E1FDA2E7FF
S21400830003934FF0E0231B695B0705D5FFF700F8E2
S2140083100390039B029396E70DF1070103A8FFF76E
S21400832023FEF6E7002102A8FFF71EFE8BE70021DA
S21400833002A8FFF767FE86E7002102A8FFF786FE81
S21400834081E7000008B58020FFF73CFF034B98420A
S2140083509EBF4FF48032024B1A6708BD005A620275
S21400836000A00040002307B5B0F5807F8DF80230EE
S2140083707FD02AD8382800F0A0800CD8243883B2C2
S214008380092B10D809280ED8DFE800F06D6D6D6D4A
S2140083900D0D670D3987522865D009D83D283ED087
S2140083A03E2800F090809DF8020003B05DF804FBC4
S2140083B08028F8D1474B1B6F03F00703013B032BC4
S2140083C0F1D8DFE803F048444276B0F5D06F64D0C9
S2140083D01BD8B0F5A06F70D00BD8B0F5806F42D028
S2140083E0B0F5906FDFD100200DF10201FFF78AFD96
S2140083F0D9E7B0F5B06F30D0B0F5C06FD3D100205C
S2140084000DF10201FFF7B0FDCDE7B0F5006FEAD041
S2140084100BD8B0F5E06F56D0B0F5F06FC3D10020A2
S2140084200DF10201FFF712FEBDE7B0F5086FBAD1F5
S214008430284BD3F8003103F00303022B33D0032B71
S21400844035D0012B37D1FEF779FF032300E0052353
S2140084508DF80230A7E70223FAE700200DF10201AB
S214008460FFF72EFD9FE700200DF10201FFF704FD48
S21400847099E701934FF0E0231B695B0707D5FEF7EA
S21400848047FF0C238DF803309DF80330E0E70DF12D
S214008490030101A8FFF768FDF6E700200DF10201D1
S2140084A0FFF786FD7FE7FEF76BFF0823D0E7FEF7B2
S2140084B05BFF0723CCE70123CAE700200DF102018A
S2140084C0FFF7E8FD6FE700200DF10201FFF79AFDC8
S2140084D069E700BF0080004008B5FFF743FF0828A3
S2140084E012D00938C0B2012811D84FF40012094B37
S2140084F04FF6FF705A6603F5D8335B6A13F0010F28
S21400850018BF4FF4FA7008BD034B1888FBE74FF608
S214008510FF70F8E700900040500D002070B504464C
S2140085208020FFF71FFF03287CD04FF40022424B29
S21400853042495A6645F60E030222C1F88030404B87
S2140085409A62012203F580539A628A6D12F4803291
S214008550FBD1637820781B0543EA0063A079257C6D
S2140085600343E078667C43EA0043207943EA00331D
S214008570607943EA80130B618B69E07A03F000436D
S2140085800343E07943EA8063207A43EA0063607A33
S21400859043EA0043A07A43EA00238B61637B096ABF
S2140085A0002B18BF0822207B21F00D0143EA0103AF
S2140085B043EA800342EA0302204B1A62A27B4FEA98
S2140085C0421230D1986AE17B20F0330042EA011271
S2140085D0024342F001029A621A4A996D32EA010198
S2140085E0FBD1022216498A621A659A6D5200FCD4A3
S2140085F01869A27820F4700040EA02504FF000425A
S21400860018610F4B9A611DB9022203F580539A62D6
S21400861016B901220C4B9A62A37C1BB1074B0B4A7E
S214008620C3F8802070BD996A21F0330131430A43B4
S21400863042EA4502EFE700BF0090004000C000405D
S21400864000D000400300014000E00040F1A7FFFF1B
S214008650014B93F900007047DD1E0020F0B54FF483
S21400866080061B4A41788478C378057856664FF4AE
S214008670D156022702F5B8325662164E4F29776059
S2140086804FF0010728BF4F2106F580567760166920
S214008690F603FCD441EA052151611B01417943EA06
S2140086A004230B43017943EA41039360C37981793C
S2140086B01B0143EA4113417A0B43017A43EA410323
S2140086C05360837A13B16FF4D1535362F0BD00BF89
S2140086D00090004000100240014B1880704700BF19
S2140086E0500D00204FF4001208B5184B5A660223AE
S2140086F0174A5360936813F48033FBD1012822D1C4
S214008700FEF71CFE134B984215D003F5122303F513
S214008710F863984213D0104B00EB8002400AB3FB7C
S214008720F0F0520A0A4BDA62012218635A620022FB
S214008730074B5A6008BD45F67A10084AF2E745F638
S2140087401A00074AEEE75362F1E700BF00900040C8
S2140087500040024000F0490264666666D8B805002C
S214008760BBCF05000029CCBF01210021FFF7DABCF2
S214008770B0F5207F10B50C4642D008D8B0F5007F83
S21400878033D003D888B1B0F5C07F0ED010BDB0F599
S214008790607FFBD11F4B013CD3F8801021F03001E5
S2140087A041EA0414C3F88040F0E7FFF7E1FC00F06C
S2140087B035F84FF48031184A164B1167196F013C93
S2140087C021F4704141EA04341C67FEF7A1FD04461B
S2140087D0FFF746FBC0F102012046FFF7C3FF00F09B
S2140087E023F8BDE81040FFF7ADBD0A4B013CD3F8B7
S2140087F0901021F0F85141EA0464C3F89040C5E7B0
S214008800044B013C196F21F4806141EA84241C6703
S214008810BCE700BF008000400090004002214FF4FB
S2140088202070FFF7A5BF000008B54FF4C070FFF733
S214008830C9FCBDE80840044988428CBF02210121DA
S2140088404FF42070FFF794BF80F0FA02B0F5807FF7
S21400885070B50C4600F0FE802AD8382800F0528109
S21400886011D8243883B2092B16D8092814D8DFE883
S21400887010F0E000E000E000E00013001300D1007C
S214008880130048003801522800F0D38005D83D2850
S21400889053D03E2800F0478170BD8028FCD18B1E47
S2140088A0052B00F2B480DFE803F0AF9DB26DB2ACEA
S2140088B0B0F5D06F00F0158134D8B0F5A06F00F099
S2140088C0218117D8B0F5806F00F0B380B0F5906FB7
S2140088D0E2D1023CE4B2052C8CBF00219A4B9B4AA5
S2140088E098BF195DD2F8243123F007030B43C2F872
S2140088F02431D1E7B0F5B06F00F08C80B0F5C06FD2
S214008900CAD1083CE4B2032C8CBF0021904B8F4A9E
S21400891098BF195DD2F8403123F003030B43C2F829
S2140089204031B9E7B0F5006FD3D017D8B0F5E06F97
S21400893000F0F980B0F5F06FAED1083CE4B2032C3D
S2140089408CBF0021834B814A98BF195DD2F86031F5
S21400895023F003030B43C2F860319DE7B0F5086FC0
S2140089609AD1CC1EE4B2052C8CBF00217A4B774AF4
S21400897098BF195DD2F8003123F003030B43C2F809
S214008980003189E7002502260121022000F002FAC4
S214008990FFF7EEFBFFF742FF4FF480316F4B6B4A59
S2140089A01967136F23F0070333431367FEF7B0FC12
S2140089B00646FFF755FAC0F102013046FFF7D2FE31
S2140089C00121002000F026FAFFF72EFFFFF7BAFC81
S2140089D0002D7FF461AF032C7FF45EAF0122604B65
S2140089E09A6259E74FF400225C4B03265A6601222E
S2140089F003F540539D6A03F58053C5F340059A621C
S214008A00C2E700250426BFE700250126BCE70025AF
S214008A102E46B9E7022C03D0A4F10F00444244418D
S214008A204A4AD2F8803123F003031C43C2F880413F
S214008A3032E7023CE4B2032C8CBF0021494B434A88
S214008A4098BF195DD2F8203123F003030B43C2F818
S214008A50203121E7A1F10804082C3FF61DAF01A341
S214008A6053F824F0898A0000898A0000998800005B
S214008A70898A0000B78A000099880000998800005B
S214008A8099880000898A00004FF480322F4B3649BF
S214008A90586E03F580535A660B6A43F001030B6267
S214008AA0C1035CBF314B5A664FF0E022136923F0D6
S214008AB004031361F0E64FF48032244B2A49586EC3
S214008AC003F580535A660B6A23F001030B62C30357
S214008AD05CBF264B5A664FF0E022136943F004034E
S214008AE0E7E7083CE4B2062C8CBF0021204B174A6F
S214008AF098BF195DD2F8003223F007030B43C2F883
S214008B000032C9E60F2C0CD0102C14BF0021022115
S214008B100E4AD2F8203223F003030B43C2F8203269
S214008B20BAE60121F4E7083CE4B2032C8CBF00212E
S214008B30104B064A98BF195DD2F8403223F0030363
S214008B400B43C2F84032A7E6103B0300008000400B
S214008B500C3B03000C3B03001D3B03000090004051
S214008B6000E00040083B030000C0074000A00040B3
S214008B70163B03000C3B03000028ABBF00F160402F
S214008B80054B00F5614000F00F00ACBF90F8000305
S214008B90185C0009704700BF14ED00E0EFF310808A
S214008BA072B6704700B962B67047EFF31180302393
S214008BB083F31188704780F311887047054B42098C
S214008BC053F8223000F01F0023FA00F0C04300F0F4
S214008BD00100704700E100E0014608B5EFF310839E
S214008BE0DB0702D50122104608BDFFF7E7FF024665
S214008BF00028F7D10846FFF7BFFF0146EFF31183C1
S214008C0013B1B0EB131FEDD2074B5B68C3F3080339
S214008C10002BE8D0103B58B2FFF7AEFF88428CBF5F
S214008C2000220122DFE700BF00ED00E0194B10B57F
S214008C301B6873B3184A5268012A2AD0174A802044
S214008C40C2F80031FFF78EFB05281FD14FF4C07025
S214008C50FFF73EFA0128044604D102214FF4C07003
S214008C60FFF786FD07220E4B1A610122A3F58053FB
S214008C705A60094A1369DB07FCD5012C09D1214645
S214008C80BDE810404FF4C070FFF772BD0122054BDF
S214008C905A6010BDE01E002000C001400080004069
S214008CA000E0014000D0014000224FF40031074BA5
S214008CB01A60074A516602F598325268012A02BFC6
S214008CC0044AD2F800211A60704700BFE01E002058
S214008CD000900040008000404FF04022536F4178E3
S214008CE023F4407343EA0123536770477047704785
S214008CF010B5044608B1FFF7D7FF0E4A136943F0D4
S214008D000403136101F0E2FBFFF7F0FFFFF746FFF5
S214008D102AF0BAFCFFF746FFFFF7E9FF01F0EAFB8F
S214008D201CB1BDE81040FFF781BFBDE81040FEF75C
S214008D30EFBA00BF00ED00E010B5044608B1FFF73B
S214008D40B3FF0C4A136943F00403136101F0BEFB42
S214008D50FFF724FF2AF098FCFFF724FF01F0CAFB78
S214008D601CB1BDE81040FFF761BFBDE81040FEF73C
S214008D70CFBA00BF00ED00E0FFF796BFFFF756BF83
S214008D804FF04022D36E017923F030030B43D366B5
S214008D9070477047F8B504464FF04023D3F8842058
S214008DA0D106FBD4D3F88430C3F381139C422DD074
S214008DB0FEF794FA012C064602D12146FFF7D2FCB4
S214008DC0FFF7ECFE4FF00072114B07465A6620463E
S214008DD0FFF7DFFF4FF480634FF04025621E93409D
S214008DE02B676B6E9A0103D4D5F884309B060AD5A0
S214008DF03846FFF7D7FE022C08D13046BDE8F840CB
S214008E000021FFF7AFBCD5F88430EAE7F8BD00BF15
S214008E100060004007B518B90191FEF75FFA0199A6
S214008E20064B1B7843B1064B984205D8012003B089
S214008E305DF804EBFFF7AEBF0220F8E7E41E002063
S214008E40005A62020278034B012100201A70FFF7D5
S214008E50E1BF00BFE41E00204FF0004210B5012421
S214008E604AF6CD31144B5A66144A03F50B23546068
S214008E705A6C1964224078B9996811F0010F1049AC
S214008E8003D08C60D86AC007FCD501234B6012B1B2
S214008E900C4B0D4A1A6410BDD96A0907FCD4202170
S214008EA0074B59620121A3F58053996005494B6A27
S214008EB09B06FCD5EBE700BF009000400050094041
S214008EC000600940004009403254FFFF4FF0004266
S214008ED038B5184B184C5A66012203F50C235A6015
S214008EE04AF6CD33656C23644378154093401343AC
S214008EF04FF04022D363A368827823F0740343EADA
S214008F000213C278002A14BF042200221343A3606F
S214008F100279837943EA022323614279C37943EADB
S214008F20022363610078FFF797FF0DB1034B2364BC
S214008F30012038BD00900040004009403254FFFF39
S214008F40C36C0B42FCD1704708B543680246DB078A
S214008F5014D50A2350210363FFF7F2FF136C990719
S214008F60FCD1936A012110469362FFF7E9FF136C68
S214008F701B0604D4012302F50052536008BD536B50
S214008F80F5E738B50C460121024600F580535960D6
S214008F9004F00F0540F2FF71FFF7D2FF782105635A
S214008FA0FFF7CEFF04F00103610748BF43F002035A
S214008FB0116C01F003019942FAD138BD09B9FFF7E7
S214008FC0C3BFFFF7DEBF036C5B06FCD5C16370470B
S214008FD070B5054614460E46FFF7E0FD296881EA9F
S214008FE0040202EA06044C402C60BDE87040FFF71D
S214008FF0D9BD0000072AF7B501F0030614461F4640
S2140090004FF003012CD89500A94000FA05F21C4841
S2140090100191FFF7DDFF01991A4806FA05F2FFF7FE
S214009020D7FF194B19499DF82000002F08BF194695
S214009030012303FA04F40C60154B1649002808BFF8
S2140090400B461C60144B9DF82400C3F820441031D6
S214009050A3F6DC33002808BF0B461C6003B0F0BD47
S214009060A2F10805AD00A94000FA05F20B480191EF
S214009070FFF7AEFF01990A4806FA05F2CFE700BFF0
S21400908000C4034008C4034010E4034010D4034067
S21400909014D4034014E4034000E0034004C4034037
S2140090A00CC40340F8B504460D461F4616464AB1A2
S2140090B001238B403021184A01FB0022F7B141F210
S2140090C0100153503023072D4FF00F0104FB03F31C
S2140090D017D8A80006FA00F2814010481844FFF797
S2140090E077FF56B9012130230B4801FA05F503FB3B
S2140090F0040077B141F21003C550F8BD42F21001EA
S214009100DFE7A5F10800800006FA00F28140044877
S214009110E4E742F21003EFE700C0034004C0034058
S2140091200CC00340044A054B002918BF1346012211
S21400913002FA00F0186070474020044040100440D7
S21400914010B5012104462020FFF71AF8012121203E
S214009150FFF716F80122114B5A60227812069A6021
S2140091606178A27842EA01429A61FF229A6200225E
S2140091709A631A644FF000425A654FF0FF324FF47C
S214009180001103F500531A65054AC2F88011E3780A
S2140091901B01DBB282F81533116010BD00000440DD
S2140091A000E100E04FF40032054B9A6641F671325A
S2140091B003F51C33DA63012203F50053DA607047C7
S2140091C00090004041F671320121064BDA6303F548
S2140091D00052D1600022DA634FF40032A3F5183350
S2140091E09A667047000003404FF090435A6812B1E9
S2140091F09A6A002AFAD17047CB784A7810B55B0194
S2140092000C7843EA82030A79234343EA02130C22CA
S214009210424302F190421363012C02BF8A78024B4C
S21400922043F8202010BD00BFE880034008B54FF08B
S21400923090435A6802B960B15B680BB1FFF7D4FF80
S2140092404FF0904130B10120074B5860FFF7CCFF3C
S214009250C86008BDFFF7C8FF0223CB60FFF7C4FF56
S2140092600122024B5A60F4E7001000480020004834
S2140092704FF090435B6870B50BB1FFF7B5FF012167
S214009280104B4578596083780679002BC37814BF55
S21400929002240024002B14BF042200224379DB00A2
S2140092A043EA06132B43234313434FF09042936045
S2140092B0054B59600378002B14BF0B460223D3607E
S2140092C070BD00BF00200048001000484FF48032F8
S2140092D0064B5A6603F5E6235B69C3F38512827074
S2140092E003F03F021B0B4270037070470090004073
S2140092F070B5054616461C4621B94FF42070FEF799
S21400930061FF0146402C1BD003D8DCB1202C1BD0BB
S21400931070BD602CFCD1042303FB06F2560806EB56
S2140093204113B3FBF2F3094A203B02EAC303AA68DF
S21400933022F06002AA60AA681443AC60EB61E7E71B
S2140093400623E9E71023E7E70823E5E7F8FF7F00B1
S21400935038B50546144621B94FF42070FEF732FFA3
S214009360014601396400B1FBF4F10902E96138BD38
S214009370012200F580535A60CB43934003F00A0362
S2140093804361416111B900F500504260704700002A
S214009390012200F5805310B55A6040F6AA6341F2E8
S2140093A00502436100230E498360C365C26000F571
S2140093B000520361C361C36491640A4983658842AD
S2140093C002D0094CA04207D18842036502D0064B62
S2140093D0984201D1002343650123536010BD00BFAE
S2140093E0FFFF010000C005400000064070B50D46B6
S2140093F0FFF7CEFF012300F580567360AB7C044672
S2140094001BB1836843F080438360EB7C5BB1354AD5
S2140094102B7D944245D1A2F51032C2F88C31E36D13
S21400942043F08003E3652A8A6B7B20461343EA8970
S2140094301343E3602B7BD5E90112FFF759FF6B7DE1
S2140094401BB1A36843F48033A360AB7D1BB1A36854
S21400945043F40043A360EB7D2A7E1B07120502F44B
S214009460E00203F0E0431343A365697E1D4A8B1EAA
S214009470012B1D4B1FD894421BD002F5804294420C
S2140094800CBF01224FF0FF3203EB4213022041F2E1
S2140094901C620329985020D10423F3652B7863615E
S2140094A070BD124A944204BFA2F52032C2F89C3125
S2140094B0B5E70022E8E794420DD00C4A94420CBF70
S2140094C001224FF0FF3203EB4213022042F21C62ED
S2140094D001299850DFE70022F5E7042204F500533F
S2140094E0DA65DBE700C0054000C003400000064028
S2140094F038B50D46FFF74CFF0122A97B00F58053D7
S2140095005A602A8A8368002914BF4FF480610021BC
S21400951042F0010213432A7D0B43002A14BF4FF08A
S2140095200052002283608368044613438360AB7C4A
S2140095305BB11D4AEB7C90422DD1A2F51032C2F8E9
S2140095408C31E36D43F08003E3652B7B2046D5E941
S214009550011243F48053E360FFF7FAFE6B7B0BB116
S214009560102363616B7D1BB1A36843F48033A36053
S214009570AB7D1BB1A36843F40043A360EB7D2A7E5A
S2140095801B07120503F0E04302F4E0021343A36551
S2140095902B78636138BD054A904204BFA2F520329D
S2140095A0C2F89C31CDE700BF00C005400000064071
S2140095B083691B06FCD5406AC0B2704783695A06A9
S2140095C0FCD5C16383699B06FCD5406AC0B2704770
S2140095D083695B06FCD5C1637047000038B5044656
S2140095E0054D1FF089FE0FCC0FC594E8030085E8F3
S2140095F00300002038BD00BFE81E002047F6FF73BA
S2140096009A42F0B563D0022963D8334BCF0003EB00
S214009610C10013F831108478012913D10025C378CE
S2140096201B1B9D4202D3E018C0B2F0BD591B466812
S214009630A3EB510136F911609642D4BF0D4601F1F5
S214009640FF33EEE740680028EFD0B0F900109142F3
S21400965004DBB0F902109142B8BF114682883B4441
S214009660FF2A19BFC8222826B0F90620B0F90860DC
S214009670A2EB01020CBF0125002592FBF6F25F78F3
S2140096802A447B1E934228BF13464FF47A7E00EB93
S214009690C305AE68EA88AC4611FB02621E4622EAA3
S2140096A0E272013302F5FA729F42B2FBFEF204D96F
S2140096B0BCF80CC008359445EBD200EBC600808899
S2140096C0904228BF1046A04238BF2046ACE7FF2095
S2140096D0ABE70020A9E700BFE81E00200229F0B58E
S2140096E053D82B4800EBC10410F8311063680129E9
S2140096F00FD1E078A478904294BFC4EB0001C4EB8D
S2140097000201001BCAB28242C8BF002233F912000F
S214009710F0BD002B39D0A178914202D3B3F90200F4
S214009720F6E7E178B3F900009142F1D999886478B8
S214009730A1F1FF06013C714203F10405E4B2714158
S21400974003F10C071FFA82FCCEB2B44216D805EB22
S214009750C1014FF47A756A43B1F902404968521A5A
S21400976004EBD47102EB610292FBF4F29042CFDB81
S214009770B3F902009042CBDC10B2C9E737F831E00B
S2140097804E1CE645E3D33146DEE70248C0E700BF9D
S214009790E81E00200080FFFF08B50448FFF71EFF04
S2140097A0BDE8084001201FF0A9BD00BF243B030010
S2140097B007B56B46054A1068516803C36846FFF74D
S2140097C085FB002003B05DF804FB00BFA83B030048
S2140097D04FF0402213B50024536F684643F0010350
S2140097E0536700948DF80440FFF7CAFA204602B08B
S2140097F010BD000070B586B001AA1546184B03F1DF
S2140098001006144618685968083303C4B342224643
S214009810F7D119889B782180A370124BD3F84C217E
S214009820120314D4D3F85041E4B28DF80E40FEF77C
S2140098300FFF204480F308008DF80D000A48FDF75E
S21400984083FD2846FEF76AFE002006B070BD074B73
S2140098501C884FF6FF739C4208BF7824E5E700BFDC
S214009860B03B03000080E00F00F049020001E00F6B
S21400987008B50120FEF736FF002008BD1FB50B4ACD
S21400988001AB1068516803C31189927A19809A70E7
S214009890252301A88DF80530FEF7E0FE6420FEF7CC
S2140098A01BFF002005B05DF804FB00BFC33B0300B0
S2140098B06FF00402502110B50A480B4C12F0800FCE
S2140098C0D3B21BBF03F00F03043BA3181B1802F10F
S2140098D001020CBF83F800131976402AEED100204F
S2140098E010BD00BF00ED00E000E100E000F07AB837
S2140098F038B500F0B9FF0446E0B901F0F3F84FF4CC
S214009900167343430C4803F5742303F23F23B3FB5B
S214009910F0F30A4A0A4913600A220D680948013A18
S21400992012F0FF0240F8043BF9D103EBC3022B44CC
S21400993013440B60204638BD40420F003C1F0020F9
S214009940081F00200C1F002070470000012208B5E9
S214009950034B1A7001F0BAF8024B186008BD00BF3E
S214009960041F0020381F0020F8B5144C237823B3BA
S21400997001F0ACF8124B134D1B68134EC01A0128A9
S21400998038BF0120114B124F18602B7856F8232051
S21400999046F82300111A3A680E48521A0A213A600D
S2140099A00932B2FBF1F20133DBB20260B3FBF1F233
S2140099B001FB12332B7000232370F8BD041F002018
S2140099C0381F0020341F00200C1F0020001F00201E
S2140099D0081F00203C1F0020014B1868704700BF7E
S2140099E03C1F002020234FF400220A4981F82C3324
S2140099F0094B5A66094A03F5A040426702674FF4CE
S214009A00805003F540530344C1F8840148605A6708
S214009A10704700BF00E100E000900040010000A099
S214009A20054B064A1B78916DC90700D513B100286F
S214009A30F9D1704701207047541F002000C0004035
S214009A402DE9F843874B1E6F9D6A9C6AF00705F068
S214009A50020504F001044CD501278349834A91F896
S214009A600090DFF828821767B9F1000F00F0ED804C
S214009A700020087098F80010B94200F2E180022138
S214009A809762A2F5805291629A6DD103FCD4784910
S214009A905A6B096822F470620A435A637548764A1C
S214009AA099690068126821F47F01024321F47F411E
S214009AB00A439A617148724A19691268006821F46B
S214009AC07F6121F00F0102430A431A616D499A69CA
S214009AD0096822F0FF020A439A610223002D40F033
S214009AE0AB80624A93620123002C00F0A780664A8E
S214009AF0936216F000527FD04FF0010E5B4F634921
S214009B003A67594A574B82F800E00A78DFF864C192
S214009B1072440A705A6B564902F47060086098697D
S214009B20554900F47F4008609969DFF8588101F4D0
S214009B307F01CCF80010D3F818C05FFA8CFCC8F888
S214009B4000C0D3F810C0DFF838810CF47C6CC8F87D
S214009B5000C0D3F810C0DFF824810CF03F0CC8F822
S214009B6000C0C7F828E04FF0020EDFF81CC1CCF8A2
S214009B7028E04FF0004ECCF828E0D3F858C01CF48C
S214009B80803FFAD14FF0004C22F4706242F400722B
S214009B90B0F5C84FC7F828C05A6302D8B1F5C80F49
S214009BA00CD9304A3A499369096823F47F0323F4B1
S214009BB07F4343EA012343EA01439361294A354937
S214009BC01369096823F47F6323F00F03880843EAC8
S214009BD0910343EA80131361936923F0FF030B4359
S214009BE093610223002D37D102F5005293620123C0
S214009BF0002C33D0244A9362002E1BDA4FF000422A
S214009C001A4B18491A67244A12789AB101229A62A6
S214009C100222A3F580539A628A6DD203FCD44FF0D9
S214009C2000429A61022205B9104B9A620123BCB128
S214009C30154A9362BDE8F883134A53E70B4A57E781
S214009C40FFF782FE144B1F7053E7FFF78DFE00F000
S214009C5077FB88F800904CE70B4AC7E7034ACAE749
S214009C60024AE6E700C00040541F002000E0004023
S214009C70581F0020501F00204C1F0020481F0020A7
S214009C80441F0020401F002000D00040551F002029
S214009C90580D0020540D0020561F0020FFF7D0BEA0
S214009CA0BFF34F8FBFF36F8F054B5A6A22F4803293
S214009CB05A62D3F8942022F00102C3F89420704729
S214009CC000ED00E070B52548254CFFF7E9FF84421B
S214009CD008BF4FF08043234A18BF20F01F03D2F876
S214009CE0C01018BF203B21F0FF0141F0A001B3F1E6
S214009CF0005FC2F8C0100CD31B4D1C4E296843F001
S214009D000103C2F898100131C2F89C60C2F8A03076
S214009D102960844210D01448154B0268114923F07C
S214009D201F0343F00303C1F89820C1F89C30114B81
S214009D300132C1F8A0300260BFF34F8FBFF36F8FC0
S214009D400522084BC3F894205A6A42F480325A62BD
S214009D50BFF34F8FBFF36F8F70BD00BF5010002052
S214009D602812002000ED00E05C1F00200300002009
S214009D7047120020E1FFFF3F10B51446FFF790FFA3
S214009D801F2C21D9194A1A4CD2F8C03021F01F01D5
S214009D9023F47F4343F48073C2F8C030C30618BF71
S214009DA020F01F002368114A18BF203020F01F0043
S214009DB0C2F8983040F0030041F003010133C2F8C6
S214009DC09C00C2F8A0102360BFF34F8FBFF36F8FC5
S214009DD00522064BC3F894205A6A42F480325A622F
S214009DE0BFF34F8FBFF36F8F002010BD00ED00E074
S214009DF05C1F0020BFF34F8F0549064BCA6802F46C
S214009E00E0621343CB60BFF34F8F00BFFDE700BF98
S214009E1000ED00E00400FA0508B5FFF7EBFF08BD0B
S214009E20034B1B78002B14BF01200220704700BF95
S214009E30901F00200329F8B598BF124B05460E4622
S214009E408CBF00245C5C032805D8DFE800F002081D
S214009E500B0E44F002040C4B1F684FB9F8BD44F0DB
S214009E600804F8E744F02004F5E744F08004F2E73D
S214009E707B681A68144203D0314628465B689847C8
S214009E803F68EAE7CE3B03008C1F002038B5104D34
S214009E902B78ABB10F4C23781BB100F057FB002397
S214009EA02370002000F074FB0B4C50B100F07AFBDE
S214009EB00023012120782B70FFF7BCFF01232370BD
S214009EC038BD0122054B1A702278054B1A70F7E749
S214009ED08A1F0020851F00207C1F0020891F00206D
S214009EE09C1F002010B5FEF759FE064B04461B7853
S214009EF01BB1BDE81040FEF755BEFFF7C7FF204672
S214009F00F7E700BF841F0020002814BF0121FF21AF
S214009F10074A13780B44137008D0064B1B78012BA6
S214009F2004D9054B1B780BB9FFF7B0BF704700BFCD
S214009F30901F00207C1F0020891F002070B5FEF7B0
S214009F402DFE114E054633788BB900F08DFC044685
S214009F5020B12846FEF726FE204670BD00F0C2FD62
S214009F600A4B18600A48FDF711FA0A4B1C6000F00D
S214009F702FFA00F04BFB084B0024186001232846FC
S214009F803370FEF70FFEE7E7861F0020981F0020BD
S214009F908C1F0020A01F0020801F002000292DE914
S214009FA0F34114BF0121FF21254A00F1FF30135C65
S214009FB00B4413543AD0234E3278012A36D9FFF791
S214009FC02FFF0128044634D81F4FFEF7E7FD3B78E5
S214009FD01BB31E4D2B781BB901222A701C4A137026
S214009FE0DFF8708098F8003033B1019000F0AEFAD8
S214009FF00023019888F80030FEF7D4FD012000F019
S21400A000C7FAFEF7CBFD2B782BB1019000F0CAFA09
S21400A010002301982B7000233B70FEF7C3FD3078B9
S21400A020A04203D02146FFF705FF347002B0BDE81A
S21400A030F081032AF3D10228F1D100F001FBEEE70C
S21400A040901F00207C1F00208A1F0020841F0020F5
S21400A050891F0020851F002010B50446FEF79EFDD0
S21400A060002C14BF0121FF21064A13780B44DBB2F3
S21400A0701370B3FA83F3BDE81040034A5B0913700C
S21400A080FEF790BD931F0020921F002068B5FEF7D4
S21400A09085FD094B06461B78012B04D8FEF782FD8A
S21400A0A00025284668BD054B1D6800F0B3FA054438
S21400A0B03046FEF777FDF4E77C1F0020A01F002047
S21400A0C007B5FEF76BFD0190FFF7E0FE019803B0C1
S21400A0D05DF804EBFEF766BD38B541600446FEF752
S21400A0E05DFD054621460448FDF753F92846BDE8C0
S21400A0F03840FEF757BD00BF8C1F0020054B1B687D
S21400A1005843054B00F5742000F23F20B0FBF3F0F7
S21400A110704700BF981F002040420F002DE9FF4700
S21400A120FEF73CFD044600E000BFFCF79EFF00285B
S21400A13000F09C806D4E6E4F337823B10020FFF701
S21400A140E3FE00233370FFF76BFE0546002800F0A1
S21400A1509580851EEDB2012D40F29880FFF760FED7
S21400A1600128804604D9634B1B780BB900F0ACF984
S21400A170614DDFF8A4912878DFF8A0A140450AD009
S21400A180002389F800309AF8003013B94146FFF7EB
S21400A19051FE85F8008099F800303BB12B78022BF1
S21400A1A004D1002389F800301FF0AEFDB8F1010F8E
S21400A1B00FD9DFF8408198F8003053B94F4B1B7821
S21400A1C023B900F0BDF901224D4B1A70012388F81F
S21400A1D00030287800F004FA9AF8003013B1494BA2
S21400A1E01B782B7000E000BF2046FEF7DBFCFEF776
S21400A1F0D5FC454B04461A7852B100221A70414BE2
S21400A20028781B78984203D101212970FFF712FEA7
S21400A210384600F07DFBFCF733FF804600288BD1E4
S21400A220344F89F800003B789BB1DFF8D4908AF869
S21400A230000099F800301BB100F088F989F800801A
S21400A240002000F0A5F9002846D000F0ABF9002366
S21400A2503B70337823B10020FFF756FE002333709F
S21400A26000212878FFF7E6FD00232B7000E000BFF2
S21400A270204604B0BDE8F047FEF794BC3378002BC8
S21400A2803FF46CAFFFF740FE357067E7002003A988
S21400A29000F0E4FB054600287FF460AF1B4B039AF2
S21400A2A01B689A4205D80120FFF72EFE0123337063
S21400A2B054E7174BD3F8008000F0ACF903994044FC
S21400A2C08842F0D20223091ACDE9005338462B46BD
S21400A2D0104A00F045FB41E7012000F081F92046D6
S21400A2E0FEF760FCFEF75AFC0446A9E7941F002020
S21400A2F0601F00208A1F00207C1F0020931F002064
S21400A300851F00209C1F0020881F0020801F002023
S21400A310A01F0020E59E0000921F0020891F00203D
S21400A32010B5FEF73BFC0022044B1C781A70FEF7B3
S21400A33039FC00F0B9FD2043C0B210BD871F0020D5
S21400A34010B5094B1B786BB1084C237853B100F05D
S21400A35029F90023064A237013700123054A137057
S21400A360054A137010BD00BF7C1F0020891F002007
S21400A3708A1F0020871F0020881F002070470000CB
S21400A38073B5114E04463378834212D000238DF8FD
S21400A390043080B102238DF8053001A8FEF79CFC3E
S21400A3A00A4D402054B1FFF7A9FE2B68181A286002
S21400A3B0347002B070BD8DF80500EEE7FFF79EFE24
S21400A3C02B681844F3E700BF5C0D0020AC1F00208C
S21400A3D073B5002401A88DF80440FEF733FD20462F
S21400A3E04FF40024FFF7CCFF3149324B0A6F02F0DE
S21400A3F007021A60D1F82031D1F8240101F5805106
S21400A4004C664FF400344C6601F598318969032A8E
S21400A41000F0070001F0020141D003F003039C1E88
S21400A42063426341022808BF43F001032248234DDC
S21400A430037061B31E4A3BB9D2F8003103F0030340
S21400A440591E4B424B410370D2F8003103F0030310
S21400A450022B26D0032B27D0012B18D1FCF76EFF3A
S21400A460A8B1174B411EDC68002302460846194671
S21400A470C4F30B04134E013404EB8404E4FB06011E
S21400A48025F0D6FCFFF73AFE2B68184428606420B7
S21400A490FFF734FE2B681844286002B070BD012315
S21400A4A0C0E7FCF76DFFDBE7FCF75EFFD8E700BF11
S21400A4B000800040A41F0020AA1F0020AC1F002020
S21400A4C000C0014040420F00FEF756BC074B1A780A
S21400A4D052B100221A70064A136F23F0070343F0A6
S21400A4E001031367FCF714BF704700BFA81F0020C6
S21400A4F0008000400E4B10B51B7883B1022000F0A0
S21400A50081FD60B100F0DCFA48B10A4B9A6DD203C7
S21400A51006D5DB6D9B0703D50122074B9A6210BD5B
S21400A5200124064B1C70FFF711FA034B9C62F6E7FA
S21400A530AA1F002000C0004000D00040A91F002035
S21400A5400122014B1A707047A81F002038B50C4B2B
S21400A5501B786BB10B4C23787BB90B4B0B4D9A6D6C
S21400A56012F4803F05D0DB6D9B0702D50123AB625A
S21400A57038BDFFF7EBF90123AB6200232370F7E742
S21400A580AA1F0020A91F002000C0004000D00040E5
S21400A590034B1B780BB1FFF743BA0120704700BF8F
S21400A5A0AA1F002008B5FEF7E9FB094A0949136F00
S21400A5B0096823F007030B431367074B1B7813B197
S21400A5C00122064B9A62BDE80840FCF7A1BE00BF18
S21400A5D000800040A41F0020AA1F002000E00040CA
S21400A5E002280AD003280BD001280CD1064A13698A
S21400A5F023F00403136130BF70470020FEF778BBDA
S21400A6000020FEF799BB704700ED00E04FF4C870DD
S21400A610FFF774BD08B5054B187818B1FFF7DCF9DD
S21400A62000EBD000024B1B68184408BDAA1F002090
S21400A630AC1F00200122014B1A707047AA1F002091
S21400A6407047830711D16422B0FBF2F302FB1303B9
S21400A6509BB263B94FF4C873B0FBF3F203FB12006E
S21400A66080B2B0FA80F040097047002070470120A1
S21400A6707047000070B5044650B3C6888A2E27D8A7
S21400A68005790B2D24D8C17811B33046FFF7D9FFD2
S21400A6900C22104B02FB0030435D8B4218D3A2788D
S21400A6A0172A15D863783B2B12D820783B280FD86A
S21400A6B08A2E0BD165B913290AD8032A08D80E2B7F
S21400A6C006D807288CBF0020012070BD0120FCE7BB
S21400A6D00020FAE7D23B030010B500F033FC0A4C2A
S21400A6E00A4B19682368C31A01B10BB9206010BD64
S21400A6F04A699A423ABF9B1A0022D21A4A6128BF78
S21400A70000238968F0E700BFBC1F0020D81F002088
S21400A710C38870B504460D463BB9FFF7B7FC8542C3
S21400A720064602D2FFF7CCFC35460F4965610B683A
S21400A730ABB90C60A36011E0AD1A9A681846656163
S21400A7402AB113465A69AA42F6D950B11A46134698
S21400A7508460A36013B15969491B596170BD00201C
S21400A760F0E70C60F5E700BFD81F002038B5134DA2
S21400A7702B685B6993B1124A022014681C4400F0EF
S21400A78015FC204600F0E6FB00230E492A680B70F5
S21400A790D088800709D501230B7038BD022000F051
S21400A7A005FC022000F026FCEEE79268002AF4D0B2
S21400A7B050690344012BEBD9EFE700BFD81F0020F8
S21400A7C0BC1F0020C41F002070B516469DF814203C
S21400A7D0C0E903360271049ABDF818300260002200
S21400A7E0C380826004460D4600F0ACFB3044A06196
S21400A7F03DB9E368656113B120462168984796B174
S21400A8003546FEF7CBF90646FFF766FF2946204693
S21400A810FFF77EFF054B1B68A34201D1FFF7A6FF9B
S21400A8203046FEF7BFF9002070BD00BFD81F0020DD
S21400A83000220C490B687BB183420AD183687AB147
S21400A840936083681BB15A6941690A445A610020C3
S21400A85070471A469B68EEE70028EFD00220704744
S21400A8600B60EEE7D81F0020F8B5FEF79EF91E4FE6
S21400A87006463C78002C32D11C4B1C601C4B1C60DE
S21400A8801C4B1C8000F01CFB012000F08FFB00F02E
S21400A890E3FB194B0546186020B93046FEF78BF9E6
S21400A8A02320F8BD154B02461C60002023460121DC
S21400A8B025F0BEFA124B00201A6001212A462346D4
S21400A8C025F0B6FA0F4B2A46186040F2E7312346C9
S21400A8D00D4825F0ADFA0D4B186001233B7030464D
S21400A8E0FEF769F90020DCE7B81F0020D81F00201B
S21400A8F0BC1F0020C61F0020D41F0020CC1F002035
S21400A900B41F0020B01F002018FCFFFFC01F00204F
S21400A9102DE9F0410546F8B1FEF740F90F4F06461F
S21400A920FFF7DAFE2846D7F80080FFF781FF0446D7
S21400A93028B13046FEF736F92046BDE8F081A84536
S21400A9403B6803D123B1FFF711FFF2E7002BF0D1EC
S21400A950022000F037FBECE72224EDE7D81F0020AA
S21400A96070B586B015461E460446059180B1FFF7C1
S21400A970CFFFBDF82C30002202939DF828302046E9
S21400A980CDE9006305992B46FFF71EFF06B070BDA4
S21400A9902220FBE738B50C46054698B191B1002356
S21400A9A00B70FEF702F90121074B1B680BB12278EA
S21400A9B01AB1FEF700F9002038BDAB4214BF9B6801
S21400A9C02170F3E72220F7E7D81F0020F0B51F46D6
S21400A9D0002387B00D46164604468DF81730A0B102
S21400A9E00DF11701FFF7D6FF9DF817207AB9BDF8CD
S21400A9F03430294602939DF830302046CDE9007366
S21400AA003346FFF7E1FE07B0F0BD2220FBE7032048
S21400AA10F9E7F0B51F46002387B00D4616460446F4
S21400AA208DF81730A8B10DF11701FFF7B3FF9DF8A9
S21400AA30173083B9BDF834302A4602939DF830307B
S21400AA402946CDE9007320463346FFF7BDFE07B022
S21400AA50F0BD2220FBE70220F9E700002DE9F041D7
S21400AA6007468846FEF7A1F800260546124B1C68E6
S21400AA7024B92846FEF79FF81B2016E063691E449B
S21400AA80E388BB4215D100F05DFA0C4C2368C01A6F
S21400AA90B0420CD200F056FA22683244121A284607
S21400AAA0C8F80020FEF787F80020BDE8F0810022F5
S21400AAB0F5E7A468DCE700BFD81F0020BC1F002015
S21400AAC0014B1878704700BFC41F002038B5FEF74A
S21400AAD06CF8054600F036FA04462846FEF76BF892
S21400AAE0204638BD014B1868704700BFD41F0020B1
S21400AAF070B500F027FA04460A4B1E68FEF755F8B4
S21400AB00B4FBF6F3084A06FB134415681D44074BCE
S21400AB101B681C44B44228BF0135FEF74CF8284693
S21400AB2070BD00BFD41F0020CC1F0020C81F00200F
S21400AB30F8B5041E17DB0D4B00251F6800F002FA5F
S21400AB400646FEF732F80A4B0A4A1D60B6FBF7F3D4
S21400AB509C42146005D3E41A1460FEF72CF82846CD
S21400AB60F8BDFEF728F82120FAE700BFD41F002022
S21400AB70C81F0020CC1F00202DE9F0410C4690464F
S21400AB801F460546002842D040F26B7399429DF856
S21400AB90183088BFA1F26C7483709DF81C3088BF93
S21400ABA0A4B243709DF82030C4800370099B0271E4
S21400ABB0C770C360FFF75EFD58B32046FFF741FD40
S21400ABC00C22154B02FB003000231946DAB29045E2
S21400ABD017D840F26D12A4F149035443A4F5C744B4
S21400ABE04A3C04EB93040723394489B20C44B4FB73
S21400ABF0F3F30020C3EBC303E41A69812C72BDE8AB
S21400AC00F08110F8016B01330E44B1B2DEE722206A
S21400AC10F5E72120F3E700BFD23B0300F8B5064670
S21400AC200D46FFF727FD002837D0F0881C49A0F115
S21400AC304602D2B2022A82BFD41EA410013402FBFE
S21400AC4001F194BF0024E4B2FFF7FBFC0C22154B85
S21400AC50377902FB003000239F4218DC4FF4616016
S21400AC607378B278C3EB03139B0000FB023300201B
S21400AC7032781344F2780B44013A14440A4AA4B2D8
S21400AC8002FB04342C60F3681C442C60F8BD10F8FA
S21400AC90012B01331444A4B2DEE72120F6E700BFFF
S21400ACA08033E101D23B030080510100002313B53D
S21400ACB004460193FFF7DEFC48B1204601A9FFF7E2
S21400ACC0ADFF10B90198FFF733FF02B010BD212089
S21400ACD0FBE700000C4B70B51B680D46834211D392
S21400ACE040F2E73100248C462146084B4FF47A7236
S21400ACF01E680023E0FB06C1604625F099F8286030
S21400AD00204670BD2120FCE7C01F0020D41F002075
S21400AD100F4B10B51A689AB14FF47A71531E13424E
S21400AD20A0FB01010ED1B2FA82F2C2F11F04531C3D
S21400AD30D243E04001FA03F3184321FA02F2024339
S21400AD40104610BD002325F073F80246F8E700BF52
S21400AD50D41F0020C2072DE9F347044620D54A4BEE
S21400AD604A494B4A1D6812680B681344AB42494A6D
S21400AD700B6004D310685B1B013010600B60464903
S21400AD80136809680B441360444A138801339BB266
S21400AD901380FFF7A1FC424B1B680BB1FFF7E6FCE4
S21400ADA0A3076DD5FDF701FF002605463746FFF7DA
S21400ADB093FCB146DFF8E880D8F800400CB1636930
S21400ADC08BB10022374B012F1A7002D1022E08BF1A
S21400ADD01F70002C44D0FFF7C9FC284602B0BDE81F
S21400ADE0F047FDF7E8BE23461A792179914288BFDD
S21400ADF01C469B6813B15A69002AF5D02846FDF711
S21400AE00DAFE256985B300F09DF8A269861AF31765
S21400AE10B54279EB030328DA23691344A3610123BF
S21400AE20226982B17BB9A91B0191FDF7BEFE82465D
S21400AE3001992046FFF76CFCA3692269504613442B
S21400AE40A361FDF7B8FEE368E688013713B1204634
S21400AE5021689847FDF7A9FE0546FFF73DFCABE7DE
S21400AE60022000F0AFF8B8E72E46FDF79EFE8246B9
S21400AE702046FFF7DDFC5046FDF79DFE0023CFE79A
S21400AE8002B0BDE8F08700BFD41F0020C81F002016
S21400AE90B41F0020CC1F0020B01F0020C61F0020BB
S21400AEA0D81F0020D01F002010B5FDF77EFE034BF4
S21400AEB01C78FDF780FE204610BD00BFD01F002086
S21400AEC01FB500241C4B012118689A880290D3F8FD
S21400AED006009B7A00903E20ADF80C208DF80430DA
S21400AEE0FDF74EF902A88DF808408DF80C40FEF7E5
S21400AEF0BFF9694601208DF80040FEF77DF94FF056
S21400AF00904240F2FF31936923F47F7323F00303EA
S21400AF1093610A4B5961936A13F00803FBD11362DD
S21400AF200120FEF783F94FF48052054BC3F88021C9
S21400AF301A6004B010BD00BFEA3B030000200048C2
S21400AF4000E100E04FF090439A6A1207FCD4186ABA
S21400AF50704700004FF09042936A1907FCD4136ABA
S21400AF60116C5269520604D4CA1A032A01D89942AF
S21400AF700ED1C21A022A98BFD81CB0F1FF3F38BFC4
S21400AF8001384FF0904318649A6942F040029A6183
S21400AF90054A13783BB14FF09041CB6B43F0020368
S21400AFA0CB630023137070475D0D002082074FF0BF
S21400AFB0904200F00103916948BF43F040030B4301
S21400AFC093617047820700F001030AD50121084A01
S21400AFD043F0400311704FF09041CA6B22F0030219
S21400AFE0CA634FF090418A6922EA03038B61704777
S21400AFF05D0D0020830742BF4022014B5A61704717
S21400B000001000484FF0904301285B6904D00228E6
S21400B01005D1C3F38010704703F00100704700208D
S21400B0207047000010B5FDF7C0FD4FF09043044692
S21400B0305B695A06074A03F0010003F0510348BF54
S21400B04040F002005361FFF785FE2046BDE8104041
S21400B050FDF7B1BD002000483E20FDF7B3B808B5A7
S21400B060FBF7A6FFFBF7DCFFFBF7E1FFFBF7ECFFC8
S21400B070BDE80840FBF7EFBF08B5FBF7EDFFFBF7B1
S21400B080ECFFFBF7EBFFBDE80840FBF7E9BF00006D
S21400B09010B50446FCF73CF90C4BA0F57A729A42C0
S21400B0A012D84FF47A73B0FBF3F05C43084BB3FB53
S21400B0B0F0F0B4FBF0F0022806D9BDE810400323F8
S21400B0C0B0FBF3F000F00CB810BD00BFFFC99A3B10
S21400B0D040420F00000000000000000000000000DA
S21400B0E0013800D0FCE7704738B50446FDF756FD3A
S21400B0F00546204625F070F804462846FDF752FD22
S21400B100204638BD37B504460191FDF747FD019945
S21400B1100546204625F020F804462846FDF742FD61
S21400B120204603B030BD38B50546FDF737FD04466A
S21400B130284625F059F82046BDE83840FDF732BDD0
S21400B1400A4619B1024B00211B681847704700BF1A
S21400B150600D002000F4E040B0F5805F04D0A0F55C
S21400B160005358425841704701207047B0F5105FB1
S21400B1700DD009D8B0F5885F10D0B0F5905F0DD02F
S21400B18041F20103984209D06FF08500704721F024
S21400B1904003802B02D0B1F5807F06D111F0070F57
S21400B1A014BF6FF08600002070476FF0860070476F
S21400B1B00E4B0340B3F1607F06D1B1F5885F14BF34
S21400B1C06FF0860000207047B3F1707F0BD101F45A
S21400B1D0E043B3F5005F06D111F4E06F0CBF6FF0EB
S21400B1E08600002070476FF0860070470000C07F22
S21400B1F08A42F8B507460D4600F01781964B9748E9
S21400B20002EA030181420BD0954922F0FF048C42EA
S21400B21006D0944C22F47F7121F00301A1421DD187
S21400B2202B4083420BD08E4B25F0FF01994206D06F
S21400B2308C4925F47F7323F003038B420ED115F05F
S21400B240FF030BD0884943F000738B4206D16A4057
S21400B25032F0FF030CBF01200020F8BD05F0FE43CE
S21400B260B3F1A06F17D102F0FE43B3F1A06F40F028
S21400B270DE8082EA050333F47E1340F0D88015F4AE
S21400B2800040EAD0C5F30540C2F3054290428CBFA9
S21400B29000200120E1E7B3F1407F40F0B38002F0E8
S21400B2A0FE43B3F1407F40F0C28082EA050333F4E8
S21400B2B07E1640F0BC8039462846FFF779FF002806
S21400B2C040F0B580694C12F47C1C04EA020438D0C5
S21400B2D0B4F1607FC2F3054C7AD16549D3B243F02E
S21400B2E000738B4278D003F17E410439012975D969
S21400B2F060498B4276D001318B4275D001318B424A
S21400B30074D001318B426BD001318B426AD001314F
S21400B3108B4269D003318B4264D001318B4263D0BB
S21400B32001318B4262D001318B4208BF402615F4B2
S21400B3307C1FC5F305435BD1664514BF0020012082
S21400B3408BE7B4F1607F2BD14949D3B243F0007349
S21400B3508B426ED003F17E41043901296CD94549F0
S21400B3608B426FD001318B426FD001318B426FD050
S21400B37001318B4263D001318B4263D001318B4265
S21400B38063D003318B425DD001318B425DD00131F9
S21400B3908B425DD001318B4208BF4FF0400C9CE7DA
S21400B3A0B4F1707FC3D107F4E043B3F5005F05D175
S21400B3B04FF0010CC7F302230CFA03FC07F4E0433A
S21400B3C0B3F5005FB3D10126C7F302239E40AEE774
S21400B3D0B4F1707FABD1F1E71026A8E71426A6E7F4
S21400B3E04026A4E71C26A2E72026A0E730269EE7F4
S21400B3F012F47C1F01D1B34217D02A047FF52DAF7B
S21400B400634544E7B3F1106F11D125F01F6323F4B1
S21400B410702363B902F0FE43B3F1106F07D11648EC
S21400B420104040F01060A84287E7012015E7002092
S21400B43013E74FF0100C50E74FF0140C4DE74FF0A9
S21400B440400C4AE74FF01C0C47E74FF0200C44E74F
S21400B4504FF0300C41E700BF00FEFFFF0002000681
S21400B4600009000600040006FF0000020000C07F7E
S21400B47003000002080000020000FFF643680A46C8
S21400B4801B0A10B403D05DF8044B00F0C5BE438819
S21400B490B3B1018801F4E040B0F5805F02D0B0F5AA
S21400B4A0005F02D10733DB1009E047F2010081425A
S21400B4B00AD15B080133DB1003EBC3033B33136095
S21400B4C000205DF8044B704744F20100814202D12F
S21400B4D0DB081033F3E747F20200814204D1DB08B1
S21400B4E003EB43035A33EAE744F20200814204D1F5
S21400B4F0DB0803EB43034A33E1E721F0FF01B1F534
S21400B500E24FCFD0B1F5824F04D10733DB105B009A
S21400B5100133D4E76FF08500D3E77FB500F0FE4631
S21400B520B6F1106F0D4603D06FF0850004B070BD05
S21400B53020F01F6424F47024002CF5D10A9C029499
S21400B540099C0194089C009400F08AFF10F1860F75
S21400B550ECD16B681B0AE9D1E6E700002DE9F84359
S21400B560884617461C4601F051F8054600283FD18C
S21400B570D8F80060B6F8009009F4E043B3F5804FC1
S21400B580F36808BF27F0010737EA030328D17CB326
S21400B590224A24F4FF7323F0010393420BD0204B7E
S21400B5A024F0FF029A4206D01E4A24F47F7323F04A
S21400B5B0030393421FD114F0FF0304D01A4A43F04A
S21400B5C0007393421ED0224648463169FFF710FEAC
S21400B5D0074668B9224648467169FFF709FED0B9A2
S21400B5E06FF0840500233046C8F8003001F05CF8A0
S21400B5F02846BDE8F88304F0FE43B3F1407F04D14B
S21400B6002304E0D56FF08605ECE7B3F1A06FF7D022
S21400B610054B9C42D6E73D46EAE700BF000200061F
S21400B6200009000600040006FF00000238B5037992
S21400B63004460D4633B9A36820462B6001F034F863
S21400B64038B938BDD0E9081201F0F6F80028F2D073
S21400B650F7E700232B60F4E700F0FE43B3F1407FEA
S21400B66070B505460E4640F09980FFF7A1FD00280C
S21400B67040F0968015F47C1F05D0C5F30543032BD8
S21400B68013700DD86BE04C4B2B40B3F1607F69D143
S21400B6904A49EBB243F000738B4231D1102313704A
S21400B6A0454C2C40B4F1607F6AD14449EAB242F07E
S21400B6B000728A4275D002F17E410439012972D99E
S21400B6C03F498A4271D001318A4270D001318A42A4
S21400B6D06FD001318A4211D001318A4265D00131E2
S21400B6E08A4264D003318A425FD001318A425ED0FA
S21400B6F001318A425DD001318A424FD140214BE070
S21400B70003F17E410439012901D81423C7E72C49E7
S21400B7108B4201D11C23C2E72A498B4201D1202348
S21400B720BDE729498B4201D13023B8E727498B4230
S21400B73001D14023B3E726498B42EBD001318B423F
S21400B740EDD003318B42E5D001318B42E7D0013199
S21400B7508B42E9D001318B42EBD0002313706FF09F
S21400B76085001DE0B3F1707FF7D101F4E043B3F537
S21400B770005FF2D10123C1F302218B40DBB27EE7EA
S21400B780B4F1707F0AD106F4E042B2F5005F05D14D
S21400B7900121C6F3022291408B4201D96FF0860048
S21400B7A070BD1021F8E71421F6E71C21F4E72021EC
S21400B7B0F2E73021F0E700BF0000C07F0300000280
S21400B7C008000002090000020A0000020B00000246
S21400B7D00C0000022DE9F047174624220D460021F2
S21400B7E0044692B00DEB02009A46DDE91A868DF803
S21400B7F01F10DDF8709024F036FD1D9B2046002BB0
S21400B80018BF4FF480522B4608BF4FF4005208A9C9
S21400B810FFF7A4FE044620BBDDF820C009ACBCE858
S21400B8200F000FC49CE8070084E807002846BDF810
S21400B83024100DF11F02FFF70FFF044688B99DF88C
S21400B8401F30B34224D8CDE90339CDE901A80899C1
S21400B85000972B46D1E9081209A800F0AEFD044671
S21400B86020B10023C9F800608DF81F309DF81F0036
S21400B870B04204D2321A2121404424F0F4FC089845
S21400B88000F012FF002C18BF204612B0BDE8F0876B
S21400B8906FF08904E5E700232DE9F341D0E901685C
S21400B8A004460F4630461146136000F007FF054673
S21400B8B088B9304600F004FF054660B9F6B276B99E
S21400B8C0B8F1000F05D1E36823F47F4323F00303A8
