S0150000424C455F4465766963655F315F312E7333373D
S214006000C00A0020F5750000F1750000F17500006B
S21400601009A60000F1750000F1750000F17500009A
S214006020F1750000F1750000F1750000F1750000D3
S214006030F1750000C44603004B720000F1750000C5
S214006040F1750000F1750000F1750000F1750000B3
S214006050F1750000F1750000F1750000F1750000A3
S214006060F1750000F1750000F1750000F175000093
S21400607015B80000F1750000F1750000F17500001C
S214006080F1750000F1750000F1750000F175000073
S214006090F1750000B1790000F1750000F17500009F
S2140060A0F1750000D97A0000B57A0000F17500009D
S2140060B0F1750000C5F50200F175000085FF0200CD
S2140060C03DFF020039FF020091F7020081FF020047
S2140060D041FF020059FF020045FF0200E5FF0200F3
S2140060E099DA020061DC0200C5FF0200F1750000CB
S2140060F08DA40000F1750000F1750000F175000038
S214006100F1750000F1750000F1750000F1750000F2
S214006110F1750000F1750000F1750000F1750000E2
S214006120F1750000F1750000F1750000F1750000D2
S214006130F1750000F1750000F1750000F1750000C2
S21400614010B5054C237833B9044B13B1044800E06E
S21400615000BF0123237010BD701200200000000055
S214006160E494030008B5034B1BB10349034800E061
S21400617000BF08BD0000000074120020E494030075
S214006180A3F5803A704700BF174B002B08BF134B90
S2140061909D46FFF7F5FF00218B460F461348144A2D
S2140061A0121A2AF0BAFE0E4B002B00D098470D4B61
S2140061B0002B00D098470020002104000D000D4859
S2140061C0002802D00C4800E000BF2AF03BFE20006A
S2140061D0290000F055FF2AF021FE00BF000008004D
S2140061E00000000000000000C00A0020701200201E
S2140061F0A84F0020000000000000000007B505F0D2
S2140062006FF8030E8DF80430030C8DF80530030A82
S2140062108DF806308DF807000422002101AB2020FF
S2140062201DF0B2FA03B05DF804FB0000042310B1C1
S214006230024A13647047024AFBE700BF00D00340DF
S21400624000E00340024B9869C0F3C010704700BFDF
S2140062500000064070B5044679B168B1084E45188E
S21400626014F8011B304603F0ABFDAC42F8D1044AEB
S21400627093699B06FCD5012070BD0846FCE700BF6D
S2140062800000064000B591B002460B466846064937
S2140062902AF018FF68462AF082FF01466846FFF794
S2140062A0D9FF11B05DF804FB2842030070B5314DEC
S2140062B098B004AC0FCD0FC495E8070084E807003B
S2140062C004A92D48002403F089FC04F0C5FE0C2325
S2140062D0224640F2E671294D0093CDE9024401239F
S2140062E02748019405F040F8254805F0D7F82946D8
S2140062F0234805F08BF8286805F012F8234640F688
S214006300B831204ACDE900441F4804F07AFF012343
S21400631004221846022103F0F3F804221B4B1A64E9
S214006320012302221946184603F0EAF80BAA15467E
S214006330174B03F13006144618685968083303C42F
S214006340B3422246F7D11B78284623702AF027FF4F
S21400635001462846FFF77EFF012000F09BFE002343
S2140063600C480D490370437000F05EFE00F0E0FE3E
S21400637018B070BDC042030000000640EC130020B9
S214006380CC120020FD610000B012002000E00340A7
S2140063904B420300DC1200208562000070B5064602
S2140063A00F480C4603F0FCFC41B2002915DD0D4DEC
S2140063B0A1422A784FF0000407D10B4930468C548E
S2140063C02AF084FD01202C7070BD7E2A03D8064971
S2140063D0885401322A702046F6E70020F4E700BF12
S2140063E000000640DE120020DF12002030B5044612
S2140063F0A9B008AD8022002128462AF08EFD236829
S214006400594A23F47F4323F00703934200F0878022
S21400641009D8A2F5102293421ED002F5A02293427C
S2140064206FD029B030BD514A93426ED002F101724E
S2140064309342F6D1B4F805302A2BF2D12389DB0734
S21400644040F18E8000234FF49671CDE90033484A20
S214006450484804F0D6FEE4E70DF10B0104A81DF051
S214006460E7F99DF81530444D8DF818309DF8143036
S21400647008228DF819309DF8133000218DF81A3057
S214006480FF238DF81B30FE238DF81C309DF812304C
S21400649012208DF81D309DF8113000248DF81E3026
S2140064A09DF810308DF81F3006AB1DF06DF90DF11C
S2140064B00E0303AA00216FF01D001DF091F9284677
S2140064C01DF0CAF81E2200212C4B28781DF0FEF87D
S2140064D04FF47A7200942346114628781DF0D4F8BB
S2140064E00222042128781DF007F92146802224483C
S2140064F02AF013FD80222146214B23201DF044F96B
S2140065008FE701221F4B1A708BE700221D4B0421D8
S2140065101A70194B022218781DF0EEF881E7B4F8CD
S214006520050023280CD10021802206AB00951DF023
S214006530F9F828462AF033FE01462846FFF78AFE79
S214006540B4F8050020287FF46CAF04AB0093042257
S214006550002106AB1DF0E6F8049804F0E1FE60E7C3
S214006560044804F0CDFD5CE7A0000A00A000060188
S214006570CD6500008C120020C00A0020C10A002051
S214006580DF1200205F130020C3780B7043884B7027
S21400659003681B0A8B700368CB70C3790B71C388C2
S2140065A04B7143681B0A8B714368CB7183681B0A67
S2140065B00B7283684B72C37B8B72C389CB72C368C2
S2140065C01B0A0B73C3684B7370470000102110B58D
S2140065D00B4C88B022680DEB01000132226000F0FF
S2140065E075FD049B53B1694604A8FFF7CDFF0A4624
S2140065F02A200E211DF0DEF808B010BD2360FBE750
S21400660064130020F8B514461E4600F0FFFC05464D
S214006610B8B1214600F0FEFC074600F0FEFC04463A
S21400662050B13C6944B120462AF0B9FD21460246E5
S21400663030462AF04BFC0124284600F0BFFA2046DC
S214006640F8BD0446FBE70000F0B58BB005462AF01F
S214006650A6FD234A014602AB2846FFF7D3FF0446B1
S214006660074668B102A82AF0CDFB01228DF8040087
S2140066700021182001AB1DF087F820460BB0F0BDB6
S21400668028462AF08CFD174A014602AB2846FFF73B
S214006690B9FF0446064648B102A82AF0B3FB012219
S2140066A08DF8040039461A2001ABE4E728462AF0A4
S2140066B076FD0D4A014602AB2846FFF7A3FF0446C7
S2140066C00028DAD002A82AF09DFBC0F307238DF835
S2140066D004308DF8050002223146152001ABCAE7CA
S2140066E07C4203008842030091420300042213B553
S2140066F0044C01900DEB020120462AF0E7FB2046F1
S21400670002B010BD6813002082B08DED010A01981A
S21400671002B0704782B08DED010A019BC3F30722D9
S214006720180640EA024040EA1360C3F3074340EA13
S214006730032002B07047000038B53E4800F084FCE5
S2140067403D4B1878FFF772FDFFF77CFD002868D0F8
S2140067500A213A48FFF722FE012816D1802200219E
S2140067602320364B1DF010F83548FFF76DFF002844
S21400677051D134482AF013FD01463248FFF76AFD2E
S214006780802200212D482AF0C8FB04F0A9FD2E4CDB
S2140067902368C01A0A284BD904F0A2FD2B4D2060AE
S2140067A02946002000F08AFC00F0BCFC284C206043
S2140067B004F096FD4AF6FF2395ED000AA36060609C
S2140067C0FFF7A2FF1021E060204600F08FFC95ED59
S2140067D0000AFFF79FFFFFF789FF04220346002108
S2140067E026201CF0D1FF1B4B93ED000AB8EEC00A22
S2140067F0FFF790FFFFF77AFF0021034604222820C8
S2140068001CF0C2FF14482AF0CAFCBDE83840014616
S2140068101148FFF71FBD11482AF0C1FC01460F487A
S214006820ACE70F4B5B6C9B07AFD504F06FF8ACE79B
S21400683038BD00BFDC1200205F1300206C13002060
S214006840DF1200209642030060130020AC120020E6
S214006850F0130020A8120020A6420300A242030064
S21400686000C0034010B5044600F098FC022802D091
S214006870002000F06DFCA4F14403072B9DBF024BE3
S21400688001201C70002010BD0014002010B50B461F
S214006890054C014605482246007800F0B3FC2088E7
S2140068A040BA80B210BD00BF0114002000140020C2
S2140068B008B502210020FFF7E9FF00B229F096FD97
S2140068C000224FF07E5329F0FBFD2AF0BBF800EEC5
S2140068D0100A08BD002210B504461046A15CA1F1BE
S2140068E03003092B0BD8A0F13003032A01EB030079
S2140068F002F1010218BF0001042AEFD110BDA1F178
S2140069004103052B02D8A0F13703EEE7A1F161039E
S214006910052B02D8A0F15703E7E70020EEE70000BA
S2140069202DE9F84F0A688B6880465D1CD018D35C4A
S2140069308A46222B154440F0DD802F4600234C6803
S214006940B91AA14280F0D680397822290ED1C3F137
S2140069500103381ADAF810201844904783460028B6
S21400696000F0C8800446DFF898910FE05C2905D156
S2140069700137B91A8C4240F2BD8001330137DFE798
S2140069802B785C2B12D0013504F8013BBD42F7D3BF
S2140069900023237010230120C8E9033BDAF80030F7
S2140069A0FB1A0133CAF80830BDE8F88F7A1B002AB4
S2140069B00DDD6B78752B0AD86D2B12D8622B2BD079
S2140069C026D82F2B29D05C2B27D0222B25D0584613
S2140069D0DAF814309847DAF80000281ACAF80800DF
S2140069E08BE06E3B072BF2D801A151F823F000BFD5
S2140069F0256A0000CF690000CF690000CF6900005B
S214006A00296A0000CF6900002D6A0000316A000084
S214006A10662BDCD10C2300E0082304F8013B02239C
S214006A201D44B3E70A23F8E70D23F6E70923F4E746
S214006A30052ACCDDA81CFFF74DFFA0F55C43B3F597
S214006A40806F0646C3D3A0F55843B3F5806F2DD2AA
S214006A50AB1DFB1A052BBADDAB795C2BB7D1EB79F6
S214006A60752BB4D105F10800FFF734FFA0F55C43A1
S214006A70B3F5806FABD20C2309EA8626C0F3090073
S214006A80304300F580364FF0F00C042000F1FF3E56
S214006A9054FA8EFEA645F2B224D1012814BF4CEA61
S214006AA0020202F07F0222700444B9E77F280AD966
S214006AB0B0F5006F0CD3B0F5803F0ED3B0F5881F4D
S214006AC085D20623DFE706234FF0000C0120DDE722
S214006AD006234FF0C00C0220D8E706234FF0E00C48
S214006AE00320D3E702F03F0262F07F010EF801199F
S214006AF0B609CFE7002D7FF46EAF002054E700BF45
S214006B0000FC0F0010B528B1016889B1D0E9013248
S214006B109A4202D310BD013282608268934203D942
S214006B208C5C202CF7D9F5E7F4D1013B8360F1E7C4
S214006B300846EFE7F8B50D4660B359B38468FAB96E
S214006B40174E3CB3236AC3B1AB4221D005F1FF3CDC
S214006B50013B1CF8011F0F468A5D02F00302012A62
S214006B6013F8012F08BF01F12007B05C00F0030006
S214006B70012808BF203297420FD02468E1E7246836
S214006B8044B1216A21B128462AF0FFFA0028F6D13E
S214006B90236A03B900242046F8BD0029D9D1F7E7B7
S214006BA0B1900300034610B528209847044618B154
S214006BB0282200212AF0B1F9204610BD70B50446FF
S214006BC00F4D04B970BDE3682668D90503D4A068E4
S214006BD068B9206988B9E3689B0503D4206A08B1C0
S214006BE06B68984720466B6898473446E9E7FFF796
S214006BF0E5FFE368DA05ECD5EDE76B689847EAE76A
S214006C00E00A0020000000002DE9F04306460C468E
S214006C1093B009B9002024E008680028FAD08B68F1
S214006C206268191D91420BD80422974918442AF02D
S214006C30BEFA28B90423F360A3680433A3608AE08D
S214006C40A3686268591D91420ED8206805228F49B4
S214006C5018442AF0ACFA38B90120A268F060053270
S214006C60A26013B0BDE8F083A3686268191D914264
S214006C700DD820680422864918442AF098FA30B9BC
S214006C8002230120A268F36070610432E8E7D4E9C9
S214006C9001038342BED22168CA5CCF18222A06D1DD
S214006CA02146304613B0BDE8F043FFF739BE2D2A23
S214006CB003D0A2F13005092D62D8002201920029E6
S214006CC0A8D002A90D464FF02E0EC31A17F8010BD6
S214006CD0392810D82A281BD9A0F12B0CBCF10E0F8E
S214006CE016D8DFE80CF00D150D3A150D0D0D0D0D2F
S214006CF00D0D0D0D0D0000F0DF0CBCF1450F07D19A
S214006D00087001323F2A01F1010101D09A42DDD11B
S214006D1012AB1A440023284602F8403C01A92BF087
S214006D2079F8019F59EC108BAF423FF473AF54A330
S214006D30D3E9002386ED060B10EE100A494629F02B
S214006D4045FE68B16FF00043736108237D1BA7689A
S214006D50F3603D44A560012083E781F800E0D0E7BA
S214006D600022404649464B4B29F026FE10B14FF014
S214006D700043E9E74046494629F03CFE7061E4E7F7
S214006D805B2A54D1E268B2F57A7FBFF443AF013292
S214006D90E260CA5C5B2A7FF43DAF0133A360204605
S214006DA0FFF7B0FED4E90123934264D22268D25C96
S214006DB05D2A0CD100252F46E368013BE36007B14E
S214006DC07D602023C6E90273A368013336E70025F9
S214006DD02F46013BA3602069FFF7E4FEA846054660
S214006DE0002800F09E8007B3C8F80000C0F80480B2
S214006DF0A36820460133A360FFF784FE2146284699
S214006E00FFF702FF002800F08F802046FFF77AFE8B
S214006E10D4E90123934280F087802268D35C2C2B30
S214006E20D9D05D2B40F08080C6E70746E0E77B2A96
S214006E307FF4F0AEE268B2F57A7FBFF4EBAE0132D3
S214006E40E260CA5C7B2A7FF4E5AE0133A36020468D
S214006E50FFF758FED4E9012393420CD22268D25C95
S214006E607D2A19D100252F46E368013BE36007B170
S214006E707D604023A6E7013BA360CBE6AFF300802E
S214006E800000C0FFFFFFDF41DC420300E1420300D9
S214006E90E74203000000E0C100252F46A846013B5C
S214006EA0A3602069FFF77EFEA9460546002838D075
S214006EB0AFB3C9F80000C0F80490A36820460133B9
S214006EC0A360FFF71FFE21462846FFF729FD58B3AB
S214006ED02046FFF717FE2B69C5F810802B62D4E911
S214006EE00123934220D22268D25C3A2A1CD1013375
S214006EF02046A360FFF706FE21462846FFF784FEDD
S214006F0090B12046FFF7FEFDD4E9012393420BD251
S214006F102268D35C2C2BC4D07D2B05D1A4E7074672
S214006F20CBE7002F3FF476AE3846FFF747FE71E614
S214006F302DE9F04305464FF0000989B0304F0C4666
S214006F40164600211C2201A8984629F0E6FFC7E94C
S214006F500099002D4AD0002C3DD02A4BCDE9015493
S214006F6093E8070008AB03E90700FFF71BFE04469B
S214006F70002830D0019828B1039BE3B9029B042B6C
S214006F800FD801A8FFF7BEFD01462046FFF73CFEDE
S214006F90F0B1B8F1000F10D156BB204609B0BDE8DD
S214006FA0F083032218492AF002F90028E9D1039B4E
S214006FB003330393E5E74846E4E701A8FFF7A2FD9D
S214006FC0DDE90223934203D2019AD35C002BE3D07F
S214006FD02046FFF7F3FDDDE902329A420DD303B1F6
S214006FE0013B0EB1EA183260C7E900530024D4E72B
S214006FF0019B039A13443360CFE71346F1E700BFC3
S21400700004140020E00A0020FE42030000231A4673
S214007010FFF78EBF0122FFF78DBD20B1007BA0F1E8
S214007020100358425841704710B50C46012341786A
S2140070300222007802F064FA0CB1024B1C600120B8
S21400704010BD00BF0C1400200C4B10B41A688AB197
S214007050047841783023142013FB040303F18043A3
S21400706003F570331B68CB40DB0703D420465DF87E
S214007070044B10475DF8044B704700BF0C1400200B
S21400708008B504F0E4FBFFF711F904F0EDFBFFF799
S21400709053FBFAE710B504460120074A8442106005
S2140070A005D008D9A01E012805D9002003E04820F5
S2140070B0FFF7D8FB204610BD5033002010B50C4615
S2140070C0FFF7F6FB012084ED000A10BD10B514464C
S2140070D038B139B10A46044901EB041129F0F6FE2D
S2140070E0012010BD0846FCE7101400200A4638B5FB
S2140070F080B181B1094C01462568094800EB0510AE
S21400710029F0E4FE012023680133B3F5FA7F34BF8B
S2140071102360206038BD0846FCE700BF50330020DF
S21400712010140020014B1868704700BF5033002031
S2140071304FF4FA710022054B0139C3E90022C3E976
S214007140022203F11003F7D101207047101400202B
S21400715030B585B06D460D4B04460FCB85E80F0065
S21400716002220B4B1A6034B1012C0BD000226FF0B8
S21400717003001A6004E02946064802F049FA012096
S21400718005B030BD29460448F7E700BF04430300B6
S214007190543300200000014A00800640014B186866
S2140071A0704700BF5433002030B5400087B0ADF8BC
S2140071B00400042004939DF82830ADF806000291E0
S2140071C00DEB00010D48ADF80C20ADF8143002F0C0
S2140071D05DFB0B4C094D012809D1013C03D16FF032
S2140071E0030007B030BD284602F034FAF3E7002863
S2140071F014BF6FF003000120F3E700BF0000014A50
S214007200E19304001FB58DF80F1000930DF10F01E8
S21400721013460122FFF7C8FF05B05DF804FB08B56A
S21400722008F05EFC0AF031F90FF086FD0CF0C9FAA2
S214007230BDE8084010F000BB08B514F07BF81BF062
S214007240FAFABDE8084014F0AFBC08F0D1BA000066
S21400725008B50548FFF7F0FF034808F077F8BDE8E3
S2140072600840024808F0A2B87846030058460300D3
S2140072700120704700B5C3B008F0D2F908F0FBF95A
S21400728048B1FFF7F5FF30B101A81CF0DEF910B9E0
S21400729001A8FFF7ABF843B05DF804FB08B5012082
S2140072A000F0E6F8202000F0E3F8BDE808404020B3
S2140072B000F0DEB808B50321802001F0F5FC0321BC
S2140072C04FF4806001F0F0FC03214FF4906001F071
S2140072D0EBFC08214FF4C06001F0E6FC08214FF4F7
S2140072E0F06001F0E1FC08213E2001F0DDFC082101
S2140072F02D2001F0D9FC002008BD000008B5174B72
S2140073001B68C3F30743012B0ED1154B04205A6E9E
S2140073104FF480231349520358BF134A4B6601F5B6
S2140073201041086258BF536602F0BAFE00F0C9F872
S21400733002F036FE02F0D2FE02F054FE02F090FE9C
S21400734002F094FEFFF7B6FF02F03AFE00F0AEF849
S21400735000F0D4FBBDE8084003F0E8B90080E00F79
S214007360008000400090004000A0004008B500F0FB
S21400737077FB00F01FF8BDE8084000F067B808B5D6
S21400738000F074F803F068FE02F0AAFE06F0FBFDBB
S214007390BDE8084003F08EB808B502F0F5FDBDE87C
S2140073A00840FFF755BF704770477047FFF762BF4A
S2140073B07047000008B53A20012101F00FF9BDE83A
S2140073C00840014800F0B0B91C0C002001207047AE
S2140073D00120704710B508F08FF90446FFF7F6FF56
S2140073E0002814BF2046002010BD38B503F090FBDF
S2140073F0044608F08FF9042817D002284FF000053D
S21400740008BF012400F03EFF042810D0022808BF61
S2140074100124FFF7DDFF04280BD0022808BF012453
S214007420002D18BF0024204638BD0125EAE70125B7
S214007430EFE70024F7E7000018B1034B18600020C0
S21400744070472520704700BFB433002010B5054CA8
S2140074500549206800F014FE2068BDE81040FFF7DC
S214007460EBBF00BF540C0020300C00200F207047EC
S214007470082808B50DD004DC0138012809D90E20EB
S21400748013E020280AD04028F9D100230422194608
S21400749002E0042200231146184603E004220023DB
S2140074A01146012002F02CF8002008BD08B5012185
S2140074B03A2001F093F8FFF7F1FEBDE8084000F02F
S2140074C005B801213A2001F089B800002DE9F047FF
S2140074D0434D88B001AC0FCD0FC495E807000125D9
S2140074E084E8070001213A2001F078F8DFF8FC80F4
S2140074F00121282001F072F83A4B404601A9039377
S2140075008DF8125002F0ECFB2B46042200210220DC
S21400751001F0F6FF2A4629460023022001F0F0FF7C
S21400752002212B460846042201F0EAFF042203212A
S2140075302B46022001F0E4FF4FF002132A4C0226ED
S214007540C4F83036A3F58033C4F82C361C2308273D
S214007550C4F8346604F5005AC4F81C364FF4487074
S21400756004F08EF904F580591420CAF8707004F0FF
S21400757087F92320C9F8707004F082F9B9214046D3
S214007580CAF8707002F012FC002330461A461946FC
S214007590C9F8707001F0B4FF002329461A46304639
S2140075A001F0AEFF2B4631463046002201F0A8FF20
S2140075B02B4600220321304601F0A2FF404602F08F
S2140075C0DFFA00212820C4F83016C4F82C16C4F8B8
S2140075D03416C4F81C1601F001F808B0BDE8F087B0
S2140075E0A846030000127A0000C0034000C0054011
S2140075F0FEE7000008B500F013F8064B064A0749F8
S2140076008B4201D3FEF7C0FD52F8040B43F8040B7F
S214007610F6E700BFC00A0020EC94030070120020BA
S214007620044B054A9A60D3F8882042F47002C3F8E7
S2140076308820704700ED00E000600000014B1868ED
S214007640704700BF5C0D0020084B1B6F03F007035C
S214007650022B04D0032B05D0012B05D0FEE7044BEC
S21400766018687047034BFBE70348704700800040EC
S2140076705C0D0020600D0020002D310108B5FFF7DD
S214007680E3FF054B1B6FC3F303330133B0FBF3F08B
S214007690024B186008BD00BF00800040580D002057
S2140076A00048704700B4C404014B1868704700BF18
S2140076B0600D0020054B1860054B1B6F03F0070399
S2140076C0032B01D1FFF7DABF704700BF600D002023
S2140076D0008000400020704700487047002D3101B0
S2140076E04FF4004070474FF47A707047014B1868AB
S2140076F0704700BF640D00200023036070470368D6
S2140077000B6001607047000005490A6813180548B9
S21400771083428CBF4FF0FF320B601046704700BFAD
S214007720680D0020008000202DE9FF410368374ADD
S2140077300446934204D0364A934251D12F2000E0AB
S2140077402E20012100F04AFF01230A2261792079C8
S21400775001F0D6FE01230A22E179A07901F0D0FEDD
S214007760092601272B4D4FF0300842F210032279EC
S214007770617908FB025207FA01F1D150642004F047
S2140077807FF841F210012379627908FB035307FA68
S21400779002F264205A5004F073F8013EE3D12068E8
S2140077A01A4B98421FD10323C5F890346279237987
S2140077B043EA0243C5F89434E279A37943EA0243E4
S2140077C0C5F8983440F20113ADF80030E368694616
S2140077D00293A3680193237C8DF80C3001F018FF08
S2140077E004B0BDE8F0810A4B9842EBD10323C5F8FC
S2140077F0A0346279237943EA0243C5F8A434E279D7
S214007800A37943EA0243C5F8A834DBE70000014A3F
S2140078100080064000C0034038B5124B05461B7872
S214007820DBB1E0B101F0EFFB0F4A00231146147BF9
S21400783054B92B6001251A0101EB03131D738C50FC
S21400784001F0E7FB204638BD0133082B02F1100299
S214007850EDD101F0DEFB0548F5E70548F3E70548FE
S214007860F1E700BF38350020B8330020048000F070
S214007870028000F0018000F0154B13B51868002355
S21400788001908DF8043001F0BEFB124B1C7824B139
S21400789001F0BFFB104802B010BD01221A7001F0C3
S2140078A0B8FB0E4B01A81C731C7783F82C4083F89A
S2140078B03C4083F84C4083F85C4083F86C4083F887
S2140078C07C4008238DF8073002F032F82046E2E7C5
S2140078D00447030038350020038000F0B83300204A
S2140078E00A4A08B512785AB107280BD8084A02EB9C
S2140078F000131B7B43B1002102F00CF8002008BDEA
S2140079000448FCE70448FAE70448F8E7383500205E
S214007910B8330020028000F0018000F0078000F0FD
S2140079200A4A08B512785AB107280BD8084A02EB5B
S21400793000131B7B43B1012101F0ECFF002008BDC2
S2140079400448FCE70448FAE70448F8E7383500201E
S214007950B8330020028000F0018000F0078000F0BD
S2140079600D4B1B7893B1072812D889B10B4B03EB4C
S21400797000131B7B73B10A4BDA6A012303FA00F08B
S21400798010401ABF00200B700870704705487047FB
S214007990054870470548704738350020B833002042
S2140079A000000440028000F0018000F0078000F034
S2140079B02DE9F843174B1F6D5B6D1F4000D5FEE7A2
S2140079C001260025144CDFF85480DFF85490374227
S2140079D017D02368C8F850609BB1A16828460131CB
S2140079E06268A1609847637B012B0AD148B909EB0E
S2140079F045131A7B60F341021A731A7F60F3410243
S214007A001A770135082D4FEA460604F11004DED138
S214007A10BDE8F88300000440B8330020002004408E
S214007A203834002070B5044601250C4E04B970BDEC
S214007A3094FAA4F3B3FA83F305FA03F206EB031100
S214007A4024EA02044A68002AF0D0D8B20B7B13B1AD
S214007A5089689047EAE79047E8E700BF3C35002092
S214007A6008B5192001F0D8FA28B14FF00072074B7C
S214007A70C3F880211A601A2001F0CEFA28B14FF020
S214007A808062024BC3F880211A6008BD00E100E066
S214007A9038B505460C4601F0B6FA0022044B03EB57
S214007AA005135C601A73BDE8384001F0B2BA00BF37
S214007AB03C350020074BD3F82404D3F8202403F5E4
S214007AC00053104000F0553020F05020C3F820043A
S214007AD0FFF7A8BF00C00340074BD3F82404D3F831
S214007AE0202403F50053104000F0AA3020F0A02018
S214007AF0C3F82004FFF796BF00C00340024B196886
S214007B00024B186820F0A6BE700D00206C0D0020F9
S214007B107047000037B5920004460D4601922CF0DF
S214007B206BFB431C0BD060B929462046019A29F00E
S214007B30BDF90028044808BF002003B030BD034844
S214007B40FBE70348F9E700BF10E000F021E000F093
S214007B5024E000F013B5044601A801F0AFFF9DF83D
S214007B600630012223804FF4807300206380054B8B
S214007B709B680A3303F01F0302FA03F3636002B044
S214007B8010BD00BF0080E00F01F014BF08B501F083
S214007B9001FF002008BD10B5044644EA010313F0B7
S214007BA00303084609D1934201D1002010BD54F8C2
S214007BB0231040F823100133F5E72146920029F000
S214007BC085F9F2E710B504462CF01EFB431C15D0D1
S214007BD0B0B90C4B20469B680A3303F01F02012302
S214007BE0934023F003032344984201D1002010BDA4
S214007BF050F8042B0132F7D00348F8E70348F6E7BD
S214007C000348F4E70080E00F0EE000F021E000F00B
S214007C1024E000F008B501F0EFF9014B186008BD4C
S214007C20D03D0020014B186801F0EAB9D03D002095
S214007C300A460139014402F097BC000038B141B150
S214007C40013AB2F5006F044838BF00207047034879
S214007C5070470148704700BF037000F0027000F0E4
S214007C6090F83530022B0BD13023427F90F821005C
S214007C705A43044B9B5823FA00F000F0010070476B
S214007C800020704714C00340002313B51D4A52F865
S214007C90044B94F8211081420ED00133042BF6D108
S214007CA002B010BD0028FBD19DF80730002BF7D09E
S214007CB0A068FFF715FEF3E794F83530022BEFD1F6
S214007CC02046FFF7CDFF637E2076022BE8D194F89E
S214007CD0323003F0FF02002BE2D1A0680DF107015D
S214007CE08DF80720FFF73CFE237E1BB194F8333057
S214007CF0002BD7D00023A06884F83330FFF710FE9F
S214007D00CEE700BF843E0020104930B50B78104AFD
S214007D102BB9C2E90033C2E9023301230B700C4CC5
S214007D200023214651F8045B854208D00133042B1A
S214007D30F8D1002154F8043B1BB942F8210000207A
S214007D4003E001310429F5D1024830BD943E0020FD
S214007D50843E0020027000F010B50446FFF78CFD4C
S214007D60002104F10800FFF757FD014620B904F191
S214007D700C00FFF751FD00B1004810BD0E7000F07A
S214007D8008B590F8363083B9042203685A619A69B8
S214007D909207FCD541F21C62102103795B0103F1C6
S214007DA0804303F57033995008BD022BFCD1006860
S214007DB0036CDB074CBF0521062101F02DFB0222D8
S214007DC0014BC3F8C020EFE700D403401FB50446BC
S214007DD00B46C07EE17F002B39D00123042201F040
S214007DE08FFB0123022294F82010207F01F088FBED
S214007DF094F83530022B19D10023012294F8211073
S214007E00607F01F07DFB0023042294F82210A07FFF
S214007E1001F076FB012394F8212001931146607F40
S214007E20009301F015FB002004B010BD032BFAD11F
S214007E300023012294F82110607F01F061FB0023EB
S214007E40042294F82210A07F01F05AFBEBE71A46B2
S214007E50039301F055FB039B94F820101A46207FED
S214007E6001F04EFB94F83520039B022A12D11A46E5
S214007E7094F82110607F01F043FB039B94F82210D6
S214007E801A46A07F01F03CFB039B94F82120019347
S214007E900123C3E7032AC6D11A4694F82110607F4F
S214007EA0039301F02DFB039B1A46CAE7F8B5054677
S214007EB00E461746FFF7C2FE002868D1152001F0CF
S214007EC0B9F80446EA6A93889BB213B195F8323043
S214007ED0E3B195F83630F3B92B689C6904F00204D8
S214007EE01CB92846FFF74CFF0024012385F83430E0
S214007EF095F83630CBB93744BE42286810D183692E
S214007F009A06FCD51CB300242046F8BD002CDAD017
S214007F10FFF74EFDD6E7022BE3D12B681C6CDDE79E
S214007F2016F8011B01F04CFFE6E7022BEAD13744B6
S214007F30B742286806D142F22003026C33EA0202F6
S214007F40FBD1DFE716F8011B01F06BFAF0E795F8B6
S214007F5036306BB942F21C6210212B795B0103F1BB
S214007F60804303F57033995008222B685A61CBE79B
S214007F70022BC9D12868036CDB074CBF09212146B8
S214007F8001F04AFA0222034BC3F8C020BCE70446BD
S214007F90BAE700BF00E4034010B5044680B190F88D
S214007FA032302BB9FFF75CFE10B9A068FFF798FCDB
S214007FB0002094F832300133DBB284F8323010BD42
S214007FC00048FCE7027000F010B50446A0B190F837
S214007FD032309BB190F83230012B05D1FFF740FECE
S214007FE010B9A068FFF79CFC002094F83230013BE3
S214007FF0DBB284F8323010BD0148FCE70148FAE7EE
S214008000027000F0057000F037B590F83550044661
S214008010022D1DD1012290F82230457E817F9A40A4
S2140080203020164B25B900FB013342F2100105E063
S214008030012D07D100FB013341F210015A500020F8
S21400804003B030BD247E00FB0133002CF4D1ECE7F6
S214008050012DF4D1037E73B911238DF80730FFF795
S2140080609BFF2A4620460DF10701FFF71FFF20461B
S214008070FFF7AAFFE3E71323EFE700BF00C00340C4
S2140080802DE9F0410446764F88B001AE0D460FCF7D
S2140080900FC697E8070086E80700002C00F0DE8091
S2140080A025B9704E304608B0BDE8F0815C2200214C
S2140080B0204628F032FF00232046A363FFF724FE65
S2140080C006460028EED12B7D84F835302B6884F8E0
S2140080D0360023602A7B2271012284F83C20624A03
S2140080E0934240F09F802823A384604B23614FF483
S2140080F0802300266361D5E90723A2621680568096
S214008100968084F83060E3621E805E809E806B6896
S21400811084F831600393EB8984F83360ADF814304B
S2140081202B8A0121ADF81230AB7C3A208DF8103046
S214008130EB7CDFF84C818DF8163005238DF8113076
S21400814000F04CFA0121A08C00F048FA286801A93A
S2140081508DF8046001F042FD14222B7B08EB4313DC
S214008160C3F81C262E7AA87A46EA0042C3F83426BC
S214008170697AEA7A41EA0247C3F82C76E676E0772F
S214008180217784F820206B7D01216377AB7D204624
S21400819084F82130EB7DA3772B7E84F82230FFF71E
S2140081A015FE064600287FF47DAF00F02CFF2B7DE1
S2140081B00746032B41D141F21C6202212B7B08EBC0
S2140081C0431848F8021004212A685B0102F5805221
S2140081D0D165297EEA7D03F1804342EA014203F538
S2140081E07433C3F82826A97D6A7D42EA0142C3F8A3
S2140081F024264FF0FF32286800F500539A642B7D42
S214008200032B0CBF0521042101F0AAFC4FF44062A9
S2140082102B6820465A61FFF79FFD0646384600F059
S214008220F8FE3FE7124A93427FF43BAF2923A3842C
S214008230104B23614FF4A0235BE7022BD9D194F8AF
S21400824021000D49FFF724FCFFF70AFC4FF40073EA
S21400825020462383A676FFF7D7FECAE7074E21E718
S2140082602C470300037000F000C005400200040025
S2140082700000064002000500897C0000027000F045
S21400828000C003400B4B30B51B788BB10120002398
S2140082900546094951F8042B32B192F83C40022CAD
S2140082A004BF204682F83C500133042BF2D130BD87
S2140082B00120FCE7943E0020843E00204FF040233F
S2140082C0D3F88420D206FBD4D3F88400C0F3811000
S2140082D07047000038B5104B0546D3F820310C46E1
S2140082E003F00303022B0BD0032B0DD0012B0FD171
S2140082F0FFF7A4F9052305B1286004B1237038BD43
S214008300FFF7D2F90323F6E7FFF7E6F90223F2E7D1
S21400831000231846EFE700BF0080004073B50D4607
S21400832000210E4B0191D3F88041064604F0030469
S214008330012C09D0022C0CD00C460EB1019B3360E8
S21400834005B12C7002B070BD01A8FFF7C3FF0F2463
S214008350F3E7FFF7C1F90190EFE700BF00800040A8
S21400836038B5174B0546D3F824310C4603F00703FF
S214008370013B052B20D8DFE803F0030F171B0B1378
S214008380FFF75CF9052305B1286004B1237038BDFA
S214008390FFF754F90623F6E7FFF786F90323F2E71B
S2140083A0FFF782F90423EEE7FFF796F90223EAE7E0
S2140083B0FFF790F90723E6E700231846E3E700BF38
S2140083C00080004038B5104B0546D3F840310C46C7
S2140083D003F00303022B0BD0032B0DD0012B0FD180
S2140083E0FFF77EF9092305B1286004B1237038BD74
S2140083F0FFF77CF90823F6E7FFF775F90B23F2E79A
S21400840000231846EFE700BF0080004038B5134B46
S2140084100546D3F800320C4603F00703013B032B56
S21400842018D8DFE803F0020A0E12FFF759F90923FD
S21400843005B1286004B1237038BDFFF757F908234B
S214008440F6E7FFF750F90B23F2E7FFF717F90E23CD
S214008450800AEDE700231846EAE700BF00800040E8
S21400846038B5104B0546D3F840320C4603F00303EC
S214008470022B0BD0032B0DD0012B0FD1FFF730F9B9
S214008480092305B1286004B1237038BDFFF72EF923
S2140084900823F6E7FFF727F90B23F2E70023184631
S2140084A0EFE700BF0080004038B5104B0546D3F814
S2140084B060310C4603F00303022B0BD0032B0DD0C8
S2140084C0012B0FD1FFF70CF9092305B1286004B181
S2140084D0237038BDFFF70AF90823F6E7FFF703F91C
S2140084E00B23F2E700231846EFE700BF00800040AA
S2140084F010B40D4C0B46D4F8204204F00304012CB3
S2140085000AD0022C0CD008B1002101600BB1002269
S2140085101A705DF8044B70475DF8044BFFF7DABE3F
S2140085205DF8044BFFF74EBF00800040B0F5207F9B
S2140085301FD009D8B0F5007F15D003D868B1B0F5C4
S214008540C07F0AD000200CE0B0F5607FFAD10B4B5C
S214008550D3F88000C0F3011003E0084B186FC0F397
S214008560033001307047054BD3F89000C0F3046029
S214008570F7E7024B186FC0F38020F2E70080004058
S2140085804FF4003238B50E4B05469A660020FFF7CA
S214008590CDFF41F671320B4B6843DC690A4DDA6356
S2140085A09A68A84204F4803422F4401203D90129C0
S2140085B018BF42F480129A600CB10022DA6338BD0C
S2140085C00090004000000340005A620208B5FFF722
S2140085D067F8BDE808400021FFF7D2BF420910B592
S2140085E010D0012A10D00B4B0B4C022A18BF234682
S2140085F000F01F0051B103F58053012202FA00F08B
S214008600186010BD1346F3E7044BF1E703F500537B
S214008610F3E700BF6880004060820040648000404E
S2140086201FB5002380280446029372D02BD800285A
S21400863073D0A0F12004A3B2412B32D8412C30D8FD
S214008640DFE804F06B6E6B6E7D7D7D7D6E6E873C25
S2140086509E623C6E6E6E2F2F2F2F2F2F82546E6EC3
S2140086606EA8A36E2F2F2F2F2F2F2F2F2F2F2F2FAA
S2140086702F6B2F6B6B6B7D2F2F2F2F2F2F2F2F2FC7
S2140086802F2F2F2F6B6BB0F5806F58D021D8B0F5F9
S214008690007F4FD008D8B0F5807F5FD0B0F5C07FA0
S2140086A03BD0029804B010BDB0F5607F42D0F8D839
S2140086B0B0F5207F34D0B0F5407FF2D1FEF7DEFF74
S2140086C002464FF42070FFF731FFB2FBF0F040088F
S2140086D021E0B0F5C06F53D00DD8B0F5A06F33D001
S2140086E0B0F5B06F35D0B0F5906FDAD1002102A8A2
S2140086F0FFF736FED5E7B0F5E06F46D0B0F5F06F81
S21400870048D0B0F5D06FCCD1002102A8FFF77EFE8E
S214008710C7E7FEF799FF0290C3E7FEF7AFFFFAE759
S214008720FEF7ACFF02464FF42070FFF7FFFEB2FBE9
S214008730F0F0F0E7FEF788FF02462046F5E7002156
S21400874002A8FFF7C7FDACE7002102A8FFF7D0FE9E
S214008750A7E7002102A8FFF7E1FDA2E703934FF089
S214008760E0231B695B0705D5FEF788FF0390039B94
S214008770029396E70DF1070103A8FFF723FEF6E73D
S214008780002102A8FFF71EFE8BE7002102A8FFF7D4
S21400879067FE86E7002102A8FFF786FE81E7000055
S2140087A008B58020FFF73CFF034B98429EBF4FF46E
S2140087B08032024B1A6708BD005A620200A00040D1
S2140087C0002307B5B0F5807F8DF802307FD02AD819
S2140087D0382800F0A0800CD8243883B2092B10D893
S2140087E009280ED8DFE800F06D6D6D6D0D0D670D74
S2140087F03987522865D009D83D283ED03E2800F05B
S21400880090809DF8020003B05DF804FB8028F8D144
S214008810474B1B6F03F00703013B032BF1D8DFE840
S21400882003F048444276B0F5D06F64D01BD8B0F55C
S214008830A06F70D00BD8B0F5806F42D0B0F5906FB7
S214008840DFD100200DF10201FFF78AFDD9E7B0F570
S214008850B06F30D0B0F5C06FD3D100200DF102015B
S214008860FFF7B0FDCDE7B0F5006FEAD00BD8B0F556
S214008870E06F56D0B0F5F06FC3D100200DF10201C5
S214008880FFF712FEBDE7B0F5086FBAD1284BD3F854
S214008890003103F00303022B33D0032B35D0012B1A
S2140088A037D1FEF701FF032300E005238DF80230E1
S2140088B0A7E70223FAE700200DF10201FFF72EFDDD
S2140088C09FE700200DF10201FFF704FD99E70193F1
S2140088D04FF0E0231B695B0707D5FEF7CFFE0C239E
S2140088E08DF803309DF80330E0E70DF1030101A891
S2140088F0FFF768FDF6E700200DF10201FFF786FDA1
S2140089007FE7FEF7F3FE0823D0E7FEF7E3FE072334
S214008910CCE70123CAE700200DF10201FFF7E8FDCE
S2140089206FE700200DF10201FFF79AFD69E700BF2F
S2140089300080004008B5FFF743FF082812D009382A
S214008940C0B2012811D84FF40012094B4FF6FF7041
S2140089505A6603F5D8335B6A13F0010F18BF4FF45D
S214008960FA7008BD034B1888FBE74FF6FF70F8E770
S21400897000900040900D002070B504468020FFF760
S2140089801FFF03287CD04FF40022424B42495A6610
S21400899045F60E030222C1F88030404B9A6201224F
S2140089A003F580539A628A6D12F48032FBD16378A5
S2140089B020781B0543EA0063A079257C0343E07812
S2140089C0667C43EA0043207943EA0033607943EA51
S2140089D080130B618B69E07A03F000430343E07970
S2140089E043EA8063207A43EA0063607A43EA0043FE
S2140089F0A07A43EA00238B61637B096A002B18BFC9
S214008A000822207B21F00D0143EA010343EA80039C
S214008A1042EA0302204B1A62A27B4FEA421230D18E
S214008A20986AE17B20F0330042EA0112024342F0EA
S214008A3001029A621A4A996D32EA0101FBD10222BA
S214008A4016498A621A659A6D5200FCD41869A27893
S214008A5020F4700040EA02504FF0004218610F4BBD
S214008A609A611DB9022203F580539A6216B9012253
S214008A700C4B9A62A37C1BB1074B0B4AC3F88020B1
S214008A8070BD996A21F0330131430A4342EA450238
S214008A90EFE700BF0090004000C0004000D000405C
S214008AA00300014000E00040F1A7FFFF014B93F9EF
S214008AB000007047953E0020F0B54FF480061B4A34
S214008AC041788478C378057856664FF4D1560227E5
S214008AD002F5B8325662164E4F2977604FF00107FE
S214008AE028BF4F2106F5805677601669F603FCD43A
S214008AF041EA052151611B01417943EA04230B43F6
S214008B00017943EA41039360C37981791B0143EA03
S214008B104113417A0B43017A43EA41035360837A57
S214008B2013B16FF4D1535362F0BD00BF0090004004
S214008B3000100240014B1880704700BF900D0020C7
S214008B404FF4001208B5184B5A660223174A5360B2
S214008B50936813F48033FBD1012822D1FEF7A4FDDD
S214008B60134B984215D003F5122303F5F863984289
S214008B7013D0104B00EB8002400AB3FBF0F0520A11
S214008B800A4BDA62012218635A620022074B5A60C7
S214008B9008BD45F67A10084AF2E745F61A00074A75
S214008BA0EEE75362F1E700BF00900040004002404D
S214008BB000F0490264666666D8B80500BBCF0500BB
S214008BC00029CCBF01210021FFF7DABCB0F5207FD9
S214008BD010B50C4642D008D8B0F5007F33D003D885
S214008BE088B1B0F5C07F0ED010BDB0F5607FFBD168
S214008BF01F4B013CD3F8801021F0300141EA0414E9
S214008C00C3F88040F0E7FFF7E1FC00F035F84FF4DA
S214008C108031184A164B1167196F013C21F47041D8
S214008C2041EA04341C67FEF729FD0446FFF746FBBD
S214008C30C0F102012046FFF7C3FF00F023F8BDE8AD
S214008C401040FFF7ADBD0A4B013CD3F8901021F061
S214008C50F85141EA0464C3F89040C5E7044B013C70
S214008C60196F21F4806141EA84241C67BCE700BFC9
S214008C70008000400090004002214FF42070FFF773
S214008C80A5BF000008B54FF4C070FFF7C9FCBDE8EB
S214008C900840044988428CBF022101214FF420700D
S214008CA0FFF794BF80F0FA02B0F5807F70B50C46EF
S214008CB000F0FE802AD8382800F0528111D82438D7
S214008CC083B2092B16D8092814D8DFE810F0E00084
S214008CD0E000E000E00013001300D100130048009D
S214008CE03801522800F0D38005D83D2853D03E28BE
S214008CF000F0478170BD8028FCD18B1E052B00F24A
S214008D00B480DFE803F0AF9DB26DB2ACB0F5D06FC3
S214008D1000F0158134D8B0F5A06F00F0218117D887
S214008D20B0F5806F00F0B380B0F5906FE2D1023CF2
S214008D30E4B2052C8CBF00219A4B9B4A98BF195D64
S214008D40D2F8243123F007030B43C2F82431D1E7CD
S214008D50B0F5B06F00F08C80B0F5C06FCAD1083C9B
S214008D60E4B2032C8CBF0021904B8F4A98BF195D4C
S214008D70D2F8403123F003030B43C2F84031B9E781
S214008D80B0F5006FD3D017D8B0F5E06F00F0F980DB
S214008D90B0F5F06FAED1083CE4B2032C8CBF0021D6
S214008DA0834B814A98BF195DD2F8603123F00303E4
S214008DB00B43C2F860319DE7B0F5086F9AD1CC1E20
S214008DC0E4B2052C8CBF00217A4B774A98BF195D18
S214008DD0D2F8003123F003030B43C2F8003189E7D1
S214008DE0002502260121022000F002FAFFF7EEFB22
S214008DF0FFF742FF4FF480316F4B6B4A1967136FD2
S214008E0023F0070333431367FEF738FC0646FFF7E5
S214008E1055FAC0F102013046FFF7D2FE01210020CC
S214008E2000F026FAFFF72EFFFFF7BAFC002D7FF4BE
S214008E3061AF032C7FF45EAF0122604B9A6259E764
S214008E404FF400225C4B03265A66012203F540537A
S214008E509D6A03F58053C5F340059A62C2E7002574
S214008E600426BFE700250126BCE700252E46B9E705
S214008E70022C03D0A4F10F00444244414A4AD2F8DF
S214008E80803123F003031C43C2F8804132E7023CE2
S214008E90E4B2032C8CBF0021494B434A98BF195DAE
S214008EA0D2F8203123F003030B43C2F8203121E728
S214008EB0A1F10804082C3FF61DAF01A353F824F0D7
S214008EC0E58E0000E58E0000F58C0000E58E0000C3
S214008ED0138F0000F58C0000F58C0000F58C000068
S214008EE0E58E00004FF480322F4B3649586E03F55E
S214008EF080535A660B6A43F001030B62C1035CBFE2
S214008F00314B5A664FF0E022136923F004031361D5
S214008F10F0E64FF48032244B2A49586E03F580530E
S214008F205A660B6A23F001030B62C3035CBF264B31
S214008F305A664FF0E022136943F00403E7E7083C63
S214008F40E4B2062C8CBF0021204B174A98BF195D4F
S214008F50D2F8003223F007030B43C2F80032C9E60A
S214008F600F2C0CD0102C14BF002102210E4AD2F870
S214008F70203223F003030B43C2F82032BAE6012165
S214008F80F4E7083CE4B2032C8CBF0021104B064AE1
S214008F9098BF195DD2F8403223F003030B43C2F8A2
S214008FA04032A7E670470300008000406C4703008D
S214008FB06C4703007D4703000090004000E000403F
S214008FC06847030000C0074000A000407647030043
S214008FD06C4703000028ABBF00F16040054B00F56E
S214008FE0614000F00F00ACBF90F80003185C000969
S214008FF0704700BF14ED00E0EFF3108072B67047C4
S21400900000B962B67047EFF31180302383F31188FE
S214009010704780F311887047054B420953F8223099
S21400902000F01F0023FA00F0C04300F00100704774
S21400903000E100E0014608B5EFF31083DB0702D538
S2140090400122104608BDFFF7E7FF02460028F7D1C9
S2140090500846FFF7BFFF0146EFF3118313B1B0EBED
S214009060131FEDD2074B5B68C3F30803002BE8D051
S214009070103B58B2FFF7AEFF88428CBF0022012299
S214009080DFE700BF00ED00E0194B10B51B6873B3B7
S214009090184A5268012A2AD0174A8020C2F800319E
S2140090A0FFF78EFB05281FD14FF4C070FFF73EFA7E
S2140090B00128044604D102214FF4C070FFF786FD54
S2140090C007220E4B1A610122A3F580535A60094A03
S2140090D01369DB07FCD5012C09D12146BDE81040F9
S2140090E04FF4C070FFF772BD0122054B5A6010BDE9
S2140090F0983E002000C001400080004000E0014093
S21400910000D0014000224FF40031074B1A60074A96
S214009110516602F598325268012A02BF044AD2F814
S21400912000211A60704700BF983E00200090004063
S214009130008000404FF04022536F417823F4407384
S21400914043EA0123536770477047704710B50446DB
S21400915008B1FFF7D7FF0E4A136943F00403136103
S21400916001F0ACFDFFF7F0FFFFF746FF2BF054F8D9
S214009170FFF746FFFFF7E9FF01F0B4FD1CB1BDE8BD
S2140091801040FFF781BFBDE81040FEF777BA00BF7A
S21400919000ED00E010B5044608B1FFF7B3FF0C4A37
S2140091A0136943F00403136101F088FDFFF724FF01
S2140091B02BF032F8FFF724FF01F094FD1CB1BDE858
S2140091C01040FFF761BFBDE81040FEF757BA00BF7A
S2140091D000ED00E0FFF796BFFFF756BF4FF04022C6
S2140091E0D36E017923F030030B43D3667047704784
S2140091F0F8B504464FF04023D3F88420D106FBD4BC
S214009200D3F88430C3F381139C422DD0FEF71CFAAA
S214009210012C064602D12146FFF7D2FCFFF7ECFEF2
S2140092204FF00072114B07465A662046FFF7DFFFE5
S2140092304FF480634FF04025621E93402B676B6EA1
S2140092409A0103D4D5F884309B060AD53846FFF732
S214009250D7FE022C08D13046BDE8F8400021FFF7C3
S214009260AFBCD5F88430EAE7F8BD00BF0060004028
S21400927007B518B90191FEF7E7F90199064B1B7877
S21400928043B1064B984205D8012003B05DF804EBC5
S214009290FFF7AEBF0220F8E79C3E0020005A6202AD
S2140092A00278034B012100201A70FFF7E1BF00BFD0
S2140092B09C3E00204FF0004210B501244AF6CD3106
S2140092C0144B5A66144A03F50B2354605A6C1964FF
S2140092D0224078B9996811F0010F104903D08C60CC
S2140092E0D86AC007FCD501234B6012B10C4B0D4A5F
S2140092F01A6410BDD96A0907FCD42021074B5962AD
S2140093000121A3F58053996005494B6A9B06FCD55D
S214009310EBE700BF009000400050094000600940A5
S214009320004009403254FFFF4FF0004238B5184B5A
S214009330184C5A66012203F50C235A604AF6CD33C0
S214009340656C236443781540934013434FF04022E6
S214009350D363A368827823F0740343EA0213C278C7
S214009360002A14BF042200221343A36002798379E3
S21400937043EA022323614279C37943EA0223636105
S2140093800078FFF797FF0DB1034B2364012038BD2B
S21400939000900040004009403254FFFFC36C0B426F
S2140093A0FCD1704708B543680246DB0714D50A238C
S2140093B050210363FFF7F2FF136C9907FCD1936A01
S2140093C0012110469362FFF7E9FF136C1B0604D4D5
S2140093D0012302F50052536008BD536BF5E738B51C
S2140093E00C460121024600F58053596004F00F0533
S2140093F040F2FF71FFF7D2FF78210563FFF7CEFF3B
S21400940004F00103610748BF43F00203116C01F04A
S21400941003019942FAD138BD09B9FFF7C3BFFFF778
S214009420DEBF036C5B06FCD5C163704770B50546AE
S21400943014460E46FFF7E0FD296881EA040202EAB8
S21400944006044C402C60BDE87040FFF7D9BD000014
S214009450072AF7B501F0030614461F464FF003012E
S2140094602CD89500A94000FA05F21C480191FFF798
S214009470DDFF01991A4806FA05F2FFF7D7FF194BE8
S21400948019499DF82000002F08BF1946012303FA4A
S21400949004F40C60154B1649002808BF0B461C60E8
S2140094A0144B9DF82400C3F820441031A3F6DC3397
S2140094B0002808BF0B461C6003B0F0BDA2F10805EB
S2140094C0AD00A94000FA05F20B480191FFF7AEFF88
S2140094D001990A4806FA05F2CFE700BF00C4034028
S2140094E008C4034010E4034010D4034014D40340DF
S2140094F014E4034000E0034004C403400CC40340EB
S214009500F8B504460D461F4616464AB101238B4061
S2140095103021184A01FB0022F7B141F210015350E6
S2140095203023072D4FF00F0104FB03F317D8A800D4
S21400953006FA00F2814010481844FFF777FF56B944
S214009540012130230B4801FA05F503FB040077B12F
S21400955041F21003C550F8BD42F21001DFE7A5F155
S2140095600800800006FA00F281400448E4E742F270
S2140095701003EFE700C0034004C003400CC00340E4
S214009580F8B505460E4614465AB3826803F003073C
S21400959022F440728260FFF72FFDAA6882EA072352
S2140095A003F440735340AB60FFF72AFD36B9104B07
S2140095B09D4217D12E20FFF733F80646AB680D4BB9
S2140095C0D85D60430DD06FEAC4040444A319B3FB0E
S2140095D0F0F3AA68013B920702D5002B08BF0123CF
S2140095E0AB61F8BD044B9D42E8D12F20E3E700BFF6
S2140095F00000014A8347030000800640043021B182
S21400960000F5805001230360704700F50050F9E72D
S21400961038B500230E4A036400F50053DA634A782F
S21400962004460D4600F108037AB903F5805302227A
S2140096301A602046D5E901122B7BFFF7A1FF2046D2
S2140096402978BDE83840FFF7D9BF03F50053EEE7A9
S214009650FFFF1F00884B2DE9F043984222D0874B2E
S214009660984240F00581864B402505264FF00008BD
S2140096704FF0030C996800F50054C26B12F4C06FEB
S21400968016D0970510D5FD225A7009221A700022AE
S214009690026493F90110012900D15A7093F9010070
S2140096A0BDE8F083774BDFE75605EED5FE22EBE705
S2140096B01F78082F00F2D880DFE817F009001F0097
S2140096C041004C006900740096009E00CD004C8856
S2140096D00A88E5060AD5120A02F0060242F0F002EF
S2140096E0012119704263C1600120D9E702F0FE0231
S2140096F0A10748BF42F00102F2E7170607D580210E
S21400970000F50052D1634FF608721A8062E05206E6
S214009710EAD54A88E563D70604D502221A700B7884
S2140097204363E1E7920765D507221A701B7901EBC0
S214009730C3010B89012BD7D10823C360D4E71706D2
S214009740DDD45206D0D54A88E563970752D583F80C
S21400975000C092E74C880A88E50643BF120A02F06A
S214009760060242F0F00202F0FE02640709D51C79F8
S21400977042F0010201EBC4010989012904BF082156
S214009780C160042119700123C3604263ACE7170669
S214009790B5D45706A8D54A88E56352072AD50722C6
S2140097A01A70A1E71A795F8801EBC20EBEF808901E
S2140097B0B94511D80132D2B21A714F88A3F8028087
S2140097C017F0040FC3D1FF0702D4012A7FF655AF66
S2140097D008221A700223B0E7DEF80420791C5980AC
S2140097E0D25D42630622DBE7170688D457067FF56C
S2140097F07BAFE5631E7040E794067FF575AF456A5C
S214009800214C46691A793440B4F5003F04BF466AD5
S2140098104FF4005601EBC20100F500540A8908BF58
S214009820E6632026E6635C88A24281BF4968661C20
S2140098305E800D5559888A42CAD90424012AC4601C
S21400984004D9013A914201D10822C2601A78092A45
S2140098503FF41DAF48E7D2057FF546AF4FF4807161
S21400986000F50052D16310E74FF609321A800EE772
S2140098706FF0030014E700BF0000014A00800640B6
S214009880AC3E0020A03E0020200002001C4B10B47E
S214009890984207D01B4B98422ED06FF003005DF81D
S2140098A0044B7047184B0269D20744BF2022C2609F
S2140098B04A88940702D50C89002CEED0520702D5B0
S2140098C00A8A002AE9D04FF480721A600022996052
S2140098D01A71C023C3604369DB050FD4202200F54C
S2140098E00053DA63094A5DF8044BDA63036C43F409
S2140098F0FC630364FFF7AEBE054BD4E7436AEAE7B2
S2140099000000014A00800640A03E0020FFFF1F0026
S214009910AC3E0020044A054B002918BF134601221E
S21400992002FA00F0186070474020044040100440DF
S21400993010B5012104462020FEF750FE012121200B
S214009940FEF74CFE0122114B5A60227812069A60EE
S2140099506178A27842EA01429A61FF229A62002266
S2140099609A631A644FF000425A654FF0FF324FF484
S214009970001103F500531A65054AC2F88011E37812
S2140099801B01DBB282F81533116010BD00000440E5
S21400999000E100E04FF40032054B9A6641F6713262
S2140099A003F51C33DA63012203F50053DA607047CF
S2140099B00090004041F671320121064BDA6303F550
S2140099C00052D1600022DA634FF40032A3F5183358
S2140099D09A667047000003404FF090435A6812B1F1
S2140099E09A6A002AFAD17047CB784A7810B55B019C
S2140099F00C7843EA82030A79234343EA02130C22D3
S214009A00424302F190421363012C02BF8A78024B54
S214009A1043F8202010BD00BFE880034008B54FF093
S214009A2090435A6802B960B15B680BB1FFF7D4FF88
S214009A304FF0904130B10120074B5860FFF7CCFF44
S214009A40C86008BDFFF7C8FF0223CB60FFF7C4FF5E
S214009A500122024B5A60F4E700100048002000483C
S214009A604FF090435B6870B50BB1FFF7B5FF01216F
S214009A70104B4578596083780679002BC37814BF5D
S214009A8002240024002B14BF042200224379DB00AA
S214009A9043EA06132B43234313434FF0904293604D
S214009AA0054B59600378002B14BF0B460223D36086
S214009AB070BD00BF00200048001000484FF4803200
S214009AC0064B5A6603F5E6235B69C3F3851282707C
S214009AD003F03F021B0B427003707047009000407B
S214009AE070B5054616461C4621B94FF42070FEF7A1
S214009AF097FD0146402C1BD003D8DCB1202C1BD090
S214009B0070BD602CFCD1042303FB06F2560806EB5E
S214009B104113B3FBF2F3094A203B02EAC303AA68E7
S214009B2022F06002AA60AA681443AC60EB61E7E723
S214009B300623E9E71023E7E70823E5E7F8FF7F00B9
S214009B4038B50546144621B94FF42070FEF768FD77
S214009B50014601396400B1FBF4F10902E96138BD40
S214009B60012200F580535A60CB43934003F00A036A
S214009B704361416111B900F5005042607047000032
S214009B80012200F5805310B55A6040F6AA6341F2F0
S214009B900502436100230E498360C365C26000F579
S214009BA000520361C361C36491640A4983658842B5
S214009BB002D0094CA04207D18842036502D0064B6A
S214009BC0984201D1002343650123536010BD00BFB6
S214009BD0FFFF010000C005400000064070B50D46BE
S214009BE0FFF7CEFF012300F580567360AB7C04467A
S214009BF01BB1836843F080438360EB7C5BB1354ADE
S214009C002B7D944245D1A2F51032C2F88C31E36D1B
S214009C1043F08003E3652A8A6B7B20461343EA8978
S214009C201343E3602B7BD5E90112FFF759FF6B7DE9
S214009C301BB1A36843F48033A360AB7D1BB1A3685C
S214009C4043F40043A360EB7D2A7E1B07120502F453
S214009C50E00203F0E0431343A365697E1D4A8B1EB2
S214009C60012B1D4B1FD894421BD002F58042944214
S214009C700CBF01224FF0FF3203EB4213022041F2E9
S214009C801C620329985020D10423F3652B78636166
S214009C9070BD124A944204BFA2F52032C2F89C312D
S214009CA0B5E70022E8E794420DD00C4A94420CBF78
S214009CB001224FF0FF3203EB4213022042F21C62F5
S214009CC001299850DFE70022F5E7042204F5005347
S214009CD0DA65DBE700C0054000C003400000064030
S214009CE038B50D46FFF74CFF0122A97B00F58053DF
S214009CF05A602A8A8368002914BF4FF480610021C5
S214009D0042F0010213432A7D0B43002A14BF4FF092
S214009D100052002283608368044613438360AB7C52
S214009D205BB11D4AEB7C90422DD1A2F51032C2F8F1
S214009D308C31E36D43F08003E3652B7B2046D5E949
S214009D40011243F48053E360FFF7FAFE6B7B0BB11E
S214009D50102363616B7D1BB1A36843F48033A3605B
S214009D60AB7D1BB1A36843F40043A360EB7D2A7E62
S214009D701B07120503F0E04302F4E0021343A36559
S214009D802B78636138BD054A904204BFA2F52032A5
S214009D90C2F89C31CDE700BF00C005400000064079
S214009DA083691B06FCD5406AC0B2704783695A06B1
S214009DB0FCD5C16383699B06FCD5406AC0B2704778
S214009DC083695B06FCD5C1637047000038B504465E
S214009DD0054D1FF089FE0FCC0FC594E8030085E8FB
S214009DE00300002038BD00BFB83E002047F6FF73D2
S214009DF09A42F0B563D0022963D8334BCF0003EB09
S214009E00C10013F831108478012913D10025C378D6
S214009E101B1B9D4202D3E018C0B2F0BD591B46681A
S214009E20A3EB510136F911609642D4BF0D4601F1FD
S214009E30FF33EEE740680028EFD0B0F900109142FB
S214009E4004DBB0F902109142B8BF114682883B4449
S214009E50FF2A19BFC8222826B0F90620B0F90860E4
S214009E60A2EB01020CBF0125002592FBF6F25F78FB
S214009E702A447B1E934228BF13464FF47A7E00EB9B
S214009E80C305AE68EA88AC4611FB02621E4622EAAB
S214009E90E272013302F5FA729F42B2FBFEF204D977
S214009EA0BCF80CC008359445EBD200EBC6008088A1
S214009EB0904228BF1046A04238BF2046ACE7FF209D
S214009EC0ABE70020A9E700BFB83E00200229F0B5A6
S214009ED053D82B4800EBC10410F8311063680129F1
S214009EE00FD1E078A478904294BFC4EB0001C4EB95
S214009EF00201001BCAB28242C8BF002233F9120018
S214009F00F0BD002B39D0A178914202D3B3F90200FC
S214009F10F6E7E178B3F900009142F1D999886478C0
S214009F20A1F1FF06013C714203F10405E4B2714160
S214009F3003F10C071FFA82FCCEB2B44216D805EB2A
S214009F40C1014FF47A756A43B1F902404968521A62
S214009F5004EBD47102EB610292FBF4F29042CFDB89
S214009F60B3F902009042CBDC10B2C9E737F831E013
S214009F704E1CE645E3D33146DEE70248C0E700BFA5
S214009F80B83E00200080FFFF08B50448FFF71EFF1C
S214009F90BDE8084001201FF0A9BD00BF88470300A8
S214009FA007B56B46054A1068516803C36846FFF755
S214009FB0BBF9002003B05DF804FB00BF0C480300AB
S214009FC04FF0402213B50024536F684643F0010358
S214009FD0536700948DF80440FFF700F9204602B05E
S214009FE010BD000070B586B001AA1546184B03F1E7
S214009FF01006144618685968083303C4B34222464C
S21400A000F7D119889B782180A370124BD3F84C2186
S21400A010120314D4D3F85041E4B28DF80E40FEF784
S21400A02045FD204480F308008DF80D000A48FDF732
S21400A03041FB2846FEF7A0FC002006B070BD074B8B
S21400A0401C884FF6FF739C4208BF7824E5E700BFE4
S21400A050144803000080E00F00F049020001E00F02
S21400A06008B50120FEF76CFD002008BD1FB50B4AA1
S21400A07001AB1068516803C31189927A19809A70EF
S21400A080252301A88DF80530FEF716FD6420FEF79F
S21400A09051FD002005B05DF804FB00BF2748030013
S21400A0A06FF00402502110B50A480B4C12F0800FD6
S21400A0B0D3B21BBF03F00F03043BA3181B1802F117
S21400A0C001020CBF83F800131976402AEED1002057
S21400A0D010BD00BF00ED00E000E100E000F07AB83F
S21400A0E038B500F0B9FF0446E0B901F0F3F84FF4D4
S21400A0F0167343430C4803F5742303F23F23B3FB64
S21400A100F0F30A4A0A4913600A220D680948013A20
S21400A11012F0FF0240F8043BF9D103EBC3022B44D4
S21400A12013440B60204638BD40420F000C3F002011
S21400A130D83E0020DC3E002070470000012208B513
S21400A140034B1A7001F0BAF8024B186008BD00BF46
S21400A150D43E0020083F0020F8B5144C237823B3E3
S21400A16001F0ACF8124B134D1B68134EC01A0128B1
S21400A17038BF0120114B124F18602B7856F8232059
S21400A18046F82300111A3A680E48521A0A213A6015
S21400A1900932B2FBF1F20133DBB20260B3FBF1F23B
S21400A1A001FB12332B7000232370F8BDD43E002031
S21400A1B0083F0020043F0020DC3E0020D03E002068
S21400A1C0D83E00200C3F0020014B1868704700BFA7
S21400A1D00C3F002020234FF400220A4981F82C333C
S21400A1E0094B5A66094A03F5A040426702674FF4D6
S21400A1F0805003F540530344C1F8840148605A6711
S21400A200704700BF00E100E000900040010000A0A1
S21400A210054B064A1B78916DC90700D513B1002877
S21400A220F9D1704701207047243F002000C000404D
S21400A2302DE9F843874B1E6F9D6A9C6AF00705F070
S21400A240020504F001044CD501278349834A91F89E
S21400A2500090DFF828821767B9F1000F00F0ED8054
S21400A2600020087098F80010B94200F2E180022140
S21400A2709762A2F5805291629A6DD103FCD4784918
S21400A2805A6B096822F470620A435A637548764A24
S21400A29099690068126821F47F01024321F47F4126
S21400A2A00A439A617148724A19691268006821F473
S21400A2B07F6121F00F0102430A431A616D499A69D2
S21400A2C0096822F0FF020A439A610223002D40F03B
S21400A2D0AB80624A93620123002C00F0A780664A96
S21400A2E0936216F000527FD04FF0010E5B4F634929
S21400A2F03A67594A574B82F800E00A78DFF864C19B
S21400A30072440A705A6B564902F470600860986985
S21400A310554900F47F4008609969DFF8588101F4D8
S21400A3207F01CCF80010D3F818C05FFA8CFCC8F890
S21400A33000C0D3F810C0DFF838810CF47C6CC8F885
S21400A34000C0D3F810C0DFF824810CF03F0CC8F82A
S21400A35000C0C7F828E04FF0020EDFF81CC1CCF8AA
S21400A36028E04FF0004ECCF828E0D3F858C01CF494
S21400A370803FFAD14FF0004C22F4706242F4007233
S21400A380B0F5C84FC7F828C05A6302D8B1F5C80F51
S21400A3900CD9304A3A499369096823F47F0323F4B9
S21400A3A07F4343EA012343EA01439361294A35493F
S21400A3B01369096823F47F6323F00F03880843EAD0
S21400A3C0910343EA80131361936923F0FF030B4361
S21400A3D093610223002D37D102F5005293620123C8
S21400A3E0002C33D0244A9362002E1BDA4FF0004232
S21400A3F01A4B18491A67244A12789AB101229A62AF
S21400A4000222A3F580539A628A6DD203FCD44FF0E1
S21400A41000429A61022205B9104B9A620123BCB130
S21400A420154A9362BDE8F883134A53E70B4A57E789
S21400A430FFF782FE144B1F7053E7FFF78DFE00F008
S21400A44077FB88F800904CE70B4AC7E7034ACAE751
S21400A450024AE6E700C00040243F002000E000403B
S21400A460283F0020203F00201C3F0020183F0020EF
S21400A470143F0020103F002000D00040253F002061
S21400A480980D0020940D0020263F0020FFF7D0BE38
S21400A490BFF34F8FBFF36F8F054B5A6A22F480329B
S21400A4A05A62D3F8942022F00102C3F89420704731
S21400A4B000ED00E070B52548254CFFF7E9FF844223
S21400A4C008BF4FF08043234A18BF20F01F03D2F87E
S21400A4D0C01018BF203B21F0FF0141F0A001B3F1EE
S21400A4E0005FC2F8C0100CD31B4D1C4E296843F009
S21400A4F00103C2F898100131C2F89C60C2F8A0307F
S21400A5002960844210D01448154B0268114923F084
S21400A5101F0343F00303C1F89820C1F89C30114B89
S21400A5200132C1F8A0300260BFF34F8FBFF36F8FC8
S21400A5300522084BC3F894205A6A42F480325A62C5
S21400A540BFF34F8FBFF36F8F70BD00BF901000201A
S21400A5506812002000ED00E02C3F002003000020E1
S21400A56087120020E1FFFF3F10B51446FFF790FF6B
S21400A5701F2C21D9194A1A4CD2F8C03021F01F01DD
S21400A58023F47F4343F48073C2F8C030C30618BF79
S21400A59020F01F002368114A18BF203020F01F004B
S21400A5A0C2F8983040F0030041F003010133C2F8CE
S21400A5B09C00C2F8A0102360BFF34F8FBFF36F8FCD
S21400A5C00522064BC3F894205A6A42F480325A6237
S21400A5D0BFF34F8FBFF36F8F002010BD00ED00E07C
S21400A5E02C3F0020BFF34F8F0549064BCA6802F484
S21400A5F0E0621343CB60BFF34F8F00BFFDE700BFA1
S21400A60000ED00E00400FA0508B5FFF7EBFF08BD13
S21400A610034B1B78002B14BF01200220704700BF9D
S21400A620603F00200329F8B598BF124B05460E463A
S21400A6308CBF00245C5C032805D8DFE800F0020825
S21400A6400B0E44F002040C4B1F684FB9F8BD44F0E3
S21400A6500804F8E744F02004F5E744F08004F2E745
S21400A6607B681A68144203D0314628465B689847D0
S21400A6703F68EAE7324803005C3F002038B5104DDB
S21400A6802B78ABB10F4C23781BB100F057FB00239F
S21400A6902370002000F074FB0B4C50B100F07AFBE6
S21400A6A00023012120782B70FFF7BCFF01232370C5
S21400A6B038BD0122054B1A702278054B1A70F7E751
S21400A6C05A3F0020553F00204C3F0020593F0020B5
S21400A6D06C3F002010B5FEF78FFC064B04461B7837
S21400A6E01BB1BDE81040FEF78BBCFFF7C7FF204646
S21400A6F0F7E700BF543F0020002814BF0121FF21C8
S21400A700074A13780B44137008D0064B1B78012BAE
S21400A71004D9054B1B780BB9FFF7B0BF704700BFD5
S21400A720603F00204C3F0020593F002070B5FEF7E8
S21400A73063FC114E054633788BB900F08DFC044659
S21400A74020B12846FEF75CFC204670BD00F0C2FD36
S21400A7500A4B18600A48FCF7CFFF0A4B1C6000F053
S21400A7602FFA00F04BFB084B002418600123284604
S21400A7703370FEF745FCE7E7563F0020683F0020B1
S21400A7805C3F0020703F0020503F002000292DE94C
S21400A790F34114BF0121FF21254A00F1FF30135C6D
S21400A7A00B4413543AD0234E3278012A36D9FFF799
S21400A7B02FFF0128044634D81F4FFEF71DFC3B78B8
S21400A7C01BB31E4D2B781BB901222A701C4A13702E
S21400A7D0DFF8708098F8003033B1019000F0AEFAE0
S21400A7E00023019888F80030FEF70AFC012000F0EC
S21400A7F0C7FAFEF701FC2B782BB1019000F0CAFADD
S21400A800002301982B7000233B70FEF7F9FB30788D
S21400A810A04203D02146FFF705FF347002B0BDE822
S21400A820F081032AF3D10228F1D100F001FBEEE714
S21400A830603F00204C3F00205A3F0020543F00203D
S21400A840593F0020553F002010B50446FEF7D4FBC4
S21400A850002C14BF0121FF21064A13780B44DBB2FB
S21400A8601370B3FA83F3BDE81040034A5B09137014
S21400A870FEF7C6BB633F0020623F002068B5FEF7C8
S21400A880BBFB094B06461B78012B04D8FEF7B8FB2A
S21400A8900025284668BD054B1D6800F0B3FA054440
S21400A8A03046FEF7ADFBF4E74C3F0020703F00203B
S21400A8B007B5FEF7A1FB0190FFF7E0FE019803B095
S21400A8C05DF804EBFEF79CBB38B541600446FEF726
S21400A8D093FB054621460448FCF711FF2846BDE8D1
S21400A8E03840FEF78DBB00BF5C3F0020054B1B6861
S21400A8F05843054B00F5742000F23F20B0FBF3F000
S21400A900704700BF683F002040420F002DE9FF4718
S21400A910FEF772FB044600E000BFFCF75BFD002874
S21400A92000F09C806D4E6E4F337823B10020FFF709
S21400A930E3FE00233370FFF76BFE0546002800F0A9
S21400A9409580851EEDB2012D40F29880FFF760FEDF
S21400A9500128804604D9634B1B780BB900F0ACF98C
S21400A960614DDFF8A4912878DFF8A0A140450AD011
S21400A970002389F800309AF8003013B94146FFF7F3
S21400A98051FE85F8008099F800303BB12B78022BF9
S21400A99004D1002389F800301FF0AEFDB8F1010F96
S21400A9A00FD9DFF8408198F8003053B94F4B1B7829
S21400A9B023B900F0BDF901224D4B1A70012388F827
S21400A9C00030287800F004FA9AF8003013B1494BAA
S21400A9D01B782B7000E000BF2046FEF711FBFEF749
S21400A9E00BFB454B04461A7852B100221A70414BB5
S21400A9F028781B78984203D101212970FFF712FEB0
S21400AA00384600F07DFBFCF7F0FC804600288BD132
S21400AA10344F89F800003B789BB1DFF8D4908AF871
S21400AA20000099F800301BB100F088F989F8008022
S21400AA30002000F0A5F9002846D000F0ABF900236E
S21400AA403B70337823B10020FFF756FE00233370A7
S21400AA5000212878FFF7E6FD00232B7000E000BFFA
S21400AA60204604B0BDE8F047FEF7CABA3378002B9C
S21400AA703FF46CAFFFF740FE357067E7002003A990
S21400AA8000F0E4FB054600287FF460AF1B4B039AFA
S21400AA901B689A4205D80120FFF72EFE012333706B
S21400AAA054E7174BD3F8008000F0ACF90399404404
S21400AAB08842F0D20223091ACDE9005338462B46C5
S21400AAC0104A00F045FB41E7012000F081F92046DE
S21400AAD0FEF796FAFEF790FA0446A9E7643F0020D0
S21400AAE0303F00205A3F00204C3F0020633F0020AC
S21400AAF0553F00206C3F0020583F0020503F00206C
S21400AB00703F0020D5A60000623F0020593F00207D
S21400AB1010B5FEF771FA0022044B1C781A70FEF787
S21400AB206FFA00F0B9FD2043C0B210BD573F0020B9
S21400AB3010B5094B1B786BB1084C237853B100F065
S21400AB4029F90023064A237013700123054A13705F
S21400AB50054A137010BD00BF4C3F0020593F00202F
S21400AB605A3F0020573F0020583F00207047000003
S21400AB7073B5114E04463378834212D000238DF805
S21400AB80043080B102238DF8053001A8FEF7D2FA12
S21400AB900A4D402054B1FFF7A9FE2B68181A28600A
S21400ABA0347002B070BD8DF80500EEE7FFF79EFE2C
S21400ABB02B681844F3E700BF9C0D00207C3F002064
S21400ABC073B5002401A88DF80440FEF769FB204603
S21400ABD04FF40024FFF7CCFF3149324B0A6F02F0E6
S21400ABE007021A60D1F82031D1F8240101F580510E
S21400ABF04C664FF400344C6601F598318969032A97
S21400AC0000F0070001F0020141D003F003039C1E90
S21400AC1063426341022808BF43F001032248234DE4
S21400AC20037061B31E4A3BB9D2F8003103F0030348
S21400AC30591E4B424B410370D2F8003103F0030318
S21400AC40022B26D0032B27D0012B18D1FCF72CFD86
S21400AC50A8B1174B411EDC68002302460846194679
S21400AC60C4F30B04134E013404EB8404E4FB060126
S21400AC7025F038FFFFF73AFE2B681844286064205A
S21400AC80FFF734FE2B681844286002B070BD01231D
S21400AC90C0E7FCF72BFDDBE7FCF71CFDD8E700BFA1
S21400ACA000800040743F00207A3F00207C3F002058
S21400ACB000C0014040420F00FEF78CBA074B1A78DE
S21400ACC052B100221A70064A136F23F0070343F0AE
S21400ACD001031367FCF7D2BC704700BF783F002023
S21400ACE0008000400E4B10B51B7883B1022000F0A8
S21400ACF081FD60B100F0DCFA48B10A4B9A6DD203D0
S21400AD0006D5DB6D9B0703D50122074B9A6210BD63
S21400AD100124064B1C70FFF711FA034B9C62F6E702
S21400AD207A3F002000C0004000D00040793F00205D
S21400AD300122014B1A707047783F002038B50C4B43
S21400AD401B786BB10B4C23787BB90B4B0B4D9A6D74
S21400AD5012F4803F05D0DB6D9B0702D50123AB6262
S21400AD6038BDFFF7EBF90123AB6200232370F7E74A
S21400AD707A3F0020793F002000C0004000D000400D
S21400AD80034B1B780BB1FFF743BA0120704700BF97
S21400AD907A3F002008B5FEF71FFA094A0949136FE3
S21400ADA0096823F007030B431367074B1B7813B19F
S21400ADB00122064B9A62BDE80840FCF75FBC00BF64
S21400ADC000800040743F00207A3F002000E00040F2
S21400ADD002280AD003280BD001280CD1064A136992
S21400ADE023F00403136130BF70470020FEF7AEB9AE
S21400ADF00020FEF7CFB9704700ED00E04FF4C870B2
S21400AE00FFF774BD08B5054B187818B1FFF7DCF9E5
S21400AE1000EBD000024B1B68184408BD7A3F0020A8
S21400AE207C3F00200122014B1A7070477A3F0020B9
S21400AE307047830711D16422B0FBF2F302FB1303C1
S21400AE409BB263B94FF4C873B0FBF3F203FB120076
S21400AE5080B2B0FA80F040097047002070470120A9
S21400AE607047000070B5044650B3C6888A2E27D8AF
S21400AE7005790B2D24D8C17811B33046FFF7D9FFDA
S21400AE800C22104B02FB0030435D8B4218D3A27895
S21400AE90172A15D863783B2B12D820783B280FD872
S21400AEA08A2E0BD165B913290AD8032A08D80E2B87
S21400AEB006D807288CBF0020012070BD0120FCE7C3
S21400AEC00020FAE73648030010B500F033FC0A4CC1
S21400AED00A4B19682368C31A01B10BB9206010BD6C
S21400AEE04A699A423ABF9B1A0022D21A4A6128BF80
S21400AEF000238968F0E700BF8C3F0020A83F0020B1
S21400AF00C38870B504460D463BB9FFF7B7FC8542CB
S21400AF10064602D2FFF7CCFC35460F4965610B6842
S21400AF20ABB90C60A36011E0AD1A9A68184665616B
S21400AF302AB113465A69AA42F6D950B11A461346A0
S21400AF408460A36013B15969491B596170BD002024
S21400AF50F0E70C60F5E700BFA83F002038B5134DBA
S21400AF602B685B6993B1124A022014681C4400F0F7
S21400AF7015FC204600F0E6FB00230E492A680B70FD
S21400AF80D088800709D501230B7038BD022000F059
S21400AF9005FC022000F026FCEEE79268002AF4D0BA
S21400AFA050690344012BEBD9EFE700BFA83F002010
S21400AFB08C3F0020943F002070B516469DF8142064
S21400AFC0C0E903360271049ABDF818300260002208
S21400AFD0C380826004460D4600F0ACFB3044A0619E
S21400AFE03DB9E368656113B120462168984796B17C
S21400AFF03546FEF701F80646FFF766FF2946204667
S21400B000FFF77EFF054B1B68A34201D1FFF7A6FFA3
S21400B0103046FDF7F5FF002070BD00BFA83F0020BA
S21400B02000220C490B687BB183420AD183687AB14F
S21400B030936083681BB15A6941690A445A610020CB
S21400B04070471A469B68EEE70028EFD0022070474C
S21400B0500B60EEE7A83F0020F8B5FDF7D4FF1E4FC3
S21400B06006463C78002C32D11C4B1C601C4B1C60E6
S21400B0701C4B1C8000F01CFB012000F08FFB00F036
S21400B080E3FB194B0546186020B93046FDF7C1FFB3
S21400B0902320F8BD154B02461C60002023460121E4
S21400B0A025F020FD124B00201A6001212A46234677
S21400B0B025F018FD0F4B2A46186040F2E73123466C
S21400B0C00D4825F00FFD0D4B186001233B703046F0
S21400B0D0FDF79FFF0020DCE7883F0020A83F002008
S21400B0E08C3F0020963F0020A43F00209C3F00207D
S21400B0F0843F0020803F002018FCFFFF903F002088
S21400B1002DE9F0410546F8B1FDF776FF0F4F0646EC
S21400B110FFF7DAFE2846D7F80080FFF781FF0446DF
S21400B12028B13046FDF76CFF2046BDE8F081A84503
S21400B1303B6803D123B1FFF711FFF2E7002BF0D1F4
S21400B140022000F037FBECE72224EDE7A83F0020C2
S21400B15070B586B015461E460446059180B1FFF7C9
S21400B160CFFFBDF82C30002202939DF828302046F1
S21400B170CDE9006305992B46FFF71EFF06B070BDAC
S21400B1802220FBE738B50C46054698B191B100235E
S21400B1900B70FDF738FF0121074B1B680BB12278B7
S21400B1A01AB1FDF736FF002038BDAB4214BF9B68CE
S21400B1B02170F3E72220F7E7A83F0020F0B51F46EE
S21400B1C0002387B00D46164604468DF81730A0B10A
S21400B1D00DF11701FFF7D6FF9DF817207AB9BDF8D5
S21400B1E03430294602939DF830302046CDE900736E
S21400B1F03346FFF7E1FE07B0F0BD2220FBE7032051
S21400B200F9E7F0B51F46002387B00D4616460446FC
S21400B2108DF81730A8B10DF11701FFF7B3FF9DF8B1
S21400B220173083B9BDF834302A4602939DF8303083
S21400B2302946CDE9007320463346FFF7BDFE07B02A
S21400B240F0BD2220FBE70220F9E700002DE9F041DF
S21400B25007468846FDF7D7FE00260546124B1C68B3
S21400B26024B92846FDF7D5FE1B2016E063691E4468
S21400B270E388BB4215D100F05DFA0C4C2368C01A77
S21400B280B0420CD200F056FA22683244121A28460F
S21400B290C8F80020FDF7BDFE0020BDE8F0810022C2
S21400B2A0F5E7A468DCE700BFA83F00208C3F00203D
S21400B2B0014B1878704700BF943F002038B5FDF763
S21400B2C0A2FE054600F036FA04462846FDF7A1FE23
S21400B2D0204638BD014B1868704700BFA43F0020C9
S21400B2E070B500F027FA04460A4B1E68FDF78BFE81
S21400B2F0B4FBF6F3084A06FB134415681D44074BD7
S21400B3001B681C44B44228BF0135FDF782FE284660
S21400B31070BD00BFA43F00209C3F0020983F002047
S21400B320F8B5041E17DB0D4B00251F6800F002FA67
S21400B3300646FDF768FE0A4B0A4A1D60B6FBF7F3A1
S21400B3409C42146005D3E41A1460FDF762FE28469A
S21400B350F8BDFDF75EFE2120FAE700BFA43F0020FF
S21400B360983F00209C3F00202DE9F0410C46904677
S21400B3701F460546002842D040F26B7399429DF85E
S21400B380183088BFA1F26C7483709DF81C3088BF9B
S21400B390A4B243709DF82030C4800370099B0271EC
S21400B3A0C770C360FFF75EFD58B32046FFF741FD48
S21400B3B00C22154B02FB003000231946DAB29045EA
S21400B3C017D840F26D12A4F149035443A4F5C744BC
S21400B3D04A3C04EB93040723394489B20C44B4FB7B
S21400B3E0F3F30020C3EBC303E41A69812C72BDE8B3
S21400B3F0F08110F8016B01330E44B1B2DEE7222073
S21400B400F5E72120F3E700BF36480300F8B5064607
S21400B4100D46FFF727FD002837D0F0881C49A0F11D
S21400B4204602D2B2022A82BFD41EA410013402FB06
S21400B43001F194BF0024E4B2FFF7FBFC0C22154B8D
S21400B440377902FB003000239F4218DC4FF461601E
S21400B4507378B278C3EB03139B0000FB0233002023
S21400B46032781344F2780B44013A14440A4AA4B2E0
S21400B47002FB04342C60F3681C442C60F8BD10F802
S21400B480012B01331444A4B2DEE72120F6E700BF07
S21400B4908033E1013648030080510100002313B5D4
S21400B4A004460193FFF7DEFC48B1204601A9FFF7EA
S21400B4B0ADFF10B90198FFF733FF02B010BD212091
S21400B4C0FBE700000C4B70B51B680D46834211D39A
S21400B4D040F2E73100248C462146084B4FF47A723E
S21400B4E01E680023E0FB06C1604625F0FBFA2860D4
S21400B4F0204670BD2120FCE7903F0020A43F00209E
S21400B5000F4B10B51A689AB14FF47A71531E134256
S21400B510A0FB01010ED1B2FA82F2C2F11F04531C45
S21400B520D243E04001FA03F3184321FA02F2024341
S21400B530104610BD002325F0D5FA0246F8E700BFF6
S21400B540A43F0020C2072DE9F347044620D54A4B06
S21400B5504A494B4A1D6812680B681344AB42494A75
S21400B5600B6004D310685B1B013010600B6046490B
S21400B570136809680B441360444A138801339BB26E
S21400B5801380FFF7A1FC424B1B680BB1FFF7E6FCEC
S21400B590A3076DD5FDF737FD002605463746FFF7AE
S21400B5A093FCB146DFF8E880D8F800400CB1636938
S21400B5B08BB10022374B012F1A7002D1022E08BF22
S21400B5C01F70002C44D0FFF7C9FC284602B0BDE827
S21400B5D0F047FDF71EBD23461A792179914288BFB0
S21400B5E01C469B6813B15A69002AF5D02846FDF719
S21400B5F010FD256985B300F09DF8A269861AF31739
S21400B600B54279EB030328DA23691344A3610123C7
S21400B610226982B17BB9A91B0191FDF7F4FC824631
S21400B62001992046FFF76CFCA36922695046134433
S21400B630A361FDF7EEFCE368E688013713B1204608
S21400B64021689847FDF7DFFC0546FFF73DFCABE7B2
S21400B650022000F0AFF8B8E72E46FDF7D4FC82468D
S21400B6602046FFF7DDFC5046FDF7D3FC0023CFE76E
S21400B67002B0BDE8F08700BFA43F0020983F00203E
S21400B680843F00209C3F0020803F0020963F002003
S21400B690A83F0020A03F002010B5FDF7B4FC034BE8
S21400B6A01C78FDF7B6FC204610BD00BFA03F00206A
S21400B6B01FB500241C4B012118689A880290D3F805
S21400B6C006009B7A00903E20ADF80C208DF80430E2
S21400B6D0FCF784FF02A88DF808408DF80C40FEF7B2
S21400B6E0BFF9694601208DF80040FEF77DF94FF05E
S21400B6F0904240F2FF31936923F47F7323F00303F3
S21400B70093610A4B5961936A13F00803FBD11362E5
S21400B7100120FEF783F94FF48052054BC3F88021D1
S21400B7201A6004B010BD00BF4E4803000020004859
S21400B73000E100E04FF090439A6A1207FCD4186AC2
S21400B740704700004FF09042936A1907FCD4136AC2
S21400B750116C5269520604D4CA1A032A01D89942B7
S21400B7600ED1C21A022A98BFD81CB0F1FF3F38BFCC
S21400B77001384FF0904318649A6942F040029A618B
S21400B780054A13783BB14FF09041CB6B43F0020370
S21400B790CB630023137070479D0D002082074FF087
S21400B7A0904200F00103916948BF43F040030B4309
S21400B7B093617047820700F001030AD50121084A09
S21400B7C043F0400311704FF09041CA6B22F0030221
S21400B7D0CA634FF090418A6922EA03038B6170477F
S21400B7E09D0D0020830742BF4022014B5A617047DF
S21400B7F0001000484FF0904301285B6904D00228EF
S21400B80005D1C3F38010704703F001007047002095
S21400B8107047000010B5FDF7F6FB4FF09043044666
S21400B8205B695A06074A03F0010003F0510348BF5C
S21400B83040F002005361FFF785FE2046BDE8104049
S21400B840FDF7E7BB002000483E20FCF7E9BE08B540
S21400B850FBF754FDFBF78AFDFBF791FDFBF79CFD1C
S21400B860BDE80840FBF79FBD08B5FBF79DFDFBF75D
S21400B8709CFDFBF79BFDBDE80840FBF799BD00006B
S21400B88010B50446FBF7FAFE0C4BA0F57A729A4206
S21400B89012D84FF47A73B0FBF3F05C43084BB3FB5B
S21400B8A0F0F0B4FBF0F0022806D9BDE81040032300
S21400B8B0B0FBF3F000F00CB810BD00BFFFC99A3B18
S21400B8C040420F00000000000000000000000000E2
